{
  "_format": "hh-sol-artifact-1",
  "contractName": "SecurePass",
  "sourceName": "contracts/SecurePass.sol",
  "abi": [
    {
      "inputs": [],
      "stateMutability": "nonpayable",
      "type": "constructor"
    },
    {
      "inputs": [],
      "name": "RFID_CARD_COST",
      "outputs": [
        {
          "internalType": "uint256",
          "name": "",
          "type": "uint256"
        }
      ],
      "stateMutability": "view",
      "type": "function"
    },
    {
      "inputs": [
        {
          "internalType": "uint256",
          "name": "_eventId",
          "type": "uint256"
        }
      ],
      "name": "buyTicket",
      "outputs": [],
      "stateMutability": "payable",
      "type": "function"
    },
    {
      "inputs": [
        {
          "internalType": "string",
          "name": "_eventName",
          "type": "string"
        },
        {
          "internalType": "uint256",
          "name": "_eventDate",
          "type": "uint256"
        },
        {
          "internalType": "uint256",
          "name": "_eventTime",
          "type": "uint256"
        },
        {
          "internalType": "uint256",
          "name": "_ticketPrice",
          "type": "uint256"
        },
        {
          "internalType": "uint256",
          "name": "_ticketCount",
          "type": "uint256"
        }
      ],
      "name": "createEvent",
      "outputs": [],
      "stateMutability": "nonpayable",
      "type": "function"
    },
    {
      "inputs": [],
      "name": "eventCounter",
      "outputs": [
        {
          "internalType": "uint256",
          "name": "",
          "type": "uint256"
        }
      ],
      "stateMutability": "view",
      "type": "function"
    },
    {
      "inputs": [
        {
          "internalType": "address",
          "name": "",
          "type": "address"
        }
      ],
      "name": "eventOrganizers",
      "outputs": [
        {
          "internalType": "bool",
          "name": "",
          "type": "bool"
        }
      ],
      "stateMutability": "view",
      "type": "function"
    },
    {
      "inputs": [
        {
          "internalType": "uint256",
          "name": "",
          "type": "uint256"
        }
      ],
      "name": "events",
      "outputs": [
        {
          "internalType": "uint256",
          "name": "eventId",
          "type": "uint256"
        },
        {
          "internalType": "string",
          "name": "eventName",
          "type": "string"
        },
        {
          "internalType": "uint256",
          "name": "eventDate",
          "type": "uint256"
        },
        {
          "internalType": "uint256",
          "name": "eventTime",
          "type": "uint256"
        },
        {
          "internalType": "uint256",
          "name": "ticketPrice",
          "type": "uint256"
        },
        {
          "internalType": "uint256",
          "name": "ticketCount",
          "type": "uint256"
        },
        {
          "internalType": "uint256",
          "name": "ticketSold",
          "type": "uint256"
        },
        {
          "internalType": "address",
          "name": "eventOrganizers",
          "type": "address"
        },
        {
          "internalType": "bool",
          "name": "isValid",
          "type": "bool"
        }
      ],
      "stateMutability": "view",
      "type": "function"
    },
    {
      "inputs": [],
      "name": "getAllEvents",
      "outputs": [
        {
          "components": [
            {
              "internalType": "uint256",
              "name": "eventId",
              "type": "uint256"
            },
            {
              "internalType": "string",
              "name": "eventName",
              "type": "string"
            },
            {
              "internalType": "uint256",
              "name": "eventDate",
              "type": "uint256"
            },
            {
              "internalType": "uint256",
              "name": "eventTime",
              "type": "uint256"
            },
            {
              "internalType": "uint256",
              "name": "ticketPrice",
              "type": "uint256"
            },
            {
              "internalType": "uint256",
              "name": "ticketCount",
              "type": "uint256"
            },
            {
              "internalType": "uint256",
              "name": "ticketSold",
              "type": "uint256"
            },
            {
              "internalType": "address",
              "name": "eventOrganizers",
              "type": "address"
            },
            {
              "internalType": "bool",
              "name": "isValid",
              "type": "bool"
            }
          ],
          "internalType": "struct SecurePass.Event[]",
          "name": "",
          "type": "tuple[]"
        }
      ],
      "stateMutability": "view",
      "type": "function"
    },
    {
      "inputs": [
        {
          "internalType": "address",
          "name": "_userAddress",
          "type": "address"
        }
      ],
      "name": "getAllTicketsOfUser",
      "outputs": [
        {
          "components": [
            {
              "internalType": "uint256",
              "name": "ticketId",
              "type": "uint256"
            },
            {
              "internalType": "uint256",
              "name": "eventId",
              "type": "uint256"
            },
            {
              "internalType": "address",
              "name": "buyer",
              "type": "address"
            },
            {
              "internalType": "bool",
              "name": "isValid",
              "type": "bool"
            }
          ],
          "internalType": "struct SecurePass.Ticket[]",
          "name": "",
          "type": "tuple[]"
        }
      ],
      "stateMutability": "view",
      "type": "function"
    },
    {
      "inputs": [
        {
          "internalType": "uint256",
          "name": "_eventId",
          "type": "uint256"
        }
      ],
      "name": "getEventDetails",
      "outputs": [
        {
          "components": [
            {
              "internalType": "uint256",
              "name": "eventId",
              "type": "uint256"
            },
            {
              "internalType": "string",
              "name": "eventName",
              "type": "string"
            },
            {
              "internalType": "uint256",
              "name": "eventDate",
              "type": "uint256"
            },
            {
              "internalType": "uint256",
              "name": "eventTime",
              "type": "uint256"
            },
            {
              "internalType": "uint256",
              "name": "ticketPrice",
              "type": "uint256"
            },
            {
              "internalType": "uint256",
              "name": "ticketCount",
              "type": "uint256"
            },
            {
              "internalType": "uint256",
              "name": "ticketSold",
              "type": "uint256"
            },
            {
              "internalType": "address",
              "name": "eventOrganizers",
              "type": "address"
            },
            {
              "internalType": "bool",
              "name": "isValid",
              "type": "bool"
            }
          ],
          "internalType": "struct SecurePass.Event",
          "name": "",
          "type": "tuple"
        }
      ],
      "stateMutability": "view",
      "type": "function"
    },
    {
      "inputs": [
        {
          "internalType": "uint256",
          "name": "_ticketId",
          "type": "uint256"
        }
      ],
      "name": "getTicketDetails",
      "outputs": [
        {
          "components": [
            {
              "internalType": "uint256",
              "name": "ticketId",
              "type": "uint256"
            },
            {
              "internalType": "uint256",
              "name": "eventId",
              "type": "uint256"
            },
            {
              "internalType": "address",
              "name": "buyer",
              "type": "address"
            },
            {
              "internalType": "bool",
              "name": "isValid",
              "type": "bool"
            }
          ],
          "internalType": "struct SecurePass.Ticket",
          "name": "",
          "type": "tuple"
        }
      ],
      "stateMutability": "view",
      "type": "function"
    },
    {
      "inputs": [
        {
          "internalType": "address",
          "name": "_userAddress",
          "type": "address"
        }
      ],
      "name": "getUserDetails",
      "outputs": [
        {
          "components": [
            {
              "internalType": "uint256",
              "name": "userId",
              "type": "uint256"
            },
            {
              "internalType": "address",
              "name": "userAddress",
              "type": "address"
            },
            {
              "internalType": "bool",
              "name": "hasRFIDCard",
              "type": "bool"
            },
            {
              "internalType": "uint256[]",
              "name": "ticketsArray",
              "type": "uint256[]"
            }
          ],
          "internalType": "struct SecurePass.User",
          "name": "",
          "type": "tuple"
        }
      ],
      "stateMutability": "view",
      "type": "function"
    },
    {
      "inputs": [
        {
          "internalType": "uint256",
          "name": "_eventId",
          "type": "uint256"
        },
        {
          "internalType": "uint256",
          "name": "_userID",
          "type": "uint256"
        }
      ],
      "name": "isTicketValid",
      "outputs": [
        {
          "internalType": "bool",
          "name": "",
          "type": "bool"
        }
      ],
      "stateMutability": "view",
      "type": "function"
    },
    {
      "inputs": [],
      "name": "owner",
      "outputs": [
        {
          "internalType": "address",
          "name": "",
          "type": "address"
        }
      ],
      "stateMutability": "view",
      "type": "function"
    },
    {
      "inputs": [
        {
          "internalType": "uint256",
          "name": "_eventId",
          "type": "uint256"
        }
      ],
      "name": "removeEvent",
      "outputs": [],
      "stateMutability": "nonpayable",
      "type": "function"
    },
    {
      "inputs": [],
      "name": "ticketCounter",
      "outputs": [
        {
          "internalType": "uint256",
          "name": "",
          "type": "uint256"
        }
      ],
      "stateMutability": "view",
      "type": "function"
    },
    {
      "inputs": [
        {
          "internalType": "uint256",
          "name": "",
          "type": "uint256"
        }
      ],
      "name": "tickets",
      "outputs": [
        {
          "internalType": "uint256",
          "name": "ticketId",
          "type": "uint256"
        },
        {
          "internalType": "uint256",
          "name": "eventId",
          "type": "uint256"
        },
        {
          "internalType": "address",
          "name": "buyer",
          "type": "address"
        },
        {
          "internalType": "bool",
          "name": "isValid",
          "type": "bool"
        }
      ],
      "stateMutability": "view",
      "type": "function"
    },
    {
      "inputs": [
        {
          "internalType": "uint256",
          "name": "_eventId",
          "type": "uint256"
        },
        {
          "internalType": "uint256",
          "name": "_eventDate",
          "type": "uint256"
        }
      ],
      "name": "updateEventDate",
      "outputs": [],
      "stateMutability": "nonpayable",
      "type": "function"
    },
    {
      "inputs": [
        {
          "internalType": "uint256",
          "name": "_eventId",
          "type": "uint256"
        },
        {
          "internalType": "string",
          "name": "_eventName",
          "type": "string"
        }
      ],
      "name": "updateEventName",
      "outputs": [],
      "stateMutability": "nonpayable",
      "type": "function"
    },
    {
      "inputs": [
        {
          "internalType": "uint256",
          "name": "_eventId",
          "type": "uint256"
        },
        {
          "internalType": "uint256",
          "name": "_eventTime",
          "type": "uint256"
        }
      ],
      "name": "updateEventTime",
      "outputs": [],
      "stateMutability": "nonpayable",
      "type": "function"
    },
    {
      "inputs": [
        {
          "internalType": "uint256",
          "name": "_eventId",
          "type": "uint256"
        },
        {
          "internalType": "uint256",
          "name": "_ticketCount",
          "type": "uint256"
        }
      ],
      "name": "updateTicketCount",
      "outputs": [],
      "stateMutability": "nonpayable",
      "type": "function"
    },
    {
      "inputs": [
        {
          "internalType": "uint256",
          "name": "_eventId",
          "type": "uint256"
        },
        {
          "internalType": "uint256",
          "name": "_ticketPrice",
          "type": "uint256"
        }
      ],
      "name": "updateTicketPrice",
      "outputs": [],
      "stateMutability": "nonpayable",
      "type": "function"
    },
    {
      "inputs": [],
      "name": "userCounter",
      "outputs": [
        {
          "internalType": "uint256",
          "name": "",
          "type": "uint256"
        }
      ],
      "stateMutability": "view",
      "type": "function"
    },
    {
      "inputs": [
        {
          "internalType": "address",
          "name": "",
          "type": "address"
        }
      ],
      "name": "users",
      "outputs": [
        {
          "internalType": "uint256",
          "name": "userId",
          "type": "uint256"
        },
        {
          "internalType": "address",
          "name": "userAddress",
          "type": "address"
        },
        {
          "internalType": "bool",
          "name": "hasRFIDCard",
          "type": "bool"
        }
      ],
      "stateMutability": "view",
      "type": "function"
    },
    {
      "inputs": [
        {
          "internalType": "uint256",
          "name": "_eventId",
          "type": "uint256"
        }
      ],
      "name": "withdrawPayment",
      "outputs": [],
      "stateMutability": "nonpayable",
      "type": "function"
    }
  ],
  "bytecode": "0x608060405234801561001057600080fd5b50336000806101000a81548173ffffffffffffffffffffffffffffffffffffffff021916908373ffffffffffffffffffffffffffffffffffffffff1602179055506103e86002819055506103e86003819055506103e8600481905550613b068061007b6000396000f3fe60806040526004361061014b5760003560e01c80638c4d59d0116100b6578063dbd3cd621161006f578063dbd3cd62146104c8578063dbf3f3c9146104f1578063e1495fac1461051a578063e4bddff814610557578063ec38d5a014610580578063f0c37a59146105bd5761014b565b80638c4d59d0146103a25780638da5cb5b146103cd578063a87430ba146103f8578063c27a500d14610437578063c6d4ce4714610462578063cc3d967b1461048b5761014b565b806326704c701161010857806326704c701461028c5780632c49f35e146102c957806350b44712146102f257806352c55db91461033257806356164e1e1461035d57806367dd74ca146103865761014b565b8063011b3950146101505780630b7914301461017957806311d04fcd146101be57806317d4357b146101e9578063184b09381461021257806324c141601461024f575b600080fd5b34801561015c57600080fd5b506101776004803603810190610172919061247e565b6105e8565b005b34801561018557600080fd5b506101a0600480360381019061019b91906124be565b6106ef565b6040516101b5999897969594939291906125e6565b60405180910390f35b3480156101ca57600080fd5b506101d36107f2565b6040516101e0919061267a565b60405180910390f35b3480156101f557600080fd5b50610210600480360381019061020b91906127ca565b6107f7565b005b34801561021e57600080fd5b5061023960048036038101906102349190612852565b6108c5565b60405161024691906129b0565b60405180910390f35b34801561025b57600080fd5b50610276600480360381019061027191906124be565b610aba565b6040516102839190612a27565b60405180910390f35b34801561029857600080fd5b506102b360048036038101906102ae919061247e565b610bc4565b6040516102c09190612a42565b60405180910390f35b3480156102d557600080fd5b506102f060048036038101906102eb919061247e565b610cc9565b005b3480156102fe57600080fd5b50610319600480360381019061031491906124be565b610de7565b6040516103299493929190612a5d565b60405180910390f35b34801561033e57600080fd5b50610347610e44565b604051610354919061267a565b60405180910390f35b34801561036957600080fd5b50610384600480360381019061037f91906124be565b610e4a565b005b6103a0600480360381019061039b91906124be565b610f84565b005b3480156103ae57600080fd5b506103b7611534565b6040516103c4919061267a565b60405180910390f35b3480156103d957600080fd5b506103e261153a565b6040516103ef9190612aa2565b60405180910390f35b34801561040457600080fd5b5061041f600480360381019061041a9190612852565b61155e565b60405161042e93929190612abd565b60405180910390f35b34801561044357600080fd5b5061044c6115b5565b6040516104599190612cc5565b60405180910390f35b34801561046e57600080fd5b506104896004803603810190610484919061247e565b6117c1565b005b34801561049757600080fd5b506104b260048036038101906104ad9190612852565b6118df565b6040516104bf9190612df9565b60405180910390f35b3480156104d457600080fd5b506104ef60048036038101906104ea91906124be565b611adb565b005b3480156104fd57600080fd5b5061051860048036038101906105139190612e1b565b611de1565b005b34801561052657600080fd5b50610541600480360381019061053c9190612852565b611ff6565b60405161054e9190612a42565b60405180910390f35b34801561056357600080fd5b5061057e6004803603810190610579919061247e565b612016565b005b34801561058c57600080fd5b506105a760048036038101906105a291906124be565b6120db565b6040516105b49190612f77565b60405180910390f35b3480156105c957600080fd5b506105d26122a0565b6040516105df919061267a565b60405180910390f35b813373ffffffffffffffffffffffffffffffffffffffff166005600083815260200190815260200160002060070160009054906101000a900473ffffffffffffffffffffffffffffffffffffffff1673ffffffffffffffffffffffffffffffffffffffff161461068d576040517f08c379a000000000000000000000000000000000000000000000000000000000815260040161068490612fe5565b60405180910390fd5b4282116106cf576040517f08c379a00000000000000000000000000000000000000000000000000000000081526004016106c690613051565b60405180910390fd5b816005600085815260200190815260200160002060020181905550505050565b6005602052806000526040600020600091509050806000015490806001018054610718906130a0565b80601f0160208091040260200160405190810160405280929190818152602001828054610744906130a0565b80156107915780601f1061076657610100808354040283529160200191610791565b820191906000526020600020905b81548152906001019060200180831161077457829003601f168201915b5050505050908060020154908060030154908060040154908060050154908060060154908060070160009054906101000a900473ffffffffffffffffffffffffffffffffffffffff16908060070160149054906101000a900460ff16905089565b600a81565b813373ffffffffffffffffffffffffffffffffffffffff166005600083815260200190815260200160002060070160009054906101000a900473ffffffffffffffffffffffffffffffffffffffff1673ffffffffffffffffffffffffffffffffffffffff161461089c576040517f08c379a000000000000000000000000000000000000000000000000000000000815260040161089390612fe5565b60405180910390fd5b816005600085815260200190815260200160002060010190816108bf919061327d565b50505050565b60606000600760008473ffffffffffffffffffffffffffffffffffffffff1673ffffffffffffffffffffffffffffffffffffffff16815260200190815260200160002060020180548060200260200160405190810160405280929190818152602001828054801561095557602002820191906000526020600020905b815481526020019060010190808311610941575b505050505090506000815167ffffffffffffffff8111156109795761097861269f565b5b6040519080825280602002602001820160405280156109b257816020015b61099f6122a6565b8152602001906001900390816109975790505b50905060005b8251811015610aaf57600660008483815181106109d8576109d761334f565b5b6020026020010151815260200190815260200160002060405180608001604052908160008201548152602001600182015481526020016002820160009054906101000a900473ffffffffffffffffffffffffffffffffffffffff1673ffffffffffffffffffffffffffffffffffffffff1673ffffffffffffffffffffffffffffffffffffffff1681526020016002820160149054906101000a900460ff161515151581525050828281518110610a9157610a9061334f565b5b60200260200101819052508080610aa7906133ad565b9150506109b8565b508092505050919050565b610ac26122a6565b81600660008481526020019081526020016000206000015414610b1a576040517f08c379a0000000000000000000000000000000000000000000000000000000008152600401610b1190613441565b60405180910390fd5b6006600083815260200190815260200160002060405180608001604052908160008201548152602001600182015481526020016002820160009054906101000a900473ffffffffffffffffffffffffffffffffffffffff1673ffffffffffffffffffffffffffffffffffffffff1673ffffffffffffffffffffffffffffffffffffffff1681526020016002820160149054906101000a900460ff1615151515815250509050919050565b600080600090505b600760003373ffffffffffffffffffffffffffffffffffffffff1673ffffffffffffffffffffffffffffffffffffffff16815260200190815260200160002060020180549050811015610cbd5782600760003373ffffffffffffffffffffffffffffffffffffffff1673ffffffffffffffffffffffffffffffffffffffff1681526020019081526020016000206002018281548110610c6e57610c6d61334f565b5b9060005260206000200154148015610c9b5750836006600085815260200190815260200160002060010154145b15610caa576001915050610cc3565b8080610cb5906133ad565b915050610bcc565b50600090505b92915050565b813373ffffffffffffffffffffffffffffffffffffffff166005600083815260200190815260200160002060070160009054906101000a900473ffffffffffffffffffffffffffffffffffffffff1673ffffffffffffffffffffffffffffffffffffffff1614610d6e576040517f08c379a0000000000000000000000000000000000000000000000000000000008152600401610d6590612fe5565b60405180910390fd5b6000600560008581526020019081526020016000206006015414610dc7576040517f08c379a0000000000000000000000000000000000000000000000000000000008152600401610dbe906134ad565b60405180910390fd5b816005600085815260200190815260200160002060040181905550505050565b60066020528060005260406000206000915090508060000154908060010154908060020160009054906101000a900473ffffffffffffffffffffffffffffffffffffffff16908060020160149054906101000a900460ff16905084565b60025481565b803373ffffffffffffffffffffffffffffffffffffffff166005600083815260200190815260200160002060070160009054906101000a900473ffffffffffffffffffffffffffffffffffffffff1673ffffffffffffffffffffffffffffffffffffffff1614610eef576040517f08c379a0000000000000000000000000000000000000000000000000000000008152600401610ee690612fe5565b60405180910390fd5b60056000838152602001908152602001600020600080820160009055600182016000610f1b91906122e6565b600282016000905560038201600090556004820160009055600582016000905560068201600090556007820160006101000a81549073ffffffffffffffffffffffffffffffffffffffff02191690556007820160146101000a81549060ff021916905550505050565b80600560008381526020019081526020016000206000015414610fdc576040517f08c379a0000000000000000000000000000000000000000000000000000000008152600401610fd390613519565b60405180910390fd5b6000600560008381526020019081526020016000206005015411611035576040517f08c379a000000000000000000000000000000000000000000000000000000000815260040161102c90613585565b60405180910390fd5b6005600082815260200190815260200160002060070160149054906101000a900460ff16611098576040517f08c379a000000000000000000000000000000000000000000000000000000000815260040161108f906135f1565b60405180910390fd5b600060056000838152602001908152602001600020600401549050600760003373ffffffffffffffffffffffffffffffffffffffff1673ffffffffffffffffffffffffffffffffffffffff16815260200190815260200160002060010160149054906101000a900460ff1661111757600a816111149190613611565b90505b803414611159576040517f08c379a000000000000000000000000000000000000000000000000000000000815260040161115090613691565b60405180910390fd5b6003600081548092919061116c906133ad565b9190505550600560008381526020019081526020016000206005016000815480929190611198906136b1565b9190505550600760003373ffffffffffffffffffffffffffffffffffffffff1673ffffffffffffffffffffffffffffffffffffffff1681526020019081526020016000206002016003549080600181540180825580915050600190039060005260206000200160009091909190915055604051806080016040528060035481526020018381526020013373ffffffffffffffffffffffffffffffffffffffff16815260200160011515815250600660006003548152602001908152602001600020600082015181600001556020820151816001015560408201518160020160006101000a81548173ffffffffffffffffffffffffffffffffffffffff021916908373ffffffffffffffffffffffffffffffffffffffff16021790555060608201518160020160146101000a81548160ff021916908315150217905550905050600760003373ffffffffffffffffffffffffffffffffffffffff1673ffffffffffffffffffffffffffffffffffffffff16815260200190815260200160002060010160149054906101000a900460ff16611504576004600081548092919061133e906133ad565b9190505550604051806080016040528060045481526020013373ffffffffffffffffffffffffffffffffffffffff168152602001600115158152602001600067ffffffffffffffff8111156113965761139561269f565b5b6040519080825280602002602001820160405280156113c45781602001602082028036833780820191505090505b50815250600760003373ffffffffffffffffffffffffffffffffffffffff1673ffffffffffffffffffffffffffffffffffffffff1681526020019081526020016000206000820151816000015560208201518160010160006101000a81548173ffffffffffffffffffffffffffffffffffffffff021916908373ffffffffffffffffffffffffffffffffffffffff16021790555060408201518160010160146101000a81548160ff0219169083151502179055506060820151816002019080519060200190611494929190612326565b50905050600760003373ffffffffffffffffffffffffffffffffffffffff1673ffffffffffffffffffffffffffffffffffffffff16815260200190815260200160002060020160035490806001815401808255809150506001900390600052602060002001600090919091909150555b60056000838152602001908152602001600020600601600081548092919061152b906133ad565b91905055505050565b60035481565b60008054906101000a900473ffffffffffffffffffffffffffffffffffffffff1681565b60076020528060005260406000206000915090508060000154908060010160009054906101000a900473ffffffffffffffffffffffffffffffffffffffff16908060010160149054906101000a900460ff16905083565b6060600060025467ffffffffffffffff8111156115d5576115d461269f565b5b60405190808252806020026020018201604052801561160e57816020015b6115fb612373565b8152602001906001900390816115f35790505b50905060005b6002548110156117b9576005600060018361162f9190613611565b81526020019081526020016000206040518061012001604052908160008201548152602001600182018054611663906130a0565b80601f016020809104026020016040519081016040528092919081815260200182805461168f906130a0565b80156116dc5780601f106116b1576101008083540402835291602001916116dc565b820191906000526020600020905b8154815290600101906020018083116116bf57829003601f168201915b5050505050815260200160028201548152602001600382015481526020016004820154815260200160058201548152602001600682015481526020016007820160009054906101000a900473ffffffffffffffffffffffffffffffffffffffff1673ffffffffffffffffffffffffffffffffffffffff1673ffffffffffffffffffffffffffffffffffffffff1681526020016007820160149054906101000a900460ff16151515158152505082828151811061179b5761179a61334f565b5b602002602001018190525080806117b1906133ad565b915050611614565b508091505090565b813373ffffffffffffffffffffffffffffffffffffffff166005600083815260200190815260200160002060070160009054906101000a900473ffffffffffffffffffffffffffffffffffffffff1673ffffffffffffffffffffffffffffffffffffffff1614611866576040517f08c379a000000000000000000000000000000000000000000000000000000000815260040161185d90612fe5565b60405180910390fd5b81600560008581526020019081526020016000206006015411156118bf576040517f08c379a00000000000000000000000000000000000000000000000000000000081526004016118b690613772565b60405180910390fd5b816005600085815260200190815260200160002060050181905550505050565b6118e76123d7565b8173ffffffffffffffffffffffffffffffffffffffff16600760008473ffffffffffffffffffffffffffffffffffffffff1673ffffffffffffffffffffffffffffffffffffffff16815260200190815260200160002060010160009054906101000a900473ffffffffffffffffffffffffffffffffffffffff1673ffffffffffffffffffffffffffffffffffffffff16146119b7576040517f08c379a00000000000000000000000000000000000000000000000000000000081526004016119ae906137de565b60405180910390fd5b600760008373ffffffffffffffffffffffffffffffffffffffff1673ffffffffffffffffffffffffffffffffffffffff168152602001908152602001600020604051806080016040529081600082015481526020016001820160009054906101000a900473ffffffffffffffffffffffffffffffffffffffff1673ffffffffffffffffffffffffffffffffffffffff1673ffffffffffffffffffffffffffffffffffffffff1681526020016001820160149054906101000a900460ff1615151515815260200160028201805480602002602001604051908101604052809291908181526020018280548015611acb57602002820191906000526020600020905b815481526020019060010190808311611ab7575b5050505050815250509050919050565b803373ffffffffffffffffffffffffffffffffffffffff166005600083815260200190815260200160002060070160009054906101000a900473ffffffffffffffffffffffffffffffffffffffff1673ffffffffffffffffffffffffffffffffffffffff1614611b80576040517f08c379a0000000000000000000000000000000000000000000000000000000008152600401611b7790612fe5565b60405180910390fd5b42600560008481526020019081526020016000206002015410611bd8576040517f08c379a0000000000000000000000000000000000000000000000000000000008152600401611bcf9061384a565b60405180910390fd5b6000600560008481526020019081526020016000206006015411611c31576040517f08c379a0000000000000000000000000000000000000000000000000000000008152600401611c28906138b6565b60405180910390fd5b6005600083815260200190815260200160002060070160149054906101000a900460ff16611c94576040517f08c379a0000000000000000000000000000000000000000000000000000000008152600401611c8b906135f1565b60405180910390fd5b600060056000848152602001908152602001600020600601546005600085815260200190815260200160002060040154611cce91906138d6565b905060006064600583611ce191906138d6565b611ceb9190613947565b905060008183611cfb9190613978565b905060008054906101000a900473ffffffffffffffffffffffffffffffffffffffff1673ffffffffffffffffffffffffffffffffffffffff166108fc839081150290604051600060405180830381858888f19350505050158015611d63573d6000803e3d6000fd5b503373ffffffffffffffffffffffffffffffffffffffff166108fc829081150290604051600060405180830381858888f19350505050158015611daa573d6000803e3d6000fd5b5060006005600087815260200190815260200160002060070160146101000a81548160ff0219169083151502179055505050505050565b428411611e23576040517f08c379a0000000000000000000000000000000000000000000000000000000008152600401611e1a90613051565b60405180910390fd5b60008111611e66576040517f08c379a0000000000000000000000000000000000000000000000000000000008152600401611e5d90613a1e565b60405180910390fd5b60008211611ea9576040517f08c379a0000000000000000000000000000000000000000000000000000000008152600401611ea090613ab0565b60405180910390fd5b60026000815480929190611ebc906133ad565b91905055506040518061012001604052806002548152602001868152602001858152602001848152602001838152602001828152602001600081526020013373ffffffffffffffffffffffffffffffffffffffff16815260200160011515815250600560006002548152602001908152602001600020600082015181600001556020820151816001019081611f51919061327d565b5060408201518160020155606082015181600301556080820151816004015560a0820151816005015560c0820151816006015560e08201518160070160006101000a81548173ffffffffffffffffffffffffffffffffffffffff021916908373ffffffffffffffffffffffffffffffffffffffff1602179055506101008201518160070160146101000a81548160ff0219169083151502179055509050505050505050565b60016020528060005260406000206000915054906101000a900460ff1681565b813373ffffffffffffffffffffffffffffffffffffffff166005600083815260200190815260200160002060070160009054906101000a900473ffffffffffffffffffffffffffffffffffffffff1673ffffffffffffffffffffffffffffffffffffffff16146120bb576040517f08c379a00000000000000000000000000000000000000000000000000000000081526004016120b290612fe5565b60405180910390fd5b816005600085815260200190815260200160002060030181905550505050565b6120e3612373565b8160056000848152602001908152602001600020600001541461213b576040517f08c379a000000000000000000000000000000000000000000000000000000000815260040161213290613519565b60405180910390fd5b600560008381526020019081526020016000206040518061012001604052908160008201548152602001600182018054612174906130a0565b80601f01602080910402602001604051908101604052809291908181526020018280546121a0906130a0565b80156121ed5780601f106121c2576101008083540402835291602001916121ed565b820191906000526020600020905b8154815290600101906020018083116121d057829003601f168201915b5050505050815260200160028201548152602001600382015481526020016004820154815260200160058201548152602001600682015481526020016007820160009054906101000a900473ffffffffffffffffffffffffffffffffffffffff1673ffffffffffffffffffffffffffffffffffffffff1673ffffffffffffffffffffffffffffffffffffffff1681526020016007820160149054906101000a900460ff1615151515815250509050919050565b60045481565b60405180608001604052806000815260200160008152602001600073ffffffffffffffffffffffffffffffffffffffff1681526020016000151581525090565b5080546122f2906130a0565b6000825580601f106123045750612323565b601f0160209004906000526020600020908101906123229190612417565b5b50565b828054828255906000526020600020908101928215612362579160200282015b82811115612361578251825591602001919060010190612346565b5b50905061236f9190612417565b5090565b60405180610120016040528060008152602001606081526020016000815260200160008152602001600081526020016000815260200160008152602001600073ffffffffffffffffffffffffffffffffffffffff1681526020016000151581525090565b604051806080016040528060008152602001600073ffffffffffffffffffffffffffffffffffffffff168152602001600015158152602001606081525090565b5b80821115612430576000816000905550600101612418565b5090565b6000604051905090565b600080fd5b600080fd5b6000819050919050565b61245b81612448565b811461246657600080fd5b50565b60008135905061247881612452565b92915050565b600080604083850312156124955761249461243e565b5b60006124a385828601612469565b92505060206124b485828601612469565b9150509250929050565b6000602082840312156124d4576124d361243e565b5b60006124e284828501612469565b91505092915050565b6124f481612448565b82525050565b600081519050919050565b600082825260208201905092915050565b60005b83811015612534578082015181840152602081019050612519565b60008484015250505050565b6000601f19601f8301169050919050565b600061255c826124fa565b6125668185612505565b9350612576818560208601612516565b61257f81612540565b840191505092915050565b600073ffffffffffffffffffffffffffffffffffffffff82169050919050565b60006125b58261258a565b9050919050565b6125c5816125aa565b82525050565b60008115159050919050565b6125e0816125cb565b82525050565b6000610120820190506125fc600083018c6124eb565b818103602083015261260e818b612551565b905061261d604083018a6124eb565b61262a60608301896124eb565b61263760808301886124eb565b61264460a08301876124eb565b61265160c08301866124eb565b61265e60e08301856125bc565b61266c6101008301846125d7565b9a9950505050505050505050565b600060208201905061268f60008301846124eb565b92915050565b600080fd5b600080fd5b7f4e487b7100000000000000000000000000000000000000000000000000000000600052604160045260246000fd5b6126d782612540565b810181811067ffffffffffffffff821117156126f6576126f561269f565b5b80604052505050565b6000612709612434565b905061271582826126ce565b919050565b600067ffffffffffffffff8211156127355761273461269f565b5b61273e82612540565b9050602081019050919050565b82818337600083830152505050565b600061276d6127688461271a565b6126ff565b9050828152602081018484840111156127895761278861269a565b5b61279484828561274b565b509392505050565b600082601f8301126127b1576127b0612695565b5b81356127c184826020860161275a565b91505092915050565b600080604083850312156127e1576127e061243e565b5b60006127ef85828601612469565b925050602083013567ffffffffffffffff8111156128105761280f612443565b5b61281c8582860161279c565b9150509250929050565b61282f816125aa565b811461283a57600080fd5b50565b60008135905061284c81612826565b92915050565b6000602082840312156128685761286761243e565b5b60006128768482850161283d565b91505092915050565b600081519050919050565b600082825260208201905092915050565b6000819050602082019050919050565b6128b481612448565b82525050565b6128c3816125aa565b82525050565b6128d2816125cb565b82525050565b6080820160008201516128ee60008501826128ab565b50602082015161290160208501826128ab565b50604082015161291460408501826128ba565b50606082015161292760608501826128c9565b50505050565b600061293983836128d8565b60808301905092915050565b6000602082019050919050565b600061295d8261287f565b612967818561288a565b93506129728361289b565b8060005b838110156129a357815161298a888261292d565b975061299583612945565b925050600181019050612976565b5085935050505092915050565b600060208201905081810360008301526129ca8184612952565b905092915050565b6080820160008201516129e860008501826128ab565b5060208201516129fb60208501826128ab565b506040820151612a0e60408501826128ba565b506060820151612a2160608501826128c9565b50505050565b6000608082019050612a3c60008301846129d2565b92915050565b6000602082019050612a5760008301846125d7565b92915050565b6000608082019050612a7260008301876124eb565b612a7f60208301866124eb565b612a8c60408301856125bc565b612a9960608301846125d7565b95945050505050565b6000602082019050612ab760008301846125bc565b92915050565b6000606082019050612ad260008301866124eb565b612adf60208301856125bc565b612aec60408301846125d7565b949350505050565b600081519050919050565b600082825260208201905092915050565b6000819050602082019050919050565b600082825260208201905092915050565b6000612b3c826124fa565b612b468185612b20565b9350612b56818560208601612516565b612b5f81612540565b840191505092915050565b600061012083016000830151612b8360008601826128ab565b5060208301518482036020860152612b9b8282612b31565b9150506040830151612bb060408601826128ab565b506060830151612bc360608601826128ab565b506080830151612bd660808601826128ab565b5060a0830151612be960a08601826128ab565b5060c0830151612bfc60c08601826128ab565b5060e0830151612c0f60e08601826128ba565b50610100830151612c246101008601826128c9565b508091505092915050565b6000612c3b8383612b6a565b905092915050565b6000602082019050919050565b6000612c5b82612af4565b612c658185612aff565b935083602082028501612c7785612b10565b8060005b85811015612cb35784840389528151612c948582612c2f565b9450612c9f83612c43565b925060208a01995050600181019050612c7b565b50829750879550505050505092915050565b60006020820190508181036000830152612cdf8184612c50565b905092915050565b600081519050919050565b600082825260208201905092915050565b6000819050602082019050919050565b6000612d1f83836128ab565b60208301905092915050565b6000602082019050919050565b6000612d4382612ce7565b612d4d8185612cf2565b9350612d5883612d03565b8060005b83811015612d89578151612d708882612d13565b9750612d7b83612d2b565b925050600181019050612d5c565b5085935050505092915050565b6000608083016000830151612dae60008601826128ab565b506020830151612dc160208601826128ba565b506040830151612dd460408601826128c9565b5060608301518482036060860152612dec8282612d38565b9150508091505092915050565b60006020820190508181036000830152612e138184612d96565b905092915050565b600080600080600060a08688031215612e3757612e3661243e565b5b600086013567ffffffffffffffff811115612e5557612e54612443565b5b612e618882890161279c565b9550506020612e7288828901612469565b9450506040612e8388828901612469565b9350506060612e9488828901612469565b9250506080612ea588828901612469565b9150509295509295909350565b600061012083016000830151612ecb60008601826128ab565b5060208301518482036020860152612ee38282612b31565b9150506040830151612ef860408601826128ab565b506060830151612f0b60608601826128ab565b506080830151612f1e60808601826128ab565b5060a0830151612f3160a08601826128ab565b5060c0830151612f4460c08601826128ab565b5060e0830151612f5760e08601826128ba565b50610100830151612f6c6101008601826128c9565b508091505092915050565b60006020820190508181036000830152612f918184612eb2565b905092915050565b7f596f7520617265206e6f7420746865206576656e74206f7267616e697a657200600082015250565b6000612fcf601f83612505565b9150612fda82612f99565b602082019050919050565b60006020820190508181036000830152612ffe81612fc2565b9050919050565b7f4576656e742064617465206d75737420626520696e2074686520667574757265600082015250565b600061303b602083612505565b915061304682613005565b602082019050919050565b6000602082019050818103600083015261306a8161302e565b9050919050565b7f4e487b7100000000000000000000000000000000000000000000000000000000600052602260045260246000fd5b600060028204905060018216806130b857607f821691505b6020821081036130cb576130ca613071565b5b50919050565b60008190508160005260206000209050919050565b60006020601f8301049050919050565b600082821b905092915050565b6000600883026131337fffffffffffffffffffffffffffffffffffffffffffffffffffffffffffffffff826130f6565b61313d86836130f6565b95508019841693508086168417925050509392505050565b6000819050919050565b600061317a61317561317084612448565b613155565b612448565b9050919050565b6000819050919050565b6131948361315f565b6131a86131a082613181565b848454613103565b825550505050565b600090565b6131bd6131b0565b6131c881848461318b565b505050565b5b818110156131ec576131e16000826131b5565b6001810190506131ce565b5050565b601f82111561323157613202816130d1565b61320b846130e6565b8101602085101561321a578190505b61322e613226856130e6565b8301826131cd565b50505b505050565b600082821c905092915050565b600061325460001984600802613236565b1980831691505092915050565b600061326d8383613243565b9150826002028217905092915050565b613286826124fa565b67ffffffffffffffff81111561329f5761329e61269f565b5b6132a982546130a0565b6132b48282856131f0565b600060209050601f8311600181146132e757600084156132d5578287015190505b6132df8582613261565b865550613347565b601f1984166132f5866130d1565b60005b8281101561331d578489015182556001820191506020850194506020810190506132f8565b8683101561333a5784890151613336601f891682613243565b8355505b6001600288020188555050505b505050505050565b7f4e487b7100000000000000000000000000000000000000000000000000000000600052603260045260246000fd5b7f4e487b7100000000000000000000000000000000000000000000000000000000600052601160045260246000fd5b60006133b882612448565b91507fffffffffffffffffffffffffffffffffffffffffffffffffffffffffffffffff82036133ea576133e961337e565b5b600182019050919050565b7f5469636b657420646f6573206e6f742065786973740000000000000000000000600082015250565b600061342b601583612505565b9150613436826133f5565b602082019050919050565b6000602082019050818103600083015261345a8161341e565b9050919050565b7f5469636b657473206861766520616c7265616479206265656e20736f6c640000600082015250565b6000613497601e83612505565b91506134a282613461565b602082019050919050565b600060208201905081810360008301526134c68161348a565b9050919050565b7f4576656e7420646f6573206e6f74206578697374000000000000000000000000600082015250565b6000613503601483612505565b915061350e826134cd565b602082019050919050565b60006020820190508181036000830152613532816134f6565b9050919050565b7f4e6f206d6f7265207469636b65747320617661696c61626c6500000000000000600082015250565b600061356f601983612505565b915061357a82613539565b602082019050919050565b6000602082019050818103600083015261359e81613562565b9050919050565b7f4576656e74206973206e6f742076616c69640000000000000000000000000000600082015250565b60006135db601283612505565b91506135e6826135a5565b602082019050919050565b6000602082019050818103600083015261360a816135ce565b9050919050565b600061361c82612448565b915061362783612448565b925082820190508082111561363f5761363e61337e565b5b92915050565b7f496e636f727265637420616d6f756e742073656e740000000000000000000000600082015250565b600061367b601583612505565b915061368682613645565b602082019050919050565b600060208201905081810360008301526136aa8161366e565b9050919050565b60006136bc82612448565b9150600082036136cf576136ce61337e565b5b600182039050919050565b7f4e6577207469636b657420636f756e74206d757374206265206772656174657260008201527f207468616e206f7220657175616c20746f20746865206e756d626572206f662060208201527f7469636b65747320616c726561647920736f6c64000000000000000000000000604082015250565b600061375c605483612505565b9150613767826136da565b606082019050919050565b6000602082019050818103600083015261378b8161374f565b9050919050565b7f5573657220646f6573206e6f7420657869737400000000000000000000000000600082015250565b60006137c8601383612505565b91506137d382613792565b602082019050919050565b600060208201905081810360008301526137f7816137bb565b9050919050565b7f4576656e74206973206e6f74206f766572207965740000000000000000000000600082015250565b6000613834601583612505565b915061383f826137fe565b602082019050919050565b6000602082019050818103600083015261386381613827565b9050919050565b7f4e6f207469636b65747320736f6c640000000000000000000000000000000000600082015250565b60006138a0600f83612505565b91506138ab8261386a565b602082019050919050565b600060208201905081810360008301526138cf81613893565b9050919050565b60006138e182612448565b91506138ec83612448565b92508282026138fa81612448565b915082820484148315176139115761391061337e565b5b5092915050565b7f4e487b7100000000000000000000000000000000000000000000000000000000600052601260045260246000fd5b600061395282612448565b915061395d83612448565b92508261396d5761396c613918565b5b828204905092915050565b600061398382612448565b915061398e83612448565b92508282039050818111156139a6576139a561337e565b5b92915050565b7f5469636b657420636f756e74206d75737420626520677265617465722074686160008201527f6e20300000000000000000000000000000000000000000000000000000000000602082015250565b6000613a08602383612505565b9150613a13826139ac565b604082019050919050565b60006020820190508181036000830152613a37816139fb565b9050919050565b7f5469636b6574207072696365206d75737420626520677265617465722074686160008201527f6e20300000000000000000000000000000000000000000000000000000000000602082015250565b6000613a9a602383612505565b9150613aa582613a3e565b604082019050919050565b60006020820190508181036000830152613ac981613a8d565b905091905056fea26469706673582212208cfbb18b2656aa01abe3f21038583215f03482531f8fab09144b5cba3f5f3a6864736f6c63430008130033",
  "linkReferences": {},
  "deployedLinkReferences": {}
}