{
  "_format": "hh-sol-artifact-1",
  "contractName": "SecurePass",
  "sourceName": "contracts/SecurePass.sol",
  "abi": [
    {
      "inputs": [],
      "stateMutability": "nonpayable",
      "type": "constructor"
    },
    {
      "inputs": [],
      "name": "RFID_CARD_COST",
      "outputs": [
        {
          "internalType": "uint256",
          "name": "",
          "type": "uint256"
        }
      ],
      "stateMutability": "view",
      "type": "function"
    },
    {
      "inputs": [
        {
          "internalType": "uint256",
          "name": "_eventId",
          "type": "uint256"
        }
      ],
      "name": "buyTicket",
      "outputs": [],
      "stateMutability": "payable",
      "type": "function"
    },
    {
      "inputs": [
        {
          "internalType": "string",
          "name": "_eventName",
          "type": "string"
        },
        {
          "internalType": "uint256",
          "name": "_eventDate",
          "type": "uint256"
        },
        {
          "internalType": "uint256",
          "name": "_ticketPrice",
          "type": "uint256"
        },
        {
          "internalType": "uint256",
          "name": "_ticketCount",
          "type": "uint256"
        }
      ],
      "name": "createEvent",
      "outputs": [],
      "stateMutability": "nonpayable",
      "type": "function"
    },
    {
      "inputs": [],
      "name": "eventCounter",
      "outputs": [
        {
          "internalType": "uint256",
          "name": "",
          "type": "uint256"
        }
      ],
      "stateMutability": "view",
      "type": "function"
    },
    {
      "inputs": [
        {
          "internalType": "address",
          "name": "",
          "type": "address"
        }
      ],
      "name": "eventOrganizers",
      "outputs": [
        {
          "internalType": "bool",
          "name": "",
          "type": "bool"
        }
      ],
      "stateMutability": "view",
      "type": "function"
    },
    {
      "inputs": [
        {
          "internalType": "uint256",
          "name": "",
          "type": "uint256"
        }
      ],
      "name": "events",
      "outputs": [
        {
          "internalType": "uint256",
          "name": "eventId",
          "type": "uint256"
        },
        {
          "internalType": "string",
          "name": "eventName",
          "type": "string"
        },
        {
          "internalType": "uint256",
          "name": "eventDate",
          "type": "uint256"
        },
        {
          "internalType": "uint256",
          "name": "ticketPrice",
          "type": "uint256"
        },
        {
          "internalType": "uint256",
          "name": "ticketCount",
          "type": "uint256"
        },
        {
          "internalType": "uint256",
          "name": "ticketSold",
          "type": "uint256"
        },
        {
          "internalType": "address",
          "name": "eventOrganizers",
          "type": "address"
        },
        {
          "internalType": "bool",
          "name": "isValid",
          "type": "bool"
        }
      ],
      "stateMutability": "view",
      "type": "function"
    },
    {
      "inputs": [],
      "name": "getAllEvents",
      "outputs": [
        {
          "components": [
            {
              "internalType": "uint256",
              "name": "eventId",
              "type": "uint256"
            },
            {
              "internalType": "string",
              "name": "eventName",
              "type": "string"
            },
            {
              "internalType": "uint256",
              "name": "eventDate",
              "type": "uint256"
            },
            {
              "internalType": "uint256",
              "name": "ticketPrice",
              "type": "uint256"
            },
            {
              "internalType": "uint256",
              "name": "ticketCount",
              "type": "uint256"
            },
            {
              "internalType": "uint256",
              "name": "ticketSold",
              "type": "uint256"
            },
            {
              "internalType": "address",
              "name": "eventOrganizers",
              "type": "address"
            },
            {
              "internalType": "bool",
              "name": "isValid",
              "type": "bool"
            }
          ],
          "internalType": "struct SecurePass.Event[]",
          "name": "",
          "type": "tuple[]"
        }
      ],
      "stateMutability": "view",
      "type": "function"
    },
    {
      "inputs": [
        {
          "internalType": "address",
          "name": "_userAddress",
          "type": "address"
        }
      ],
      "name": "getAllTicketsOfUser",
      "outputs": [
        {
          "components": [
            {
              "internalType": "uint256",
              "name": "ticketId",
              "type": "uint256"
            },
            {
              "internalType": "uint256",
              "name": "eventId",
              "type": "uint256"
            },
            {
              "internalType": "address",
              "name": "buyer",
              "type": "address"
            },
            {
              "internalType": "bool",
              "name": "isValid",
              "type": "bool"
            }
          ],
          "internalType": "struct SecurePass.Ticket[]",
          "name": "",
          "type": "tuple[]"
        }
      ],
      "stateMutability": "view",
      "type": "function"
    },
    {
      "inputs": [
        {
          "internalType": "uint256",
          "name": "_eventId",
          "type": "uint256"
        }
      ],
      "name": "getEventDetails",
      "outputs": [
        {
          "components": [
            {
              "internalType": "uint256",
              "name": "eventId",
              "type": "uint256"
            },
            {
              "internalType": "string",
              "name": "eventName",
              "type": "string"
            },
            {
              "internalType": "uint256",
              "name": "eventDate",
              "type": "uint256"
            },
            {
              "internalType": "uint256",
              "name": "ticketPrice",
              "type": "uint256"
            },
            {
              "internalType": "uint256",
              "name": "ticketCount",
              "type": "uint256"
            },
            {
              "internalType": "uint256",
              "name": "ticketSold",
              "type": "uint256"
            },
            {
              "internalType": "address",
              "name": "eventOrganizers",
              "type": "address"
            },
            {
              "internalType": "bool",
              "name": "isValid",
              "type": "bool"
            }
          ],
          "internalType": "struct SecurePass.Event",
          "name": "",
          "type": "tuple"
        }
      ],
      "stateMutability": "view",
      "type": "function"
    },
    {
      "inputs": [
        {
          "internalType": "address",
          "name": "organizer",
          "type": "address"
        }
      ],
      "name": "getEventIdsOfAUser",
      "outputs": [
        {
          "internalType": "uint256[]",
          "name": "",
          "type": "uint256[]"
        }
      ],
      "stateMutability": "view",
      "type": "function"
    },
    {
      "inputs": [
        {
          "internalType": "uint256",
          "name": "_ticketId",
          "type": "uint256"
        }
      ],
      "name": "getTicketDetails",
      "outputs": [
        {
          "components": [
            {
              "internalType": "uint256",
              "name": "ticketId",
              "type": "uint256"
            },
            {
              "internalType": "uint256",
              "name": "eventId",
              "type": "uint256"
            },
            {
              "internalType": "address",
              "name": "buyer",
              "type": "address"
            },
            {
              "internalType": "bool",
              "name": "isValid",
              "type": "bool"
            }
          ],
          "internalType": "struct SecurePass.Ticket",
          "name": "",
          "type": "tuple"
        }
      ],
      "stateMutability": "view",
      "type": "function"
    },
    {
      "inputs": [
        {
          "internalType": "address",
          "name": "_userAddress",
          "type": "address"
        }
      ],
      "name": "getUserDetails",
      "outputs": [
        {
          "components": [
            {
              "internalType": "uint256",
              "name": "userId",
              "type": "uint256"
            },
            {
              "internalType": "address",
              "name": "userAddress",
              "type": "address"
            },
            {
              "internalType": "bool",
              "name": "hasRFIDCard",
              "type": "bool"
            },
            {
              "internalType": "uint256[]",
              "name": "ticketsArray",
              "type": "uint256[]"
            }
          ],
          "internalType": "struct SecurePass.User",
          "name": "",
          "type": "tuple"
        }
      ],
      "stateMutability": "view",
      "type": "function"
    },
    {
      "inputs": [
        {
          "internalType": "address",
          "name": "user",
          "type": "address"
        }
      ],
      "name": "isNewuser",
      "outputs": [
        {
          "internalType": "bool",
          "name": "",
          "type": "bool"
        }
      ],
      "stateMutability": "view",
      "type": "function"
    },
    {
      "inputs": [
        {
          "internalType": "uint256",
          "name": "_eventId",
          "type": "uint256"
        },
        {
          "internalType": "uint256",
          "name": "_userID",
          "type": "uint256"
        }
      ],
      "name": "isTicketValid",
      "outputs": [
        {
          "internalType": "bool",
          "name": "",
          "type": "bool"
        }
      ],
      "stateMutability": "view",
      "type": "function"
    },
    {
      "inputs": [
        {
          "internalType": "address",
          "name": "",
          "type": "address"
        },
        {
          "internalType": "uint256",
          "name": "",
          "type": "uint256"
        }
      ],
      "name": "organizerEvents",
      "outputs": [
        {
          "internalType": "uint256",
          "name": "",
          "type": "uint256"
        }
      ],
      "stateMutability": "view",
      "type": "function"
    },
    {
      "inputs": [],
      "name": "owner",
      "outputs": [
        {
          "internalType": "address",
          "name": "",
          "type": "address"
        }
      ],
      "stateMutability": "view",
      "type": "function"
    },
    {
      "inputs": [
        {
          "internalType": "uint256",
          "name": "_eventId",
          "type": "uint256"
        }
      ],
      "name": "removeEvent",
      "outputs": [],
      "stateMutability": "nonpayable",
      "type": "function"
    },
    {
      "inputs": [],
      "name": "ticketCounter",
      "outputs": [
        {
          "internalType": "uint256",
          "name": "",
          "type": "uint256"
        }
      ],
      "stateMutability": "view",
      "type": "function"
    },
    {
      "inputs": [
        {
          "internalType": "uint256",
          "name": "",
          "type": "uint256"
        }
      ],
      "name": "tickets",
      "outputs": [
        {
          "internalType": "uint256",
          "name": "ticketId",
          "type": "uint256"
        },
        {
          "internalType": "uint256",
          "name": "eventId",
          "type": "uint256"
        },
        {
          "internalType": "address",
          "name": "buyer",
          "type": "address"
        },
        {
          "internalType": "bool",
          "name": "isValid",
          "type": "bool"
        }
      ],
      "stateMutability": "view",
      "type": "function"
    },
    {
      "inputs": [
        {
          "internalType": "uint256",
          "name": "_eventId",
          "type": "uint256"
        },
        {
          "internalType": "uint256",
          "name": "_eventDate",
          "type": "uint256"
        }
      ],
      "name": "updateEventDate",
      "outputs": [],
      "stateMutability": "nonpayable",
      "type": "function"
    },
    {
      "inputs": [
        {
          "internalType": "uint256",
          "name": "_eventId",
          "type": "uint256"
        },
        {
          "internalType": "string",
          "name": "_eventName",
          "type": "string"
        }
      ],
      "name": "updateEventName",
      "outputs": [],
      "stateMutability": "nonpayable",
      "type": "function"
    },
    {
      "inputs": [
        {
          "internalType": "uint256",
          "name": "_eventId",
          "type": "uint256"
        },
        {
          "internalType": "uint256",
          "name": "_ticketCount",
          "type": "uint256"
        }
      ],
      "name": "updateTicketCount",
      "outputs": [],
      "stateMutability": "nonpayable",
      "type": "function"
    },
    {
      "inputs": [
        {
          "internalType": "uint256",
          "name": "_eventId",
          "type": "uint256"
        },
        {
          "internalType": "uint256",
          "name": "_ticketPrice",
          "type": "uint256"
        }
      ],
      "name": "updateTicketPrice",
      "outputs": [],
      "stateMutability": "nonpayable",
      "type": "function"
    },
    {
      "inputs": [],
      "name": "userCounter",
      "outputs": [
        {
          "internalType": "uint256",
          "name": "",
          "type": "uint256"
        }
      ],
      "stateMutability": "view",
      "type": "function"
    },
    {
      "inputs": [
        {
          "internalType": "address",
          "name": "",
          "type": "address"
        }
      ],
      "name": "users",
      "outputs": [
        {
          "internalType": "uint256",
          "name": "userId",
          "type": "uint256"
        },
        {
          "internalType": "address",
          "name": "userAddress",
          "type": "address"
        },
        {
          "internalType": "bool",
          "name": "hasRFIDCard",
          "type": "bool"
        }
      ],
      "stateMutability": "view",
      "type": "function"
    },
    {
      "inputs": [
        {
          "internalType": "uint256",
          "name": "_eventId",
          "type": "uint256"
        }
      ],
      "name": "withdrawPayment",
      "outputs": [],
      "stateMutability": "nonpayable",
      "type": "function"
    }
  ],
  "bytecode": "0x608060405234801561001057600080fd5b50336000806101000a81548173ffffffffffffffffffffffffffffffffffffffff021916908373ffffffffffffffffffffffffffffffffffffffff1602179055506103e86002819055506103e86003819055506103e8600481905550613e0d8061007b6000396000f3fe6080604052600436106101815760003560e01c806367dd74ca116100d1578063c6d4ce471161008a578063e1495fac11610064578063e1495fac146105c9578063e4aa47e314610606578063ec38d5a014610643578063f0c37a591461068057610181565b8063c6d4ce471461053a578063cc3d967b14610563578063dbd3cd62146105a057610181565b806367dd74ca14610421578063738201e91461043d5780638c4d59d01461047a5780638da5cb5b146104a5578063a87430ba146104d0578063c27a500d1461050f57610181565b806324c141601161013e578063458b514a11610118578063458b514a1461035057806350b447121461038d57806352c55db9146103cd57806356164e1e146103f857610181565b806324c14160146102ad57806326704c70146102ea5780632c49f35e1461032757610181565b8063011b3950146101865780630374ab0b146101af5780630b791430146101d857806311d04fcd1461021c57806317d4357b14610247578063184b093814610270575b600080fd5b34801561019257600080fd5b506101ad60048036038101906101a891906126d2565b6106ab565b005b3480156101bb57600080fd5b506101d660048036038101906101d19190612858565b6107b2565b005b3480156101e457600080fd5b506101ff60048036038101906101fa91906128db565b610a1d565b6040516102139897969594939291906129f2565b60405180910390f35b34801561022857600080fd5b50610231610b1a565b60405161023e9190612a77565b60405180910390f35b34801561025357600080fd5b5061026e60048036038101906102699190612a92565b610b1f565b005b34801561027c57600080fd5b5061029760048036038101906102929190612b1a565b610bed565b6040516102a49190612c78565b60405180910390f35b3480156102b957600080fd5b506102d460048036038101906102cf91906128db565b610de2565b6040516102e19190612cef565b60405180910390f35b3480156102f657600080fd5b50610311600480360381019061030c91906126d2565b610eec565b60405161031e9190612d0a565b60405180910390f35b34801561033357600080fd5b5061034e600480360381019061034991906126d2565b610ff1565b005b34801561035c57600080fd5b5061037760048036038101906103729190612b1a565b61110f565b6040516103849190612dd4565b60405180910390f35b34801561039957600080fd5b506103b460048036038101906103af91906128db565b6111a6565b6040516103c49493929190612df6565b60405180910390f35b3480156103d957600080fd5b506103e2611203565b6040516103ef9190612a77565b60405180910390f35b34801561040457600080fd5b5061041f600480360381019061041a91906128db565b611209565b005b61043b600480360381019061043691906128db565b611441565b005b34801561044957600080fd5b50610464600480360381019061045f9190612b1a565b6119f2565b6040516104719190612d0a565b60405180910390f35b34801561048657600080fd5b5061048f611a4c565b60405161049c9190612a77565b60405180910390f35b3480156104b157600080fd5b506104ba611a52565b6040516104c79190612e3b565b60405180910390f35b3480156104dc57600080fd5b506104f760048036038101906104f29190612b1a565b611a76565b60405161050693929190612e56565b60405180910390f35b34801561051b57600080fd5b50610524611acd565b6040516105319190613049565b60405180910390f35b34801561054657600080fd5b50610561600480360381019061055c91906126d2565b611ccf565b005b34801561056f57600080fd5b5061058a60048036038101906105859190612b1a565b611ded565b604051610597919061313d565b60405180910390f35b3480156105ac57600080fd5b506105c760048036038101906105c291906128db565b611fe9565b005b3480156105d557600080fd5b506105f060048036038101906105eb9190612b1a565b6122ef565b6040516105fd9190612d0a565b60405180910390f35b34801561061257600080fd5b5061062d6004803603810190610628919061315f565b61230f565b60405161063a9190612a77565b60405180910390f35b34801561064f57600080fd5b5061066a600480360381019061066591906128db565b612340565b604051610677919061324f565b60405180910390f35b34801561068c57600080fd5b506106956124fb565b6040516106a29190612a77565b60405180910390f35b813373ffffffffffffffffffffffffffffffffffffffff166005600083815260200190815260200160002060060160009054906101000a900473ffffffffffffffffffffffffffffffffffffffff1673ffffffffffffffffffffffffffffffffffffffff1614610750576040517f08c379a0000000000000000000000000000000000000000000000000000000008152600401610747906132bd565b60405180910390fd5b428211610792576040517f08c379a000000000000000000000000000000000000000000000000000000000815260040161078990613329565b60405180910390fd5b816005600085815260200190815260200160002060020181905550505050565b4283116107f4576040517f08c379a00000000000000000000000000000000000000000000000000000000081526004016107eb90613329565b60405180910390fd5b60008111610837576040517f08c379a000000000000000000000000000000000000000000000000000000000815260040161082e906133bb565b60405180910390fd5b6000821161087a576040517f08c379a00000000000000000000000000000000000000000000000000000000081526004016108719061344d565b60405180910390fd5b6002600081548092919061088d9061349c565b91905055506040518061010001604052806002548152602001858152602001848152602001838152602001828152602001600081526020013373ffffffffffffffffffffffffffffffffffffffff1681526020016001151581525060056000600254815260200190815260200160002060008201518160000155602082015181600101908161091c91906136f0565b5060408201518160020155606082015181600301556080820151816004015560a0820151816005015560c08201518160060160006101000a81548173ffffffffffffffffffffffffffffffffffffffff021916908373ffffffffffffffffffffffffffffffffffffffff16021790555060e08201518160060160146101000a81548160ff021916908315150217905550905050600860003373ffffffffffffffffffffffffffffffffffffffff1673ffffffffffffffffffffffffffffffffffffffff168152602001908152602001600020600254908060018154018082558091505060019003906000526020600020016000909190919091505550505050565b6005602052806000526040600020600091509050806000015490806001018054610a4690613513565b80601f0160208091040260200160405190810160405280929190818152602001828054610a7290613513565b8015610abf5780601f10610a9457610100808354040283529160200191610abf565b820191906000526020600020905b815481529060010190602001808311610aa257829003601f168201915b5050505050908060020154908060030154908060040154908060050154908060060160009054906101000a900473ffffffffffffffffffffffffffffffffffffffff16908060060160149054906101000a900460ff16905088565b600a81565b813373ffffffffffffffffffffffffffffffffffffffff166005600083815260200190815260200160002060060160009054906101000a900473ffffffffffffffffffffffffffffffffffffffff1673ffffffffffffffffffffffffffffffffffffffff1614610bc4576040517f08c379a0000000000000000000000000000000000000000000000000000000008152600401610bbb906132bd565b60405180910390fd5b81600560008581526020019081526020016000206001019081610be791906136f0565b50505050565b60606000600760008473ffffffffffffffffffffffffffffffffffffffff1673ffffffffffffffffffffffffffffffffffffffff168152602001908152602001600020600201805480602002602001604051908101604052809291908181526020018280548015610c7d57602002820191906000526020600020905b815481526020019060010190808311610c69575b505050505090506000815167ffffffffffffffff811115610ca157610ca061272d565b5b604051908082528060200260200182016040528015610cda57816020015b610cc7612501565b815260200190600190039081610cbf5790505b50905060005b8251811015610dd75760066000848381518110610d0057610cff6137c2565b5b6020026020010151815260200190815260200160002060405180608001604052908160008201548152602001600182015481526020016002820160009054906101000a900473ffffffffffffffffffffffffffffffffffffffff1673ffffffffffffffffffffffffffffffffffffffff1673ffffffffffffffffffffffffffffffffffffffff1681526020016002820160149054906101000a900460ff161515151581525050828281518110610db957610db86137c2565b5b60200260200101819052508080610dcf9061349c565b915050610ce0565b508092505050919050565b610dea612501565b81600660008481526020019081526020016000206000015414610e42576040517f08c379a0000000000000000000000000000000000000000000000000000000008152600401610e399061383d565b60405180910390fd5b6006600083815260200190815260200160002060405180608001604052908160008201548152602001600182015481526020016002820160009054906101000a900473ffffffffffffffffffffffffffffffffffffffff1673ffffffffffffffffffffffffffffffffffffffff1673ffffffffffffffffffffffffffffffffffffffff1681526020016002820160149054906101000a900460ff1615151515815250509050919050565b600080600090505b600760003373ffffffffffffffffffffffffffffffffffffffff1673ffffffffffffffffffffffffffffffffffffffff16815260200190815260200160002060020180549050811015610fe55782600760003373ffffffffffffffffffffffffffffffffffffffff1673ffffffffffffffffffffffffffffffffffffffff1681526020019081526020016000206002018281548110610f9657610f956137c2565b5b9060005260206000200154148015610fc35750836006600085815260200190815260200160002060010154145b15610fd2576001915050610feb565b8080610fdd9061349c565b915050610ef4565b50600090505b92915050565b813373ffffffffffffffffffffffffffffffffffffffff166005600083815260200190815260200160002060060160009054906101000a900473ffffffffffffffffffffffffffffffffffffffff1673ffffffffffffffffffffffffffffffffffffffff1614611096576040517f08c379a000000000000000000000000000000000000000000000000000000000815260040161108d906132bd565b60405180910390fd5b60006005600085815260200190815260200160002060050154146110ef576040517f08c379a00000000000000000000000000000000000000000000000000000000081526004016110e6906138a9565b60405180910390fd5b816005600085815260200190815260200160002060030181905550505050565b6060600860008373ffffffffffffffffffffffffffffffffffffffff1673ffffffffffffffffffffffffffffffffffffffff16815260200190815260200160002080548060200260200160405190810160405280929190818152602001828054801561119a57602002820191906000526020600020905b815481526020019060010190808311611186575b50505050509050919050565b60066020528060005260406000206000915090508060000154908060010154908060020160009054906101000a900473ffffffffffffffffffffffffffffffffffffffff16908060020160149054906101000a900460ff16905084565b60025481565b803373ffffffffffffffffffffffffffffffffffffffff166005600083815260200190815260200160002060060160009054906101000a900473ffffffffffffffffffffffffffffffffffffffff1673ffffffffffffffffffffffffffffffffffffffff16146112ae576040517f08c379a00000000000000000000000000000000000000000000000000000000081526004016112a5906132bd565b60405180910390fd5b6000600860003373ffffffffffffffffffffffffffffffffffffffff1673ffffffffffffffffffffffffffffffffffffffff168152602001908152602001600020905060005b81805490508110156113b25783828281548110611314576113136137c2565b5b90600052602060002001540361139f57816001838054905061133691906138c9565b81548110611347576113466137c2565b5b9060005260206000200154828281548110611365576113646137c2565b5b906000526020600020018190555081805480611384576113836138fd565b5b600190038181906000526020600020016000905590556113b2565b80806113aa9061349c565b9150506112f4565b50600560008481526020019081526020016000206000808201600090556001820160006113df9190612541565b60028201600090556003820160009055600482016000905560058201600090556006820160006101000a81549073ffffffffffffffffffffffffffffffffffffffff02191690556006820160146101000a81549060ff02191690555050505050565b80600560008381526020019081526020016000206000015414611499576040517f08c379a000000000000000000000000000000000000000000000000000000000815260040161149090613978565b60405180910390fd5b60006005600083815260200190815260200160002060040154116114f2576040517f08c379a00000000000000000000000000000000000000000000000000000000081526004016114e9906139e4565b60405180910390fd5b6005600082815260200190815260200160002060060160149054906101000a900460ff16611555576040517f08c379a000000000000000000000000000000000000000000000000000000000815260040161154c90613a50565b60405180910390fd5b600060056000838152602001908152602001600020600301549050600760003373ffffffffffffffffffffffffffffffffffffffff1673ffffffffffffffffffffffffffffffffffffffff16815260200190815260200160002060010160149054906101000a900460ff166115d457600a816115d19190613a70565b90505b80341015611617576040517f08c379a000000000000000000000000000000000000000000000000000000000815260040161160e90613af0565b60405180910390fd5b6003600081548092919061162a9061349c565b919050555060056000838152602001908152602001600020600401600081548092919061165690613b10565b9190505550600760003373ffffffffffffffffffffffffffffffffffffffff1673ffffffffffffffffffffffffffffffffffffffff1681526020019081526020016000206002016003549080600181540180825580915050600190039060005260206000200160009091909190915055604051806080016040528060035481526020018381526020013373ffffffffffffffffffffffffffffffffffffffff16815260200160011515815250600660006003548152602001908152602001600020600082015181600001556020820151816001015560408201518160020160006101000a81548173ffffffffffffffffffffffffffffffffffffffff021916908373ffffffffffffffffffffffffffffffffffffffff16021790555060608201518160020160146101000a81548160ff021916908315150217905550905050600760003373ffffffffffffffffffffffffffffffffffffffff1673ffffffffffffffffffffffffffffffffffffffff16815260200190815260200160002060010160149054906101000a900460ff166119c257600460008154809291906117fc9061349c565b9190505550604051806080016040528060045481526020013373ffffffffffffffffffffffffffffffffffffffff168152602001600115158152602001600067ffffffffffffffff8111156118545761185361272d565b5b6040519080825280602002602001820160405280156118825781602001602082028036833780820191505090505b50815250600760003373ffffffffffffffffffffffffffffffffffffffff1673ffffffffffffffffffffffffffffffffffffffff1681526020019081526020016000206000820151816000015560208201518160010160006101000a81548173ffffffffffffffffffffffffffffffffffffffff021916908373ffffffffffffffffffffffffffffffffffffffff16021790555060408201518160010160146101000a81548160ff0219169083151502179055506060820151816002019080519060200190611952929190612581565b50905050600760003373ffffffffffffffffffffffffffffffffffffffff1673ffffffffffffffffffffffffffffffffffffffff16815260200190815260200160002060020160035490806001815401808255809150506001900390600052602060002001600090919091909150555b6005600083815260200190815260200160002060050160008154809291906119e99061349c565b91905055505050565b6000600760008373ffffffffffffffffffffffffffffffffffffffff1673ffffffffffffffffffffffffffffffffffffffff16815260200190815260200160002060010160149054906101000a900460ff16159050919050565b60035481565b60008054906101000a900473ffffffffffffffffffffffffffffffffffffffff1681565b60076020528060005260406000206000915090508060000154908060010160009054906101000a900473ffffffffffffffffffffffffffffffffffffffff16908060010160149054906101000a900460ff16905083565b6060600060025467ffffffffffffffff811115611aed57611aec61272d565b5b604051908082528060200260200182016040528015611b2657816020015b611b136125ce565b815260200190600190039081611b0b5790505b50905060005b600254811015611cc75760056000600183611b479190613a70565b81526020019081526020016000206040518061010001604052908160008201548152602001600182018054611b7b90613513565b80601f0160208091040260200160405190810160405280929190818152602001828054611ba790613513565b8015611bf45780601f10611bc957610100808354040283529160200191611bf4565b820191906000526020600020905b815481529060010190602001808311611bd757829003601f168201915b50505050508152602001600282015481526020016003820154815260200160048201548152602001600582015481526020016006820160009054906101000a900473ffffffffffffffffffffffffffffffffffffffff1673ffffffffffffffffffffffffffffffffffffffff1673ffffffffffffffffffffffffffffffffffffffff1681526020016006820160149054906101000a900460ff161515151581525050828281518110611ca957611ca86137c2565b5b60200260200101819052508080611cbf9061349c565b915050611b2c565b508091505090565b813373ffffffffffffffffffffffffffffffffffffffff166005600083815260200190815260200160002060060160009054906101000a900473ffffffffffffffffffffffffffffffffffffffff1673ffffffffffffffffffffffffffffffffffffffff1614611d74576040517f08c379a0000000000000000000000000000000000000000000000000000000008152600401611d6b906132bd565b60405180910390fd5b8160056000858152602001908152602001600020600501541115611dcd576040517f08c379a0000000000000000000000000000000000000000000000000000000008152600401611dc490613bd1565b60405180910390fd5b816005600085815260200190815260200160002060040181905550505050565b611df561262b565b8173ffffffffffffffffffffffffffffffffffffffff16600760008473ffffffffffffffffffffffffffffffffffffffff1673ffffffffffffffffffffffffffffffffffffffff16815260200190815260200160002060010160009054906101000a900473ffffffffffffffffffffffffffffffffffffffff1673ffffffffffffffffffffffffffffffffffffffff1614611ec5576040517f08c379a0000000000000000000000000000000000000000000000000000000008152600401611ebc90613c3d565b60405180910390fd5b600760008373ffffffffffffffffffffffffffffffffffffffff1673ffffffffffffffffffffffffffffffffffffffff168152602001908152602001600020604051806080016040529081600082015481526020016001820160009054906101000a900473ffffffffffffffffffffffffffffffffffffffff1673ffffffffffffffffffffffffffffffffffffffff1673ffffffffffffffffffffffffffffffffffffffff1681526020016001820160149054906101000a900460ff1615151515815260200160028201805480602002602001604051908101604052809291908181526020018280548015611fd957602002820191906000526020600020905b815481526020019060010190808311611fc5575b5050505050815250509050919050565b803373ffffffffffffffffffffffffffffffffffffffff166005600083815260200190815260200160002060060160009054906101000a900473ffffffffffffffffffffffffffffffffffffffff1673ffffffffffffffffffffffffffffffffffffffff161461208e576040517f08c379a0000000000000000000000000000000000000000000000000000000008152600401612085906132bd565b60405180910390fd5b426005600084815260200190815260200160002060020154106120e6576040517f08c379a00000000000000000000000000000000000000000000000000000000081526004016120dd90613ca9565b60405180910390fd5b600060056000848152602001908152602001600020600501541161213f576040517f08c379a000000000000000000000000000000000000000000000000000000000815260040161213690613d15565b60405180910390fd5b6005600083815260200190815260200160002060060160149054906101000a900460ff166121a2576040517f08c379a000000000000000000000000000000000000000000000000000000000815260040161219990613a50565b60405180910390fd5b6000600560008481526020019081526020016000206005015460056000858152602001908152602001600020600301546121dc9190613d35565b9050600060646005836121ef9190613d35565b6121f99190613da6565b90506000818361220991906138c9565b905060008054906101000a900473ffffffffffffffffffffffffffffffffffffffff1673ffffffffffffffffffffffffffffffffffffffff166108fc839081150290604051600060405180830381858888f19350505050158015612271573d6000803e3d6000fd5b503373ffffffffffffffffffffffffffffffffffffffff166108fc829081150290604051600060405180830381858888f193505050501580156122b8573d6000803e3d6000fd5b5060006005600087815260200190815260200160002060060160146101000a81548160ff0219169083151502179055505050505050565b60016020528060005260406000206000915054906101000a900460ff1681565b6008602052816000526040600020818154811061232b57600080fd5b90600052602060002001600091509150505481565b6123486125ce565b816005600084815260200190815260200160002060000154146123a0576040517f08c379a000000000000000000000000000000000000000000000000000000000815260040161239790613978565b60405180910390fd5b6005600083815260200190815260200160002060405180610100016040529081600082015481526020016001820180546123d990613513565b80601f016020809104026020016040519081016040528092919081815260200182805461240590613513565b80156124525780601f1061242757610100808354040283529160200191612452565b820191906000526020600020905b81548152906001019060200180831161243557829003601f168201915b50505050508152602001600282015481526020016003820154815260200160048201548152602001600582015481526020016006820160009054906101000a900473ffffffffffffffffffffffffffffffffffffffff1673ffffffffffffffffffffffffffffffffffffffff1673ffffffffffffffffffffffffffffffffffffffff1681526020016006820160149054906101000a900460ff1615151515815250509050919050565b60045481565b60405180608001604052806000815260200160008152602001600073ffffffffffffffffffffffffffffffffffffffff1681526020016000151581525090565b50805461254d90613513565b6000825580601f1061255f575061257e565b601f01602090049060005260206000209081019061257d919061266b565b5b50565b8280548282559060005260206000209081019282156125bd579160200282015b828111156125bc5782518255916020019190600101906125a1565b5b5090506125ca919061266b565b5090565b604051806101000160405280600081526020016060815260200160008152602001600081526020016000815260200160008152602001600073ffffffffffffffffffffffffffffffffffffffff1681526020016000151581525090565b604051806080016040528060008152602001600073ffffffffffffffffffffffffffffffffffffffff168152602001600015158152602001606081525090565b5b8082111561268457600081600090555060010161266c565b5090565b6000604051905090565b600080fd5b600080fd5b6000819050919050565b6126af8161269c565b81146126ba57600080fd5b50565b6000813590506126cc816126a6565b92915050565b600080604083850312156126e9576126e8612692565b5b60006126f7858286016126bd565b9250506020612708858286016126bd565b9150509250929050565b600080fd5b600080fd5b6000601f19601f8301169050919050565b7f4e487b7100000000000000000000000000000000000000000000000000000000600052604160045260246000fd5b6127658261271c565b810181811067ffffffffffffffff821117156127845761278361272d565b5b80604052505050565b6000612797612688565b90506127a3828261275c565b919050565b600067ffffffffffffffff8211156127c3576127c261272d565b5b6127cc8261271c565b9050602081019050919050565b82818337600083830152505050565b60006127fb6127f6846127a8565b61278d565b90508281526020810184848401111561281757612816612717565b5b6128228482856127d9565b509392505050565b600082601f83011261283f5761283e612712565b5b813561284f8482602086016127e8565b91505092915050565b6000806000806080858703121561287257612871612692565b5b600085013567ffffffffffffffff8111156128905761288f612697565b5b61289c8782880161282a565b94505060206128ad878288016126bd565b93505060406128be878288016126bd565b92505060606128cf878288016126bd565b91505092959194509250565b6000602082840312156128f1576128f0612692565b5b60006128ff848285016126bd565b91505092915050565b6129118161269c565b82525050565b600081519050919050565b600082825260208201905092915050565b60005b83811015612951578082015181840152602081019050612936565b60008484015250505050565b600061296882612917565b6129728185612922565b9350612982818560208601612933565b61298b8161271c565b840191505092915050565b600073ffffffffffffffffffffffffffffffffffffffff82169050919050565b60006129c182612996565b9050919050565b6129d1816129b6565b82525050565b60008115159050919050565b6129ec816129d7565b82525050565b600061010082019050612a08600083018b612908565b8181036020830152612a1a818a61295d565b9050612a296040830189612908565b612a366060830188612908565b612a436080830187612908565b612a5060a0830186612908565b612a5d60c08301856129c8565b612a6a60e08301846129e3565b9998505050505050505050565b6000602082019050612a8c6000830184612908565b92915050565b60008060408385031215612aa957612aa8612692565b5b6000612ab7858286016126bd565b925050602083013567ffffffffffffffff811115612ad857612ad7612697565b5b612ae48582860161282a565b9150509250929050565b612af7816129b6565b8114612b0257600080fd5b50565b600081359050612b1481612aee565b92915050565b600060208284031215612b3057612b2f612692565b5b6000612b3e84828501612b05565b91505092915050565b600081519050919050565b600082825260208201905092915050565b6000819050602082019050919050565b612b7c8161269c565b82525050565b612b8b816129b6565b82525050565b612b9a816129d7565b82525050565b608082016000820151612bb66000850182612b73565b506020820151612bc96020850182612b73565b506040820151612bdc6040850182612b82565b506060820151612bef6060850182612b91565b50505050565b6000612c018383612ba0565b60808301905092915050565b6000602082019050919050565b6000612c2582612b47565b612c2f8185612b52565b9350612c3a83612b63565b8060005b83811015612c6b578151612c528882612bf5565b9750612c5d83612c0d565b925050600181019050612c3e565b5085935050505092915050565b60006020820190508181036000830152612c928184612c1a565b905092915050565b608082016000820151612cb06000850182612b73565b506020820151612cc36020850182612b73565b506040820151612cd66040850182612b82565b506060820151612ce96060850182612b91565b50505050565b6000608082019050612d046000830184612c9a565b92915050565b6000602082019050612d1f60008301846129e3565b92915050565b600081519050919050565b600082825260208201905092915050565b6000819050602082019050919050565b6000612d5d8383612b73565b60208301905092915050565b6000602082019050919050565b6000612d8182612d25565b612d8b8185612d30565b9350612d9683612d41565b8060005b83811015612dc7578151612dae8882612d51565b9750612db983612d69565b925050600181019050612d9a565b5085935050505092915050565b60006020820190508181036000830152612dee8184612d76565b905092915050565b6000608082019050612e0b6000830187612908565b612e186020830186612908565b612e2560408301856129c8565b612e3260608301846129e3565b95945050505050565b6000602082019050612e5060008301846129c8565b92915050565b6000606082019050612e6b6000830186612908565b612e7860208301856129c8565b612e8560408301846129e3565b949350505050565b600081519050919050565b600082825260208201905092915050565b6000819050602082019050919050565b600082825260208201905092915050565b6000612ed582612917565b612edf8185612eb9565b9350612eef818560208601612933565b612ef88161271c565b840191505092915050565b600061010083016000830151612f1c6000860182612b73565b5060208301518482036020860152612f348282612eca565b9150506040830151612f496040860182612b73565b506060830151612f5c6060860182612b73565b506080830151612f6f6080860182612b73565b5060a0830151612f8260a0860182612b73565b5060c0830151612f9560c0860182612b82565b5060e0830151612fa860e0860182612b91565b508091505092915050565b6000612fbf8383612f03565b905092915050565b6000602082019050919050565b6000612fdf82612e8d565b612fe98185612e98565b935083602082028501612ffb85612ea9565b8060005b8581101561303757848403895281516130188582612fb3565b945061302383612fc7565b925060208a01995050600181019050612fff565b50829750879550505050505092915050565b600060208201905081810360008301526130638184612fd4565b905092915050565b600082825260208201905092915050565b600061308782612d25565b613091818561306b565b935061309c83612d41565b8060005b838110156130cd5781516130b48882612d51565b97506130bf83612d69565b9250506001810190506130a0565b5085935050505092915050565b60006080830160008301516130f26000860182612b73565b5060208301516131056020860182612b82565b5060408301516131186040860182612b91565b5060608301518482036060860152613130828261307c565b9150508091505092915050565b6000602082019050818103600083015261315781846130da565b905092915050565b6000806040838503121561317657613175612692565b5b600061318485828601612b05565b9250506020613195858286016126bd565b9150509250929050565b6000610100830160008301516131b86000860182612b73565b50602083015184820360208601526131d08282612eca565b91505060408301516131e56040860182612b73565b5060608301516131f86060860182612b73565b50608083015161320b6080860182612b73565b5060a083015161321e60a0860182612b73565b5060c083015161323160c0860182612b82565b5060e083015161324460e0860182612b91565b508091505092915050565b60006020820190508181036000830152613269818461319f565b905092915050565b7f596f7520617265206e6f7420746865206576656e74206f7267616e697a657200600082015250565b60006132a7601f83612922565b91506132b282613271565b602082019050919050565b600060208201905081810360008301526132d68161329a565b9050919050565b7f4576656e742064617465206d75737420626520696e2074686520667574757265600082015250565b6000613313602083612922565b915061331e826132dd565b602082019050919050565b6000602082019050818103600083015261334281613306565b9050919050565b7f5469636b657420636f756e74206d75737420626520677265617465722074686160008201527f6e20300000000000000000000000000000000000000000000000000000000000602082015250565b60006133a5602383612922565b91506133b082613349565b604082019050919050565b600060208201905081810360008301526133d481613398565b9050919050565b7f5469636b6574207072696365206d75737420626520677265617465722074686160008201527f6e20300000000000000000000000000000000000000000000000000000000000602082015250565b6000613437602383612922565b9150613442826133db565b604082019050919050565b600060208201905081810360008301526134668161342a565b9050919050565b7f4e487b7100000000000000000000000000000000000000000000000000000000600052601160045260246000fd5b60006134a78261269c565b91507fffffffffffffffffffffffffffffffffffffffffffffffffffffffffffffffff82036134d9576134d861346d565b5b600182019050919050565b7f4e487b7100000000000000000000000000000000000000000000000000000000600052602260045260246000fd5b6000600282049050600182168061352b57607f821691505b60208210810361353e5761353d6134e4565b5b50919050565b60008190508160005260206000209050919050565b60006020601f8301049050919050565b600082821b905092915050565b6000600883026135a67fffffffffffffffffffffffffffffffffffffffffffffffffffffffffffffffff82613569565b6135b08683613569565b95508019841693508086168417925050509392505050565b6000819050919050565b60006135ed6135e86135e38461269c565b6135c8565b61269c565b9050919050565b6000819050919050565b613607836135d2565b61361b613613826135f4565b848454613576565b825550505050565b600090565b613630613623565b61363b8184846135fe565b505050565b5b8181101561365f57613654600082613628565b600181019050613641565b5050565b601f8211156136a45761367581613544565b61367e84613559565b8101602085101561368d578190505b6136a161369985613559565b830182613640565b50505b505050565b600082821c905092915050565b60006136c7600019846008026136a9565b1980831691505092915050565b60006136e083836136b6565b9150826002028217905092915050565b6136f982612917565b67ffffffffffffffff8111156137125761371161272d565b5b61371c8254613513565b613727828285613663565b600060209050601f83116001811461375a5760008415613748578287015190505b61375285826136d4565b8655506137ba565b601f19841661376886613544565b60005b828110156137905784890151825560018201915060208501945060208101905061376b565b868310156137ad57848901516137a9601f8916826136b6565b8355505b6001600288020188555050505b505050505050565b7f4e487b7100000000000000000000000000000000000000000000000000000000600052603260045260246000fd5b7f5469636b657420646f6573206e6f742065786973740000000000000000000000600082015250565b6000613827601583612922565b9150613832826137f1565b602082019050919050565b600060208201905081810360008301526138568161381a565b9050919050565b7f5469636b657473206861766520616c7265616479206265656e20736f6c640000600082015250565b6000613893601e83612922565b915061389e8261385d565b602082019050919050565b600060208201905081810360008301526138c281613886565b9050919050565b60006138d48261269c565b91506138df8361269c565b92508282039050818111156138f7576138f661346d565b5b92915050565b7f4e487b7100000000000000000000000000000000000000000000000000000000600052603160045260246000fd5b7f4576656e7420646f6573206e6f74206578697374000000000000000000000000600082015250565b6000613962601483612922565b915061396d8261392c565b602082019050919050565b6000602082019050818103600083015261399181613955565b9050919050565b7f4e6f206d6f7265207469636b65747320617661696c61626c6500000000000000600082015250565b60006139ce601983612922565b91506139d982613998565b602082019050919050565b600060208201905081810360008301526139fd816139c1565b9050919050565b7f4576656e74206973206e6f742076616c69640000000000000000000000000000600082015250565b6000613a3a601283612922565b9150613a4582613a04565b602082019050919050565b60006020820190508181036000830152613a6981613a2d565b9050919050565b6000613a7b8261269c565b9150613a868361269c565b9250828201905080821115613a9e57613a9d61346d565b5b92915050565b7f496e636f727265637420616d6f756e742073656e740000000000000000000000600082015250565b6000613ada601583612922565b9150613ae582613aa4565b602082019050919050565b60006020820190508181036000830152613b0981613acd565b9050919050565b6000613b1b8261269c565b915060008203613b2e57613b2d61346d565b5b600182039050919050565b7f4e6577207469636b657420636f756e74206d757374206265206772656174657260008201527f207468616e206f7220657175616c20746f20746865206e756d626572206f662060208201527f7469636b65747320616c726561647920736f6c64000000000000000000000000604082015250565b6000613bbb605483612922565b9150613bc682613b39565b606082019050919050565b60006020820190508181036000830152613bea81613bae565b9050919050565b7f5573657220646f6573206e6f7420657869737400000000000000000000000000600082015250565b6000613c27601383612922565b9150613c3282613bf1565b602082019050919050565b60006020820190508181036000830152613c5681613c1a565b9050919050565b7f4576656e74206973206e6f74206f766572207965740000000000000000000000600082015250565b6000613c93601583612922565b9150613c9e82613c5d565b602082019050919050565b60006020820190508181036000830152613cc281613c86565b9050919050565b7f4e6f207469636b65747320736f6c640000000000000000000000000000000000600082015250565b6000613cff600f83612922565b9150613d0a82613cc9565b602082019050919050565b60006020820190508181036000830152613d2e81613cf2565b9050919050565b6000613d408261269c565b9150613d4b8361269c565b9250828202613d598161269c565b91508282048414831517613d7057613d6f61346d565b5b5092915050565b7f4e487b7100000000000000000000000000000000000000000000000000000000600052601260045260246000fd5b6000613db18261269c565b9150613dbc8361269c565b925082613dcc57613dcb613d77565b5b82820490509291505056fea26469706673582212206cfe28b9bfdb613b970862aa389c1e4e99e570b63461110c365c7c5519925eae64736f6c63430008130033",
  "linkReferences": {},
  "deployedLinkReferences": {}
}