{
  "_format": "hh-sol-artifact-1",
  "contractName": "SecurePass",
  "sourceName": "contracts/SecurePass.sol",
  "abi": [
    {
      "inputs": [],
      "stateMutability": "nonpayable",
      "type": "constructor"
    },
    {
      "inputs": [],
      "name": "RFID_CARD_COST",
      "outputs": [
        {
          "internalType": "uint256",
          "name": "",
          "type": "uint256"
        }
      ],
      "stateMutability": "view",
      "type": "function"
    },
    {
      "inputs": [
        {
          "internalType": "uint256",
          "name": "_eventId",
          "type": "uint256"
        }
      ],
      "name": "buyTicket",
      "outputs": [],
      "stateMutability": "payable",
      "type": "function"
    },
    {
      "inputs": [
        {
          "internalType": "string",
          "name": "_eventName",
          "type": "string"
        },
        {
          "internalType": "uint256",
          "name": "_eventDate",
          "type": "uint256"
        },
        {
          "internalType": "uint256",
          "name": "_ticketPrice",
          "type": "uint256"
        },
        {
          "internalType": "uint256",
          "name": "_ticketCount",
          "type": "uint256"
        }
      ],
      "name": "createEvent",
      "outputs": [],
      "stateMutability": "nonpayable",
      "type": "function"
    },
    {
      "inputs": [],
      "name": "eventCounter",
      "outputs": [
        {
          "internalType": "uint256",
          "name": "",
          "type": "uint256"
        }
      ],
      "stateMutability": "view",
      "type": "function"
    },
    {
      "inputs": [
        {
          "internalType": "address",
          "name": "",
          "type": "address"
        }
      ],
      "name": "eventOrganizers",
      "outputs": [
        {
          "internalType": "bool",
          "name": "",
          "type": "bool"
        }
      ],
      "stateMutability": "view",
      "type": "function"
    },
    {
      "inputs": [
        {
          "internalType": "uint256",
          "name": "",
          "type": "uint256"
        }
      ],
      "name": "events",
      "outputs": [
        {
          "internalType": "uint256",
          "name": "eventId",
          "type": "uint256"
        },
        {
          "internalType": "string",
          "name": "eventName",
          "type": "string"
        },
        {
          "internalType": "uint256",
          "name": "eventDate",
          "type": "uint256"
        },
        {
          "internalType": "uint256",
          "name": "ticketPrice",
          "type": "uint256"
        },
        {
          "internalType": "uint256",
          "name": "ticketCount",
          "type": "uint256"
        },
        {
          "internalType": "uint256",
          "name": "ticketSold",
          "type": "uint256"
        },
        {
          "internalType": "address",
          "name": "eventOrganizers",
          "type": "address"
        },
        {
          "internalType": "bool",
          "name": "isValid",
          "type": "bool"
        }
      ],
      "stateMutability": "view",
      "type": "function"
    },
    {
      "inputs": [],
      "name": "getAllEvents",
      "outputs": [
        {
          "components": [
            {
              "internalType": "uint256",
              "name": "eventId",
              "type": "uint256"
            },
            {
              "internalType": "string",
              "name": "eventName",
              "type": "string"
            },
            {
              "internalType": "uint256",
              "name": "eventDate",
              "type": "uint256"
            },
            {
              "internalType": "uint256",
              "name": "ticketPrice",
              "type": "uint256"
            },
            {
              "internalType": "uint256",
              "name": "ticketCount",
              "type": "uint256"
            },
            {
              "internalType": "uint256",
              "name": "ticketSold",
              "type": "uint256"
            },
            {
              "internalType": "address",
              "name": "eventOrganizers",
              "type": "address"
            },
            {
              "internalType": "bool",
              "name": "isValid",
              "type": "bool"
            }
          ],
          "internalType": "struct SecurePass.Event[]",
          "name": "",
          "type": "tuple[]"
        }
      ],
      "stateMutability": "view",
      "type": "function"
    },
    {
      "inputs": [
        {
          "internalType": "uint256",
          "name": "_eventId",
          "type": "uint256"
        }
      ],
      "name": "getEventDetails",
      "outputs": [
        {
          "components": [
            {
              "internalType": "uint256",
              "name": "eventId",
              "type": "uint256"
            },
            {
              "internalType": "string",
              "name": "eventName",
              "type": "string"
            },
            {
              "internalType": "uint256",
              "name": "eventDate",
              "type": "uint256"
            },
            {
              "internalType": "uint256",
              "name": "ticketPrice",
              "type": "uint256"
            },
            {
              "internalType": "uint256",
              "name": "ticketCount",
              "type": "uint256"
            },
            {
              "internalType": "uint256",
              "name": "ticketSold",
              "type": "uint256"
            },
            {
              "internalType": "address",
              "name": "eventOrganizers",
              "type": "address"
            },
            {
              "internalType": "bool",
              "name": "isValid",
              "type": "bool"
            }
          ],
          "internalType": "struct SecurePass.Event",
          "name": "",
          "type": "tuple"
        }
      ],
      "stateMutability": "view",
      "type": "function"
    },
    {
      "inputs": [
        {
          "internalType": "address",
          "name": "organizer",
          "type": "address"
        }
      ],
      "name": "getEventIdsOfAUser",
      "outputs": [
        {
          "internalType": "uint256[]",
          "name": "",
          "type": "uint256[]"
        }
      ],
      "stateMutability": "view",
      "type": "function"
    },
    {
      "inputs": [
        {
          "internalType": "uint256",
          "name": "_ticketId",
          "type": "uint256"
        }
      ],
      "name": "getTicketDetails",
      "outputs": [
        {
          "components": [
            {
              "internalType": "uint256",
              "name": "ticketId",
              "type": "uint256"
            },
            {
              "internalType": "uint256",
              "name": "eventId",
              "type": "uint256"
            },
            {
              "internalType": "address",
              "name": "buyer",
              "type": "address"
            },
            {
              "internalType": "bool",
              "name": "isValid",
              "type": "bool"
            }
          ],
          "internalType": "struct SecurePass.Ticket",
          "name": "",
          "type": "tuple"
        }
      ],
      "stateMutability": "view",
      "type": "function"
    },
    {
      "inputs": [
        {
          "internalType": "address",
          "name": "_userAddress",
          "type": "address"
        }
      ],
      "name": "getUserDetails",
      "outputs": [
        {
          "components": [
            {
              "internalType": "uint256",
              "name": "userId",
              "type": "uint256"
            },
            {
              "internalType": "address",
              "name": "userAddress",
              "type": "address"
            },
            {
              "internalType": "bool",
              "name": "hasRFIDCard",
              "type": "bool"
            },
            {
              "internalType": "uint256[]",
              "name": "ticketsArray",
              "type": "uint256[]"
            }
          ],
          "internalType": "struct SecurePass.User",
          "name": "",
          "type": "tuple"
        }
      ],
      "stateMutability": "view",
      "type": "function"
    },
    {
      "inputs": [
        {
          "internalType": "address",
          "name": "user",
          "type": "address"
        }
      ],
      "name": "isNewuser",
      "outputs": [
        {
          "internalType": "bool",
          "name": "",
          "type": "bool"
        }
      ],
      "stateMutability": "view",
      "type": "function"
    },
    {
      "inputs": [
        {
          "internalType": "uint256",
          "name": "_eventId",
          "type": "uint256"
        },
        {
          "internalType": "uint256",
          "name": "_userID",
          "type": "uint256"
        }
      ],
      "name": "isTicketValid",
      "outputs": [
        {
          "internalType": "bool",
          "name": "",
          "type": "bool"
        }
      ],
      "stateMutability": "view",
      "type": "function"
    },
    {
      "inputs": [
        {
          "internalType": "address",
          "name": "",
          "type": "address"
        },
        {
          "internalType": "uint256",
          "name": "",
          "type": "uint256"
        }
      ],
      "name": "organizerEvents",
      "outputs": [
        {
          "internalType": "uint256",
          "name": "",
          "type": "uint256"
        }
      ],
      "stateMutability": "view",
      "type": "function"
    },
    {
      "inputs": [],
      "name": "owner",
      "outputs": [
        {
          "internalType": "address",
          "name": "",
          "type": "address"
        }
      ],
      "stateMutability": "view",
      "type": "function"
    },
    {
      "inputs": [
        {
          "internalType": "uint256",
          "name": "_eventId",
          "type": "uint256"
        }
      ],
      "name": "removeEvent",
      "outputs": [],
      "stateMutability": "nonpayable",
      "type": "function"
    },
    {
      "inputs": [],
      "name": "ticketCounter",
      "outputs": [
        {
          "internalType": "uint256",
          "name": "",
          "type": "uint256"
        }
      ],
      "stateMutability": "view",
      "type": "function"
    },
    {
      "inputs": [
        {
          "internalType": "uint256",
          "name": "",
          "type": "uint256"
        }
      ],
      "name": "tickets",
      "outputs": [
        {
          "internalType": "uint256",
          "name": "ticketId",
          "type": "uint256"
        },
        {
          "internalType": "uint256",
          "name": "eventId",
          "type": "uint256"
        },
        {
          "internalType": "address",
          "name": "buyer",
          "type": "address"
        },
        {
          "internalType": "bool",
          "name": "isValid",
          "type": "bool"
        }
      ],
      "stateMutability": "view",
      "type": "function"
    },
    {
      "inputs": [
        {
          "internalType": "uint256",
          "name": "_eventId",
          "type": "uint256"
        },
        {
          "internalType": "uint256",
          "name": "_eventDate",
          "type": "uint256"
        }
      ],
      "name": "updateEventDate",
      "outputs": [],
      "stateMutability": "nonpayable",
      "type": "function"
    },
    {
      "inputs": [
        {
          "internalType": "uint256",
          "name": "_eventId",
          "type": "uint256"
        },
        {
          "internalType": "string",
          "name": "_eventName",
          "type": "string"
        }
      ],
      "name": "updateEventName",
      "outputs": [],
      "stateMutability": "nonpayable",
      "type": "function"
    },
    {
      "inputs": [
        {
          "internalType": "uint256",
          "name": "_eventId",
          "type": "uint256"
        },
        {
          "internalType": "uint256",
          "name": "_ticketCount",
          "type": "uint256"
        }
      ],
      "name": "updateTicketCount",
      "outputs": [],
      "stateMutability": "nonpayable",
      "type": "function"
    },
    {
      "inputs": [
        {
          "internalType": "uint256",
          "name": "_eventId",
          "type": "uint256"
        },
        {
          "internalType": "uint256",
          "name": "_ticketPrice",
          "type": "uint256"
        }
      ],
      "name": "updateTicketPrice",
      "outputs": [],
      "stateMutability": "nonpayable",
      "type": "function"
    },
    {
      "inputs": [],
      "name": "userCounter",
      "outputs": [
        {
          "internalType": "uint256",
          "name": "",
          "type": "uint256"
        }
      ],
      "stateMutability": "view",
      "type": "function"
    },
    {
      "inputs": [
        {
          "internalType": "address",
          "name": "",
          "type": "address"
        }
      ],
      "name": "users",
      "outputs": [
        {
          "internalType": "uint256",
          "name": "userId",
          "type": "uint256"
        },
        {
          "internalType": "address",
          "name": "userAddress",
          "type": "address"
        },
        {
          "internalType": "bool",
          "name": "hasRFIDCard",
          "type": "bool"
        }
      ],
      "stateMutability": "view",
      "type": "function"
    },
    {
      "inputs": [
        {
          "internalType": "uint256",
          "name": "_eventId",
          "type": "uint256"
        }
      ],
      "name": "withdrawPayment",
      "outputs": [],
      "stateMutability": "nonpayable",
      "type": "function"
    }
  ],
  "bytecode": "0x608060405234801561001057600080fd5b50336000806101000a81548173ffffffffffffffffffffffffffffffffffffffff021916908373ffffffffffffffffffffffffffffffffffffffff16021790555060016002819055506103e86003819055506103e8600481905550613ce08061007a6000396000f3fe6080604052600436106101665760003560e01c806367dd74ca116100d1578063c6d4ce471161008a578063e1495fac11610064578063e1495fac14610571578063e4aa47e3146105ae578063ec38d5a0146105eb578063f0c37a591461062857610166565b8063c6d4ce47146104e2578063cc3d967b1461050b578063dbd3cd621461054857610166565b806367dd74ca146103c9578063738201e9146103e55780638c4d59d0146104225780638da5cb5b1461044d578063a87430ba14610478578063c27a500d146104b757610166565b806326704c701161012357806326704c70146102925780632c49f35e146102cf578063458b514a146102f857806350b447121461033557806352c55db91461037557806356164e1e146103a057610166565b8063011b39501461016b5780630374ab0b146101945780630b791430146101bd57806311d04fcd1461020157806317d4357b1461022c57806324c1416014610255575b600080fd5b34801561017757600080fd5b50610192600480360381019061018d919061265f565b610653565b005b3480156101a057600080fd5b506101bb60048036038101906101b691906127e5565b61075a565b005b3480156101c957600080fd5b506101e460048036038101906101df9190612868565b6109c5565b6040516101f898979695949392919061297f565b60405180910390f35b34801561020d57600080fd5b50610216610ac2565b6040516102239190612a04565b60405180910390f35b34801561023857600080fd5b50610253600480360381019061024e9190612a1f565b610ac7565b005b34801561026157600080fd5b5061027c60048036038101906102779190612868565b610b95565b6040516102899190612afd565b60405180910390f35b34801561029e57600080fd5b506102b960048036038101906102b4919061265f565b610c9f565b6040516102c69190612b18565b60405180910390f35b3480156102db57600080fd5b506102f660048036038101906102f1919061265f565b610da4565b005b34801561030457600080fd5b5061031f600480360381019061031a9190612b5f565b610ec2565b60405161032c9190612c3b565b60405180910390f35b34801561034157600080fd5b5061035c60048036038101906103579190612868565b610f59565b60405161036c9493929190612c5d565b60405180910390f35b34801561038157600080fd5b5061038a610fb6565b6040516103979190612a04565b60405180910390f35b3480156103ac57600080fd5b506103c760048036038101906103c29190612868565b610fbc565b005b6103e360048036038101906103de9190612868565b6112b0565b005b3480156103f157600080fd5b5061040c60048036038101906104079190612b5f565b61197b565b6040516104199190612b18565b60405180910390f35b34801561042e57600080fd5b506104376119d5565b6040516104449190612a04565b60405180910390f35b34801561045957600080fd5b506104626119db565b60405161046f9190612ca2565b60405180910390f35b34801561048457600080fd5b5061049f600480360381019061049a9190612b5f565b6119ff565b6040516104ae93929190612cbd565b60405180910390f35b3480156104c357600080fd5b506104cc611a56565b6040516104d99190612eb0565b60405180910390f35b3480156104ee57600080fd5b506105096004803603810190610504919061265f565b611c5c565b005b34801561051757600080fd5b50610532600480360381019061052d9190612b5f565b611d7a565b60405161053f9190612fa4565b60405180910390f35b34801561055457600080fd5b5061056f600480360381019061056a9190612868565b611f76565b005b34801561057d57600080fd5b5061059860048036038101906105939190612b5f565b61227c565b6040516105a59190612b18565b60405180910390f35b3480156105ba57600080fd5b506105d560048036038101906105d09190612fc6565b61229c565b6040516105e29190612a04565b60405180910390f35b3480156105f757600080fd5b50610612600480360381019061060d9190612868565b6122cd565b60405161061f91906130b6565b60405180910390f35b34801561063457600080fd5b5061063d612488565b60405161064a9190612a04565b60405180910390f35b813373ffffffffffffffffffffffffffffffffffffffff166005600083815260200190815260200160002060060160009054906101000a900473ffffffffffffffffffffffffffffffffffffffff1673ffffffffffffffffffffffffffffffffffffffff16146106f8576040517f08c379a00000000000000000000000000000000000000000000000000000000081526004016106ef90613124565b60405180910390fd5b42821161073a576040517f08c379a000000000000000000000000000000000000000000000000000000000815260040161073190613190565b60405180910390fd5b816005600085815260200190815260200160002060020181905550505050565b42831161079c576040517f08c379a000000000000000000000000000000000000000000000000000000000815260040161079390613190565b60405180910390fd5b600081116107df576040517f08c379a00000000000000000000000000000000000000000000000000000000081526004016107d690613222565b60405180910390fd5b60008211610822576040517f08c379a0000000000000000000000000000000000000000000000000000000008152600401610819906132b4565b60405180910390fd5b6002600081548092919061083590613303565b91905055506040518061010001604052806002548152602001858152602001848152602001838152602001828152602001600081526020013373ffffffffffffffffffffffffffffffffffffffff168152602001600115158152506005600060025481526020019081526020016000206000820151816000015560208201518160010190816108c49190613557565b5060408201518160020155606082015181600301556080820151816004015560a0820151816005015560c08201518160060160006101000a81548173ffffffffffffffffffffffffffffffffffffffff021916908373ffffffffffffffffffffffffffffffffffffffff16021790555060e08201518160060160146101000a81548160ff021916908315150217905550905050600860003373ffffffffffffffffffffffffffffffffffffffff1673ffffffffffffffffffffffffffffffffffffffff168152602001908152602001600020600254908060018154018082558091505060019003906000526020600020016000909190919091505550505050565b60056020528060005260406000206000915090508060000154908060010180546109ee9061337a565b80601f0160208091040260200160405190810160405280929190818152602001828054610a1a9061337a565b8015610a675780601f10610a3c57610100808354040283529160200191610a67565b820191906000526020600020905b815481529060010190602001808311610a4a57829003601f168201915b5050505050908060020154908060030154908060040154908060050154908060060160009054906101000a900473ffffffffffffffffffffffffffffffffffffffff16908060060160149054906101000a900460ff16905088565b600a81565b813373ffffffffffffffffffffffffffffffffffffffff166005600083815260200190815260200160002060060160009054906101000a900473ffffffffffffffffffffffffffffffffffffffff1673ffffffffffffffffffffffffffffffffffffffff1614610b6c576040517f08c379a0000000000000000000000000000000000000000000000000000000008152600401610b6390613124565b60405180910390fd5b81600560008581526020019081526020016000206001019081610b8f9190613557565b50505050565b610b9d61248e565b81600660008481526020019081526020016000206000015414610bf5576040517f08c379a0000000000000000000000000000000000000000000000000000000008152600401610bec90613675565b60405180910390fd5b6006600083815260200190815260200160002060405180608001604052908160008201548152602001600182015481526020016002820160009054906101000a900473ffffffffffffffffffffffffffffffffffffffff1673ffffffffffffffffffffffffffffffffffffffff1673ffffffffffffffffffffffffffffffffffffffff1681526020016002820160149054906101000a900460ff1615151515815250509050919050565b600080600090505b600760003373ffffffffffffffffffffffffffffffffffffffff1673ffffffffffffffffffffffffffffffffffffffff16815260200190815260200160002060020180549050811015610d985782600760003373ffffffffffffffffffffffffffffffffffffffff1673ffffffffffffffffffffffffffffffffffffffff1681526020019081526020016000206002018281548110610d4957610d48613695565b5b9060005260206000200154148015610d765750836006600085815260200190815260200160002060010154145b15610d85576001915050610d9e565b8080610d9090613303565b915050610ca7565b50600090505b92915050565b813373ffffffffffffffffffffffffffffffffffffffff166005600083815260200190815260200160002060060160009054906101000a900473ffffffffffffffffffffffffffffffffffffffff1673ffffffffffffffffffffffffffffffffffffffff1614610e49576040517f08c379a0000000000000000000000000000000000000000000000000000000008152600401610e4090613124565b60405180910390fd5b6000600560008581526020019081526020016000206005015414610ea2576040517f08c379a0000000000000000000000000000000000000000000000000000000008152600401610e9990613710565b60405180910390fd5b816005600085815260200190815260200160002060030181905550505050565b6060600860008373ffffffffffffffffffffffffffffffffffffffff1673ffffffffffffffffffffffffffffffffffffffff168152602001908152602001600020805480602002602001604051908101604052809291908181526020018280548015610f4d57602002820191906000526020600020905b815481526020019060010190808311610f39575b50505050509050919050565b60066020528060005260406000206000915090508060000154908060010154908060020160009054906101000a900473ffffffffffffffffffffffffffffffffffffffff16908060020160149054906101000a900460ff16905084565b60025481565b803373ffffffffffffffffffffffffffffffffffffffff166005600083815260200190815260200160002060060160009054906101000a900473ffffffffffffffffffffffffffffffffffffffff1673ffffffffffffffffffffffffffffffffffffffff1614611061576040517f08c379a000000000000000000000000000000000000000000000000000000000815260040161105890613124565b60405180910390fd5b60006005600084815260200190815260200160002060050154146110ba576040517f08c379a00000000000000000000000000000000000000000000000000000000081526004016110b190613710565b60405180910390fd5b6005600083815260200190815260200160002060060160149054906101000a900460ff1661111d576040517f08c379a00000000000000000000000000000000000000000000000000000000081526004016111149061377c565b60405180910390fd5b6000600860003373ffffffffffffffffffffffffffffffffffffffff1673ffffffffffffffffffffffffffffffffffffffff168152602001908152602001600020905060005b8180549050811015611221578382828154811061118357611182613695565b5b90600052602060002001540361120e5781600183805490506111a5919061379c565b815481106111b6576111b5613695565b5b90600052602060002001548282815481106111d4576111d3613695565b5b9060005260206000200181905550818054806111f3576111f26137d0565b5b60019003818190600052602060002001600090559055611221565b808061121990613303565b915050611163565b506005600084815260200190815260200160002060008082016000905560018201600061124e91906124ce565b60028201600090556003820160009055600482016000905560058201600090556006820160006101000a81549073ffffffffffffffffffffffffffffffffffffffff02191690556006820160146101000a81549060ff02191690555050505050565b80600560008381526020019081526020016000206000015414611308576040517f08c379a00000000000000000000000000000000000000000000000000000000081526004016112ff9061384b565b60405180910390fd5b6000600560008381526020019081526020016000206004015411611361576040517f08c379a0000000000000000000000000000000000000000000000000000000008152600401611358906138b7565b60405180910390fd5b6005600082815260200190815260200160002060060160149054906101000a900460ff166113c4576040517f08c379a00000000000000000000000000000000000000000000000000000000081526004016113bb9061377c565b60405180910390fd5b60005b600760003373ffffffffffffffffffffffffffffffffffffffff1673ffffffffffffffffffffffffffffffffffffffff168152602001908152602001600020600201805490508110156114dd578160066000600760003373ffffffffffffffffffffffffffffffffffffffff1673ffffffffffffffffffffffffffffffffffffffff168152602001908152602001600020600201848154811061146d5761146c613695565b5b9060005260206000200154815260200190815260200160002060010154036114ca576040517f08c379a00000000000000000000000000000000000000000000000000000000081526004016114c190613923565b60405180910390fd5b80806114d590613303565b9150506113c7565b50600060056000838152602001908152602001600020600301549050600760003373ffffffffffffffffffffffffffffffffffffffff1673ffffffffffffffffffffffffffffffffffffffff16815260200190815260200160002060010160149054906101000a900460ff1661155d57600a8161155a9190613943565b90505b803410156115a0576040517f08c379a0000000000000000000000000000000000000000000000000000000008152600401611597906139c3565b60405180910390fd5b600360008154809291906115b390613303565b91905055506005600083815260200190815260200160002060040160008154809291906115df906139e3565b9190505550600760003373ffffffffffffffffffffffffffffffffffffffff1673ffffffffffffffffffffffffffffffffffffffff1681526020019081526020016000206002016003549080600181540180825580915050600190039060005260206000200160009091909190915055604051806080016040528060035481526020018381526020013373ffffffffffffffffffffffffffffffffffffffff16815260200160011515815250600660006003548152602001908152602001600020600082015181600001556020820151816001015560408201518160020160006101000a81548173ffffffffffffffffffffffffffffffffffffffff021916908373ffffffffffffffffffffffffffffffffffffffff16021790555060608201518160020160146101000a81548160ff021916908315150217905550905050600760003373ffffffffffffffffffffffffffffffffffffffff1673ffffffffffffffffffffffffffffffffffffffff16815260200190815260200160002060010160149054906101000a900460ff1661194b576004600081548092919061178590613303565b9190505550604051806080016040528060045481526020013373ffffffffffffffffffffffffffffffffffffffff168152602001600115158152602001600067ffffffffffffffff8111156117dd576117dc6126ba565b5b60405190808252806020026020018201604052801561180b5781602001602082028036833780820191505090505b50815250600760003373ffffffffffffffffffffffffffffffffffffffff1673ffffffffffffffffffffffffffffffffffffffff1681526020019081526020016000206000820151816000015560208201518160010160006101000a81548173ffffffffffffffffffffffffffffffffffffffff021916908373ffffffffffffffffffffffffffffffffffffffff16021790555060408201518160010160146101000a81548160ff02191690831515021790555060608201518160020190805190602001906118db92919061250e565b50905050600760003373ffffffffffffffffffffffffffffffffffffffff1673ffffffffffffffffffffffffffffffffffffffff16815260200190815260200160002060020160035490806001815401808255809150506001900390600052602060002001600090919091909150555b60056000838152602001908152602001600020600501600081548092919061197290613303565b91905055505050565b6000600760008373ffffffffffffffffffffffffffffffffffffffff1673ffffffffffffffffffffffffffffffffffffffff16815260200190815260200160002060010160149054906101000a900460ff16159050919050565b60035481565b60008054906101000a900473ffffffffffffffffffffffffffffffffffffffff1681565b60076020528060005260406000206000915090508060000154908060010160009054906101000a900473ffffffffffffffffffffffffffffffffffffffff16908060010160149054906101000a900460ff16905083565b6060600060025467ffffffffffffffff811115611a7657611a756126ba565b5b604051908082528060200260200182016040528015611aaf57816020015b611a9c61255b565b815260200190600190039081611a945790505b5090506000600190505b600254811015611c545760056000600183611ad49190613943565b81526020019081526020016000206040518061010001604052908160008201548152602001600182018054611b089061337a565b80601f0160208091040260200160405190810160405280929190818152602001828054611b349061337a565b8015611b815780601f10611b5657610100808354040283529160200191611b81565b820191906000526020600020905b815481529060010190602001808311611b6457829003601f168201915b50505050508152602001600282015481526020016003820154815260200160048201548152602001600582015481526020016006820160009054906101000a900473ffffffffffffffffffffffffffffffffffffffff1673ffffffffffffffffffffffffffffffffffffffff1673ffffffffffffffffffffffffffffffffffffffff1681526020016006820160149054906101000a900460ff161515151581525050828281518110611c3657611c35613695565b5b60200260200101819052508080611c4c90613303565b915050611ab9565b508091505090565b813373ffffffffffffffffffffffffffffffffffffffff166005600083815260200190815260200160002060060160009054906101000a900473ffffffffffffffffffffffffffffffffffffffff1673ffffffffffffffffffffffffffffffffffffffff1614611d01576040517f08c379a0000000000000000000000000000000000000000000000000000000008152600401611cf890613124565b60405180910390fd5b8160056000858152602001908152602001600020600501541115611d5a576040517f08c379a0000000000000000000000000000000000000000000000000000000008152600401611d5190613aa4565b60405180910390fd5b816005600085815260200190815260200160002060040181905550505050565b611d826125b8565b8173ffffffffffffffffffffffffffffffffffffffff16600760008473ffffffffffffffffffffffffffffffffffffffff1673ffffffffffffffffffffffffffffffffffffffff16815260200190815260200160002060010160009054906101000a900473ffffffffffffffffffffffffffffffffffffffff1673ffffffffffffffffffffffffffffffffffffffff1614611e52576040517f08c379a0000000000000000000000000000000000000000000000000000000008152600401611e4990613b10565b60405180910390fd5b600760008373ffffffffffffffffffffffffffffffffffffffff1673ffffffffffffffffffffffffffffffffffffffff168152602001908152602001600020604051806080016040529081600082015481526020016001820160009054906101000a900473ffffffffffffffffffffffffffffffffffffffff1673ffffffffffffffffffffffffffffffffffffffff1673ffffffffffffffffffffffffffffffffffffffff1681526020016001820160149054906101000a900460ff1615151515815260200160028201805480602002602001604051908101604052809291908181526020018280548015611f6657602002820191906000526020600020905b815481526020019060010190808311611f52575b5050505050815250509050919050565b803373ffffffffffffffffffffffffffffffffffffffff166005600083815260200190815260200160002060060160009054906101000a900473ffffffffffffffffffffffffffffffffffffffff1673ffffffffffffffffffffffffffffffffffffffff161461201b576040517f08c379a000000000000000000000000000000000000000000000000000000000815260040161201290613124565b60405180910390fd5b42600560008481526020019081526020016000206002015410612073576040517f08c379a000000000000000000000000000000000000000000000000000000000815260040161206a90613b7c565b60405180910390fd5b60006005600084815260200190815260200160002060050154116120cc576040517f08c379a00000000000000000000000000000000000000000000000000000000081526004016120c390613be8565b60405180910390fd5b6005600083815260200190815260200160002060060160149054906101000a900460ff1661212f576040517f08c379a00000000000000000000000000000000000000000000000000000000081526004016121269061377c565b60405180910390fd5b6000600560008481526020019081526020016000206005015460056000858152602001908152602001600020600301546121699190613c08565b90506000606460058361217c9190613c08565b6121869190613c79565b905060008183612196919061379c565b905060008054906101000a900473ffffffffffffffffffffffffffffffffffffffff1673ffffffffffffffffffffffffffffffffffffffff166108fc839081150290604051600060405180830381858888f193505050501580156121fe573d6000803e3d6000fd5b503373ffffffffffffffffffffffffffffffffffffffff166108fc829081150290604051600060405180830381858888f19350505050158015612245573d6000803e3d6000fd5b5060006005600087815260200190815260200160002060060160146101000a81548160ff0219169083151502179055505050505050565b60016020528060005260406000206000915054906101000a900460ff1681565b600860205281600052604060002081815481106122b857600080fd5b90600052602060002001600091509150505481565b6122d561255b565b8160056000848152602001908152602001600020600001541461232d576040517f08c379a00000000000000000000000000000000000000000000000000000000081526004016123249061384b565b60405180910390fd5b6005600083815260200190815260200160002060405180610100016040529081600082015481526020016001820180546123669061337a565b80601f01602080910402602001604051908101604052809291908181526020018280546123929061337a565b80156123df5780601f106123b4576101008083540402835291602001916123df565b820191906000526020600020905b8154815290600101906020018083116123c257829003601f168201915b50505050508152602001600282015481526020016003820154815260200160048201548152602001600582015481526020016006820160009054906101000a900473ffffffffffffffffffffffffffffffffffffffff1673ffffffffffffffffffffffffffffffffffffffff1673ffffffffffffffffffffffffffffffffffffffff1681526020016006820160149054906101000a900460ff1615151515815250509050919050565b60045481565b60405180608001604052806000815260200160008152602001600073ffffffffffffffffffffffffffffffffffffffff1681526020016000151581525090565b5080546124da9061337a565b6000825580601f106124ec575061250b565b601f01602090049060005260206000209081019061250a91906125f8565b5b50565b82805482825590600052602060002090810192821561254a579160200282015b8281111561254957825182559160200191906001019061252e565b5b50905061255791906125f8565b5090565b604051806101000160405280600081526020016060815260200160008152602001600081526020016000815260200160008152602001600073ffffffffffffffffffffffffffffffffffffffff1681526020016000151581525090565b604051806080016040528060008152602001600073ffffffffffffffffffffffffffffffffffffffff168152602001600015158152602001606081525090565b5b808211156126115760008160009055506001016125f9565b5090565b6000604051905090565b600080fd5b600080fd5b6000819050919050565b61263c81612629565b811461264757600080fd5b50565b60008135905061265981612633565b92915050565b600080604083850312156126765761267561261f565b5b60006126848582860161264a565b92505060206126958582860161264a565b9150509250929050565b600080fd5b600080fd5b6000601f19601f8301169050919050565b7f4e487b7100000000000000000000000000000000000000000000000000000000600052604160045260246000fd5b6126f2826126a9565b810181811067ffffffffffffffff82111715612711576127106126ba565b5b80604052505050565b6000612724612615565b905061273082826126e9565b919050565b600067ffffffffffffffff8211156127505761274f6126ba565b5b612759826126a9565b9050602081019050919050565b82818337600083830152505050565b600061278861278384612735565b61271a565b9050828152602081018484840111156127a4576127a36126a4565b5b6127af848285612766565b509392505050565b600082601f8301126127cc576127cb61269f565b5b81356127dc848260208601612775565b91505092915050565b600080600080608085870312156127ff576127fe61261f565b5b600085013567ffffffffffffffff81111561281d5761281c612624565b5b612829878288016127b7565b945050602061283a8782880161264a565b935050604061284b8782880161264a565b925050606061285c8782880161264a565b91505092959194509250565b60006020828403121561287e5761287d61261f565b5b600061288c8482850161264a565b91505092915050565b61289e81612629565b82525050565b600081519050919050565b600082825260208201905092915050565b60005b838110156128de5780820151818401526020810190506128c3565b60008484015250505050565b60006128f5826128a4565b6128ff81856128af565b935061290f8185602086016128c0565b612918816126a9565b840191505092915050565b600073ffffffffffffffffffffffffffffffffffffffff82169050919050565b600061294e82612923565b9050919050565b61295e81612943565b82525050565b60008115159050919050565b61297981612964565b82525050565b600061010082019050612995600083018b612895565b81810360208301526129a7818a6128ea565b90506129b66040830189612895565b6129c36060830188612895565b6129d06080830187612895565b6129dd60a0830186612895565b6129ea60c0830185612955565b6129f760e0830184612970565b9998505050505050505050565b6000602082019050612a196000830184612895565b92915050565b60008060408385031215612a3657612a3561261f565b5b6000612a448582860161264a565b925050602083013567ffffffffffffffff811115612a6557612a64612624565b5b612a71858286016127b7565b9150509250929050565b612a8481612629565b82525050565b612a9381612943565b82525050565b612aa281612964565b82525050565b608082016000820151612abe6000850182612a7b565b506020820151612ad16020850182612a7b565b506040820151612ae46040850182612a8a565b506060820151612af76060850182612a99565b50505050565b6000608082019050612b126000830184612aa8565b92915050565b6000602082019050612b2d6000830184612970565b92915050565b612b3c81612943565b8114612b4757600080fd5b50565b600081359050612b5981612b33565b92915050565b600060208284031215612b7557612b7461261f565b5b6000612b8384828501612b4a565b91505092915050565b600081519050919050565b600082825260208201905092915050565b6000819050602082019050919050565b6000612bc48383612a7b565b60208301905092915050565b6000602082019050919050565b6000612be882612b8c565b612bf28185612b97565b9350612bfd83612ba8565b8060005b83811015612c2e578151612c158882612bb8565b9750612c2083612bd0565b925050600181019050612c01565b5085935050505092915050565b60006020820190508181036000830152612c558184612bdd565b905092915050565b6000608082019050612c726000830187612895565b612c7f6020830186612895565b612c8c6040830185612955565b612c996060830184612970565b95945050505050565b6000602082019050612cb76000830184612955565b92915050565b6000606082019050612cd26000830186612895565b612cdf6020830185612955565b612cec6040830184612970565b949350505050565b600081519050919050565b600082825260208201905092915050565b6000819050602082019050919050565b600082825260208201905092915050565b6000612d3c826128a4565b612d468185612d20565b9350612d568185602086016128c0565b612d5f816126a9565b840191505092915050565b600061010083016000830151612d836000860182612a7b565b5060208301518482036020860152612d9b8282612d31565b9150506040830151612db06040860182612a7b565b506060830151612dc36060860182612a7b565b506080830151612dd66080860182612a7b565b5060a0830151612de960a0860182612a7b565b5060c0830151612dfc60c0860182612a8a565b5060e0830151612e0f60e0860182612a99565b508091505092915050565b6000612e268383612d6a565b905092915050565b6000602082019050919050565b6000612e4682612cf4565b612e508185612cff565b935083602082028501612e6285612d10565b8060005b85811015612e9e5784840389528151612e7f8582612e1a565b9450612e8a83612e2e565b925060208a01995050600181019050612e66565b50829750879550505050505092915050565b60006020820190508181036000830152612eca8184612e3b565b905092915050565b600082825260208201905092915050565b6000612eee82612b8c565b612ef88185612ed2565b9350612f0383612ba8565b8060005b83811015612f34578151612f1b8882612bb8565b9750612f2683612bd0565b925050600181019050612f07565b5085935050505092915050565b6000608083016000830151612f596000860182612a7b565b506020830151612f6c6020860182612a8a565b506040830151612f7f6040860182612a99565b5060608301518482036060860152612f978282612ee3565b9150508091505092915050565b60006020820190508181036000830152612fbe8184612f41565b905092915050565b60008060408385031215612fdd57612fdc61261f565b5b6000612feb85828601612b4a565b9250506020612ffc8582860161264a565b9150509250929050565b60006101008301600083015161301f6000860182612a7b565b50602083015184820360208601526130378282612d31565b915050604083015161304c6040860182612a7b565b50606083015161305f6060860182612a7b565b5060808301516130726080860182612a7b565b5060a083015161308560a0860182612a7b565b5060c083015161309860c0860182612a8a565b5060e08301516130ab60e0860182612a99565b508091505092915050565b600060208201905081810360008301526130d08184613006565b905092915050565b7f596f7520617265206e6f7420746865206576656e74206f7267616e697a657200600082015250565b600061310e601f836128af565b9150613119826130d8565b602082019050919050565b6000602082019050818103600083015261313d81613101565b9050919050565b7f4576656e742064617465206d75737420626520696e2074686520667574757265600082015250565b600061317a6020836128af565b915061318582613144565b602082019050919050565b600060208201905081810360008301526131a98161316d565b9050919050565b7f5469636b657420636f756e74206d75737420626520677265617465722074686160008201527f6e20300000000000000000000000000000000000000000000000000000000000602082015250565b600061320c6023836128af565b9150613217826131b0565b604082019050919050565b6000602082019050818103600083015261323b816131ff565b9050919050565b7f5469636b6574207072696365206d75737420626520677265617465722074686160008201527f6e20300000000000000000000000000000000000000000000000000000000000602082015250565b600061329e6023836128af565b91506132a982613242565b604082019050919050565b600060208201905081810360008301526132cd81613291565b9050919050565b7f4e487b7100000000000000000000000000000000000000000000000000000000600052601160045260246000fd5b600061330e82612629565b91507fffffffffffffffffffffffffffffffffffffffffffffffffffffffffffffffff82036133405761333f6132d4565b5b600182019050919050565b7f4e487b7100000000000000000000000000000000000000000000000000000000600052602260045260246000fd5b6000600282049050600182168061339257607f821691505b6020821081036133a5576133a461334b565b5b50919050565b60008190508160005260206000209050919050565b60006020601f8301049050919050565b600082821b905092915050565b60006008830261340d7fffffffffffffffffffffffffffffffffffffffffffffffffffffffffffffffff826133d0565b61341786836133d0565b95508019841693508086168417925050509392505050565b6000819050919050565b600061345461344f61344a84612629565b61342f565b612629565b9050919050565b6000819050919050565b61346e83613439565b61348261347a8261345b565b8484546133dd565b825550505050565b600090565b61349761348a565b6134a2818484613465565b505050565b5b818110156134c6576134bb60008261348f565b6001810190506134a8565b5050565b601f82111561350b576134dc816133ab565b6134e5846133c0565b810160208510156134f4578190505b613508613500856133c0565b8301826134a7565b50505b505050565b600082821c905092915050565b600061352e60001984600802613510565b1980831691505092915050565b6000613547838361351d565b9150826002028217905092915050565b613560826128a4565b67ffffffffffffffff811115613579576135786126ba565b5b613583825461337a565b61358e8282856134ca565b600060209050601f8311600181146135c157600084156135af578287015190505b6135b9858261353b565b865550613621565b601f1984166135cf866133ab565b60005b828110156135f7578489015182556001820191506020850194506020810190506135d2565b868310156136145784890151613610601f89168261351d565b8355505b6001600288020188555050505b505050505050565b7f5469636b657420646f6573206e6f742065786973740000000000000000000000600082015250565b600061365f6015836128af565b915061366a82613629565b602082019050919050565b6000602082019050818103600083015261368e81613652565b9050919050565b7f4e487b7100000000000000000000000000000000000000000000000000000000600052603260045260246000fd5b7f5469636b657473206861766520616c7265616479206265656e20736f6c640000600082015250565b60006136fa601e836128af565b9150613705826136c4565b602082019050919050565b60006020820190508181036000830152613729816136ed565b9050919050565b7f4576656e74206973206e6f742076616c69640000000000000000000000000000600082015250565b60006137666012836128af565b915061377182613730565b602082019050919050565b6000602082019050818103600083015261379581613759565b9050919050565b60006137a782612629565b91506137b283612629565b92508282039050818111156137ca576137c96132d4565b5b92915050565b7f4e487b7100000000000000000000000000000000000000000000000000000000600052603160045260246000fd5b7f4576656e7420646f6573206e6f74206578697374000000000000000000000000600082015250565b60006138356014836128af565b9150613840826137ff565b602082019050919050565b6000602082019050818103600083015261386481613828565b9050919050565b7f4e6f206d6f7265207469636b65747320617661696c61626c6500000000000000600082015250565b60006138a16019836128af565b91506138ac8261386b565b602082019050919050565b600060208201905081810360008301526138d081613894565b9050919050565b7f5469636b657420616c726561647920626f756768740000000000000000000000600082015250565b600061390d6015836128af565b9150613918826138d7565b602082019050919050565b6000602082019050818103600083015261393c81613900565b9050919050565b600061394e82612629565b915061395983612629565b9250828201905080821115613971576139706132d4565b5b92915050565b7f496e636f727265637420616d6f756e742073656e740000000000000000000000600082015250565b60006139ad6015836128af565b91506139b882613977565b602082019050919050565b600060208201905081810360008301526139dc816139a0565b9050919050565b60006139ee82612629565b915060008203613a0157613a006132d4565b5b600182039050919050565b7f4e6577207469636b657420636f756e74206d757374206265206772656174657260008201527f207468616e206f7220657175616c20746f20746865206e756d626572206f662060208201527f7469636b65747320616c726561647920736f6c64000000000000000000000000604082015250565b6000613a8e6054836128af565b9150613a9982613a0c565b606082019050919050565b60006020820190508181036000830152613abd81613a81565b9050919050565b7f5573657220646f6573206e6f7420657869737400000000000000000000000000600082015250565b6000613afa6013836128af565b9150613b0582613ac4565b602082019050919050565b60006020820190508181036000830152613b2981613aed565b9050919050565b7f4576656e74206973206e6f74206f766572207965740000000000000000000000600082015250565b6000613b666015836128af565b9150613b7182613b30565b602082019050919050565b60006020820190508181036000830152613b9581613b59565b9050919050565b7f4e6f207469636b65747320736f6c640000000000000000000000000000000000600082015250565b6000613bd2600f836128af565b9150613bdd82613b9c565b602082019050919050565b60006020820190508181036000830152613c0181613bc5565b9050919050565b6000613c1382612629565b9150613c1e83612629565b9250828202613c2c81612629565b91508282048414831517613c4357613c426132d4565b5b5092915050565b7f4e487b7100000000000000000000000000000000000000000000000000000000600052601260045260246000fd5b6000613c8482612629565b9150613c8f83612629565b925082613c9f57613c9e613c4a565b5b82820490509291505056fea2646970667358221220e887ecf8088feae57be74f8a8460b39a5da3f51ba67a3cb3eca7e2ec59e2dda564736f6c63430008130033",
  "linkReferences": {},
  "deployedLinkReferences": {}
}