{
  "_format": "hh-sol-artifact-1",
  "contractName": "SecurePass",
  "sourceName": "contracts/SecurePass.sol",
  "abi": [
    {
      "inputs": [],
      "stateMutability": "nonpayable",
      "type": "constructor"
    },
    {
      "inputs": [],
      "name": "RFID_CARD_COST",
      "outputs": [
        {
          "internalType": "uint256",
          "name": "",
          "type": "uint256"
        }
      ],
      "stateMutability": "view",
      "type": "function"
    },
    {
      "inputs": [
        {
          "internalType": "uint256",
          "name": "_eventId",
          "type": "uint256"
        }
      ],
      "name": "buyTicket",
      "outputs": [],
      "stateMutability": "payable",
      "type": "function"
    },
    {
      "inputs": [
        {
          "internalType": "string",
          "name": "_eventName",
          "type": "string"
        },
        {
          "internalType": "uint256",
          "name": "_eventDate",
          "type": "uint256"
        },
        {
          "internalType": "uint256",
          "name": "_ticketPrice",
          "type": "uint256"
        },
        {
          "internalType": "uint256",
          "name": "_ticketCount",
          "type": "uint256"
        }
      ],
      "name": "createEvent",
      "outputs": [],
      "stateMutability": "nonpayable",
      "type": "function"
    },
    {
      "inputs": [],
      "name": "eventCounter",
      "outputs": [
        {
          "internalType": "uint256",
          "name": "",
          "type": "uint256"
        }
      ],
      "stateMutability": "view",
      "type": "function"
    },
    {
      "inputs": [
        {
          "internalType": "address",
          "name": "",
          "type": "address"
        }
      ],
      "name": "eventOrganizers",
      "outputs": [
        {
          "internalType": "bool",
          "name": "",
          "type": "bool"
        }
      ],
      "stateMutability": "view",
      "type": "function"
    },
    {
      "inputs": [
        {
          "internalType": "uint256",
          "name": "",
          "type": "uint256"
        }
      ],
      "name": "events",
      "outputs": [
        {
          "internalType": "uint256",
          "name": "eventId",
          "type": "uint256"
        },
        {
          "internalType": "string",
          "name": "eventName",
          "type": "string"
        },
        {
          "internalType": "uint256",
          "name": "eventDate",
          "type": "uint256"
        },
        {
          "internalType": "uint256",
          "name": "ticketPrice",
          "type": "uint256"
        },
        {
          "internalType": "uint256",
          "name": "ticketCount",
          "type": "uint256"
        },
        {
          "internalType": "uint256",
          "name": "ticketSold",
          "type": "uint256"
        },
        {
          "internalType": "address",
          "name": "eventOrganizers",
          "type": "address"
        },
        {
          "internalType": "bool",
          "name": "isValid",
          "type": "bool"
        }
      ],
      "stateMutability": "view",
      "type": "function"
    },
    {
      "inputs": [],
      "name": "getAllEvents",
      "outputs": [
        {
          "components": [
            {
              "internalType": "uint256",
              "name": "eventId",
              "type": "uint256"
            },
            {
              "internalType": "string",
              "name": "eventName",
              "type": "string"
            },
            {
              "internalType": "uint256",
              "name": "eventDate",
              "type": "uint256"
            },
            {
              "internalType": "uint256",
              "name": "ticketPrice",
              "type": "uint256"
            },
            {
              "internalType": "uint256",
              "name": "ticketCount",
              "type": "uint256"
            },
            {
              "internalType": "uint256",
              "name": "ticketSold",
              "type": "uint256"
            },
            {
              "internalType": "address",
              "name": "eventOrganizers",
              "type": "address"
            },
            {
              "internalType": "bool",
              "name": "isValid",
              "type": "bool"
            }
          ],
          "internalType": "struct SecurePass.Event[]",
          "name": "",
          "type": "tuple[]"
        }
      ],
      "stateMutability": "view",
      "type": "function"
    },
    {
      "inputs": [
        {
          "internalType": "uint256",
          "name": "_eventId",
          "type": "uint256"
        }
      ],
      "name": "getEventDetails",
      "outputs": [
        {
          "components": [
            {
              "internalType": "uint256",
              "name": "eventId",
              "type": "uint256"
            },
            {
              "internalType": "string",
              "name": "eventName",
              "type": "string"
            },
            {
              "internalType": "uint256",
              "name": "eventDate",
              "type": "uint256"
            },
            {
              "internalType": "uint256",
              "name": "ticketPrice",
              "type": "uint256"
            },
            {
              "internalType": "uint256",
              "name": "ticketCount",
              "type": "uint256"
            },
            {
              "internalType": "uint256",
              "name": "ticketSold",
              "type": "uint256"
            },
            {
              "internalType": "address",
              "name": "eventOrganizers",
              "type": "address"
            },
            {
              "internalType": "bool",
              "name": "isValid",
              "type": "bool"
            }
          ],
          "internalType": "struct SecurePass.Event",
          "name": "",
          "type": "tuple"
        }
      ],
      "stateMutability": "view",
      "type": "function"
    },
    {
      "inputs": [
        {
          "internalType": "address",
          "name": "organizer",
          "type": "address"
        }
      ],
      "name": "getEventIdsOfAUser",
      "outputs": [
        {
          "internalType": "uint256[]",
          "name": "",
          "type": "uint256[]"
        }
      ],
      "stateMutability": "view",
      "type": "function"
    },
    {
      "inputs": [
        {
          "internalType": "uint256",
          "name": "_ticketId",
          "type": "uint256"
        }
      ],
      "name": "getTicketDetails",
      "outputs": [
        {
          "components": [
            {
              "internalType": "uint256",
              "name": "ticketId",
              "type": "uint256"
            },
            {
              "internalType": "uint256",
              "name": "eventId",
              "type": "uint256"
            },
            {
              "internalType": "address",
              "name": "buyer",
              "type": "address"
            },
            {
              "internalType": "bool",
              "name": "isValid",
              "type": "bool"
            }
          ],
          "internalType": "struct SecurePass.Ticket",
          "name": "",
          "type": "tuple"
        }
      ],
      "stateMutability": "view",
      "type": "function"
    },
    {
      "inputs": [
        {
          "internalType": "address",
          "name": "_userAddress",
          "type": "address"
        }
      ],
      "name": "getUserDetails",
      "outputs": [
        {
          "components": [
            {
              "internalType": "uint256",
              "name": "userId",
              "type": "uint256"
            },
            {
              "internalType": "address",
              "name": "userAddress",
              "type": "address"
            },
            {
              "internalType": "bool",
              "name": "hasRFIDCard",
              "type": "bool"
            },
            {
              "internalType": "uint256[]",
              "name": "ticketsArray",
              "type": "uint256[]"
            }
          ],
          "internalType": "struct SecurePass.User",
          "name": "",
          "type": "tuple"
        }
      ],
      "stateMutability": "view",
      "type": "function"
    },
    {
      "inputs": [
        {
          "internalType": "address",
          "name": "user",
          "type": "address"
        }
      ],
      "name": "isNewuser",
      "outputs": [
        {
          "internalType": "bool",
          "name": "",
          "type": "bool"
        }
      ],
      "stateMutability": "view",
      "type": "function"
    },
    {
      "inputs": [
        {
          "internalType": "uint256",
          "name": "_eventId",
          "type": "uint256"
        },
        {
          "internalType": "uint256",
          "name": "_userID",
          "type": "uint256"
        }
      ],
      "name": "isTicketValid",
      "outputs": [
        {
          "internalType": "bool",
          "name": "",
          "type": "bool"
        }
      ],
      "stateMutability": "view",
      "type": "function"
    },
    {
      "inputs": [
        {
          "internalType": "address",
          "name": "",
          "type": "address"
        },
        {
          "internalType": "uint256",
          "name": "",
          "type": "uint256"
        }
      ],
      "name": "organizerEvents",
      "outputs": [
        {
          "internalType": "uint256",
          "name": "",
          "type": "uint256"
        }
      ],
      "stateMutability": "view",
      "type": "function"
    },
    {
      "inputs": [],
      "name": "owner",
      "outputs": [
        {
          "internalType": "address",
          "name": "",
          "type": "address"
        }
      ],
      "stateMutability": "view",
      "type": "function"
    },
    {
      "inputs": [
        {
          "internalType": "uint256",
          "name": "_eventId",
          "type": "uint256"
        }
      ],
      "name": "removeEvent",
      "outputs": [],
      "stateMutability": "nonpayable",
      "type": "function"
    },
    {
      "inputs": [],
      "name": "ticketCounter",
      "outputs": [
        {
          "internalType": "uint256",
          "name": "",
          "type": "uint256"
        }
      ],
      "stateMutability": "view",
      "type": "function"
    },
    {
      "inputs": [
        {
          "internalType": "uint256",
          "name": "",
          "type": "uint256"
        }
      ],
      "name": "tickets",
      "outputs": [
        {
          "internalType": "uint256",
          "name": "ticketId",
          "type": "uint256"
        },
        {
          "internalType": "uint256",
          "name": "eventId",
          "type": "uint256"
        },
        {
          "internalType": "address",
          "name": "buyer",
          "type": "address"
        },
        {
          "internalType": "bool",
          "name": "isValid",
          "type": "bool"
        }
      ],
      "stateMutability": "view",
      "type": "function"
    },
    {
      "inputs": [
        {
          "internalType": "uint256",
          "name": "_eventId",
          "type": "uint256"
        },
        {
          "internalType": "uint256",
          "name": "_eventDate",
          "type": "uint256"
        }
      ],
      "name": "updateEventDate",
      "outputs": [],
      "stateMutability": "nonpayable",
      "type": "function"
    },
    {
      "inputs": [
        {
          "internalType": "uint256",
          "name": "_eventId",
          "type": "uint256"
        },
        {
          "internalType": "string",
          "name": "_eventName",
          "type": "string"
        }
      ],
      "name": "updateEventName",
      "outputs": [],
      "stateMutability": "nonpayable",
      "type": "function"
    },
    {
      "inputs": [
        {
          "internalType": "uint256",
          "name": "_eventId",
          "type": "uint256"
        },
        {
          "internalType": "uint256",
          "name": "_ticketCount",
          "type": "uint256"
        }
      ],
      "name": "updateTicketCount",
      "outputs": [],
      "stateMutability": "nonpayable",
      "type": "function"
    },
    {
      "inputs": [
        {
          "internalType": "uint256",
          "name": "_eventId",
          "type": "uint256"
        },
        {
          "internalType": "uint256",
          "name": "_ticketPrice",
          "type": "uint256"
        }
      ],
      "name": "updateTicketPrice",
      "outputs": [],
      "stateMutability": "nonpayable",
      "type": "function"
    },
    {
      "inputs": [],
      "name": "userCounter",
      "outputs": [
        {
          "internalType": "uint256",
          "name": "",
          "type": "uint256"
        }
      ],
      "stateMutability": "view",
      "type": "function"
    },
    {
      "inputs": [
        {
          "internalType": "address",
          "name": "",
          "type": "address"
        }
      ],
      "name": "users",
      "outputs": [
        {
          "internalType": "uint256",
          "name": "userId",
          "type": "uint256"
        },
        {
          "internalType": "address",
          "name": "userAddress",
          "type": "address"
        },
        {
          "internalType": "bool",
          "name": "hasRFIDCard",
          "type": "bool"
        }
      ],
      "stateMutability": "view",
      "type": "function"
    },
    {
      "inputs": [
        {
          "internalType": "uint256",
          "name": "_eventId",
          "type": "uint256"
        }
      ],
      "name": "withdrawPayment",
      "outputs": [],
      "stateMutability": "nonpayable",
      "type": "function"
    }
  ],
  "bytecode": "0x608060405234801561001057600080fd5b50336000806101000a81548173ffffffffffffffffffffffffffffffffffffffff021916908373ffffffffffffffffffffffffffffffffffffffff1602179055506103e86002819055506103e86003819055506103e8600481905550613ce18061007b6000396000f3fe6080604052600436106101665760003560e01c806367dd74ca116100d1578063c6d4ce471161008a578063e1495fac11610064578063e1495fac14610571578063e4aa47e3146105ae578063ec38d5a0146105eb578063f0c37a591461062857610166565b8063c6d4ce47146104e2578063cc3d967b1461050b578063dbd3cd621461054857610166565b806367dd74ca146103c9578063738201e9146103e55780638c4d59d0146104225780638da5cb5b1461044d578063a87430ba14610478578063c27a500d146104b757610166565b806326704c701161012357806326704c70146102925780632c49f35e146102cf578063458b514a146102f857806350b447121461033557806352c55db91461037557806356164e1e146103a057610166565b8063011b39501461016b5780630374ab0b146101945780630b791430146101bd57806311d04fcd1461020157806317d4357b1461022c57806324c1416014610255575b600080fd5b34801561017757600080fd5b50610192600480360381019061018d9190612660565b610653565b005b3480156101a057600080fd5b506101bb60048036038101906101b691906127e6565b61075a565b005b3480156101c957600080fd5b506101e460048036038101906101df9190612869565b6109c5565b6040516101f8989796959493929190612980565b60405180910390f35b34801561020d57600080fd5b50610216610ac2565b6040516102239190612a05565b60405180910390f35b34801561023857600080fd5b50610253600480360381019061024e9190612a20565b610ac7565b005b34801561026157600080fd5b5061027c60048036038101906102779190612869565b610b95565b6040516102899190612afe565b60405180910390f35b34801561029e57600080fd5b506102b960048036038101906102b49190612660565b610c9f565b6040516102c69190612b19565b60405180910390f35b3480156102db57600080fd5b506102f660048036038101906102f19190612660565b610da4565b005b34801561030457600080fd5b5061031f600480360381019061031a9190612b60565b610ec2565b60405161032c9190612c3c565b60405180910390f35b34801561034157600080fd5b5061035c60048036038101906103579190612869565b610f59565b60405161036c9493929190612c5e565b60405180910390f35b34801561038157600080fd5b5061038a610fb6565b6040516103979190612a05565b60405180910390f35b3480156103ac57600080fd5b506103c760048036038101906103c29190612869565b610fbc565b005b6103e360048036038101906103de9190612869565b6112b0565b005b3480156103f157600080fd5b5061040c60048036038101906104079190612b60565b61197b565b6040516104199190612b19565b60405180910390f35b34801561042e57600080fd5b506104376119d5565b6040516104449190612a05565b60405180910390f35b34801561045957600080fd5b506104626119db565b60405161046f9190612ca3565b60405180910390f35b34801561048457600080fd5b5061049f600480360381019061049a9190612b60565b6119ff565b6040516104ae93929190612cbe565b60405180910390f35b3480156104c357600080fd5b506104cc611a56565b6040516104d99190612eb1565b60405180910390f35b3480156104ee57600080fd5b5061050960048036038101906105049190612660565b611c5d565b005b34801561051757600080fd5b50610532600480360381019061052d9190612b60565b611d7b565b60405161053f9190612fa5565b60405180910390f35b34801561055457600080fd5b5061056f600480360381019061056a9190612869565b611f77565b005b34801561057d57600080fd5b5061059860048036038101906105939190612b60565b61227d565b6040516105a59190612b19565b60405180910390f35b3480156105ba57600080fd5b506105d560048036038101906105d09190612fc7565b61229d565b6040516105e29190612a05565b60405180910390f35b3480156105f757600080fd5b50610612600480360381019061060d9190612869565b6122ce565b60405161061f91906130b7565b60405180910390f35b34801561063457600080fd5b5061063d612489565b60405161064a9190612a05565b60405180910390f35b813373ffffffffffffffffffffffffffffffffffffffff166005600083815260200190815260200160002060060160009054906101000a900473ffffffffffffffffffffffffffffffffffffffff1673ffffffffffffffffffffffffffffffffffffffff16146106f8576040517f08c379a00000000000000000000000000000000000000000000000000000000081526004016106ef90613125565b60405180910390fd5b42821161073a576040517f08c379a000000000000000000000000000000000000000000000000000000000815260040161073190613191565b60405180910390fd5b816005600085815260200190815260200160002060020181905550505050565b42831161079c576040517f08c379a000000000000000000000000000000000000000000000000000000000815260040161079390613191565b60405180910390fd5b600081116107df576040517f08c379a00000000000000000000000000000000000000000000000000000000081526004016107d690613223565b60405180910390fd5b60008211610822576040517f08c379a0000000000000000000000000000000000000000000000000000000008152600401610819906132b5565b60405180910390fd5b6002600081548092919061083590613304565b91905055506040518061010001604052806002548152602001858152602001848152602001838152602001828152602001600081526020013373ffffffffffffffffffffffffffffffffffffffff168152602001600115158152506005600060025481526020019081526020016000206000820151816000015560208201518160010190816108c49190613558565b5060408201518160020155606082015181600301556080820151816004015560a0820151816005015560c08201518160060160006101000a81548173ffffffffffffffffffffffffffffffffffffffff021916908373ffffffffffffffffffffffffffffffffffffffff16021790555060e08201518160060160146101000a81548160ff021916908315150217905550905050600860003373ffffffffffffffffffffffffffffffffffffffff1673ffffffffffffffffffffffffffffffffffffffff168152602001908152602001600020600254908060018154018082558091505060019003906000526020600020016000909190919091505550505050565b60056020528060005260406000206000915090508060000154908060010180546109ee9061337b565b80601f0160208091040260200160405190810160405280929190818152602001828054610a1a9061337b565b8015610a675780601f10610a3c57610100808354040283529160200191610a67565b820191906000526020600020905b815481529060010190602001808311610a4a57829003601f168201915b5050505050908060020154908060030154908060040154908060050154908060060160009054906101000a900473ffffffffffffffffffffffffffffffffffffffff16908060060160149054906101000a900460ff16905088565b600a81565b813373ffffffffffffffffffffffffffffffffffffffff166005600083815260200190815260200160002060060160009054906101000a900473ffffffffffffffffffffffffffffffffffffffff1673ffffffffffffffffffffffffffffffffffffffff1614610b6c576040517f08c379a0000000000000000000000000000000000000000000000000000000008152600401610b6390613125565b60405180910390fd5b81600560008581526020019081526020016000206001019081610b8f9190613558565b50505050565b610b9d61248f565b81600660008481526020019081526020016000206000015414610bf5576040517f08c379a0000000000000000000000000000000000000000000000000000000008152600401610bec90613676565b60405180910390fd5b6006600083815260200190815260200160002060405180608001604052908160008201548152602001600182015481526020016002820160009054906101000a900473ffffffffffffffffffffffffffffffffffffffff1673ffffffffffffffffffffffffffffffffffffffff1673ffffffffffffffffffffffffffffffffffffffff1681526020016002820160149054906101000a900460ff1615151515815250509050919050565b600080600090505b600760003373ffffffffffffffffffffffffffffffffffffffff1673ffffffffffffffffffffffffffffffffffffffff16815260200190815260200160002060020180549050811015610d985782600760003373ffffffffffffffffffffffffffffffffffffffff1673ffffffffffffffffffffffffffffffffffffffff1681526020019081526020016000206002018281548110610d4957610d48613696565b5b9060005260206000200154148015610d765750836006600085815260200190815260200160002060010154145b15610d85576001915050610d9e565b8080610d9090613304565b915050610ca7565b50600090505b92915050565b813373ffffffffffffffffffffffffffffffffffffffff166005600083815260200190815260200160002060060160009054906101000a900473ffffffffffffffffffffffffffffffffffffffff1673ffffffffffffffffffffffffffffffffffffffff1614610e49576040517f08c379a0000000000000000000000000000000000000000000000000000000008152600401610e4090613125565b60405180910390fd5b6000600560008581526020019081526020016000206005015414610ea2576040517f08c379a0000000000000000000000000000000000000000000000000000000008152600401610e9990613711565b60405180910390fd5b816005600085815260200190815260200160002060030181905550505050565b6060600860008373ffffffffffffffffffffffffffffffffffffffff1673ffffffffffffffffffffffffffffffffffffffff168152602001908152602001600020805480602002602001604051908101604052809291908181526020018280548015610f4d57602002820191906000526020600020905b815481526020019060010190808311610f39575b50505050509050919050565b60066020528060005260406000206000915090508060000154908060010154908060020160009054906101000a900473ffffffffffffffffffffffffffffffffffffffff16908060020160149054906101000a900460ff16905084565b60025481565b803373ffffffffffffffffffffffffffffffffffffffff166005600083815260200190815260200160002060060160009054906101000a900473ffffffffffffffffffffffffffffffffffffffff1673ffffffffffffffffffffffffffffffffffffffff1614611061576040517f08c379a000000000000000000000000000000000000000000000000000000000815260040161105890613125565b60405180910390fd5b60006005600084815260200190815260200160002060050154146110ba576040517f08c379a00000000000000000000000000000000000000000000000000000000081526004016110b190613711565b60405180910390fd5b6005600083815260200190815260200160002060060160149054906101000a900460ff1661111d576040517f08c379a00000000000000000000000000000000000000000000000000000000081526004016111149061377d565b60405180910390fd5b6000600860003373ffffffffffffffffffffffffffffffffffffffff1673ffffffffffffffffffffffffffffffffffffffff168152602001908152602001600020905060005b8180549050811015611221578382828154811061118357611182613696565b5b90600052602060002001540361120e5781600183805490506111a5919061379d565b815481106111b6576111b5613696565b5b90600052602060002001548282815481106111d4576111d3613696565b5b9060005260206000200181905550818054806111f3576111f26137d1565b5b60019003818190600052602060002001600090559055611221565b808061121990613304565b915050611163565b506005600084815260200190815260200160002060008082016000905560018201600061124e91906124cf565b60028201600090556003820160009055600482016000905560058201600090556006820160006101000a81549073ffffffffffffffffffffffffffffffffffffffff02191690556006820160146101000a81549060ff02191690555050505050565b80600560008381526020019081526020016000206000015414611308576040517f08c379a00000000000000000000000000000000000000000000000000000000081526004016112ff9061384c565b60405180910390fd5b6000600560008381526020019081526020016000206004015411611361576040517f08c379a0000000000000000000000000000000000000000000000000000000008152600401611358906138b8565b60405180910390fd5b6005600082815260200190815260200160002060060160149054906101000a900460ff166113c4576040517f08c379a00000000000000000000000000000000000000000000000000000000081526004016113bb9061377d565b60405180910390fd5b60005b600760003373ffffffffffffffffffffffffffffffffffffffff1673ffffffffffffffffffffffffffffffffffffffff168152602001908152602001600020600201805490508110156114dd578160066000600760003373ffffffffffffffffffffffffffffffffffffffff1673ffffffffffffffffffffffffffffffffffffffff168152602001908152602001600020600201848154811061146d5761146c613696565b5b9060005260206000200154815260200190815260200160002060010154036114ca576040517f08c379a00000000000000000000000000000000000000000000000000000000081526004016114c190613924565b60405180910390fd5b80806114d590613304565b9150506113c7565b50600060056000838152602001908152602001600020600301549050600760003373ffffffffffffffffffffffffffffffffffffffff1673ffffffffffffffffffffffffffffffffffffffff16815260200190815260200160002060010160149054906101000a900460ff1661155d57600a8161155a9190613944565b90505b803410156115a0576040517f08c379a0000000000000000000000000000000000000000000000000000000008152600401611597906139c4565b60405180910390fd5b600360008154809291906115b390613304565b91905055506005600083815260200190815260200160002060040160008154809291906115df906139e4565b9190505550600760003373ffffffffffffffffffffffffffffffffffffffff1673ffffffffffffffffffffffffffffffffffffffff1681526020019081526020016000206002016003549080600181540180825580915050600190039060005260206000200160009091909190915055604051806080016040528060035481526020018381526020013373ffffffffffffffffffffffffffffffffffffffff16815260200160011515815250600660006003548152602001908152602001600020600082015181600001556020820151816001015560408201518160020160006101000a81548173ffffffffffffffffffffffffffffffffffffffff021916908373ffffffffffffffffffffffffffffffffffffffff16021790555060608201518160020160146101000a81548160ff021916908315150217905550905050600760003373ffffffffffffffffffffffffffffffffffffffff1673ffffffffffffffffffffffffffffffffffffffff16815260200190815260200160002060010160149054906101000a900460ff1661194b576004600081548092919061178590613304565b9190505550604051806080016040528060045481526020013373ffffffffffffffffffffffffffffffffffffffff168152602001600115158152602001600067ffffffffffffffff8111156117dd576117dc6126bb565b5b60405190808252806020026020018201604052801561180b5781602001602082028036833780820191505090505b50815250600760003373ffffffffffffffffffffffffffffffffffffffff1673ffffffffffffffffffffffffffffffffffffffff1681526020019081526020016000206000820151816000015560208201518160010160006101000a81548173ffffffffffffffffffffffffffffffffffffffff021916908373ffffffffffffffffffffffffffffffffffffffff16021790555060408201518160010160146101000a81548160ff02191690831515021790555060608201518160020190805190602001906118db92919061250f565b50905050600760003373ffffffffffffffffffffffffffffffffffffffff1673ffffffffffffffffffffffffffffffffffffffff16815260200190815260200160002060020160035490806001815401808255809150506001900390600052602060002001600090919091909150555b60056000838152602001908152602001600020600501600081548092919061197290613304565b91905055505050565b6000600760008373ffffffffffffffffffffffffffffffffffffffff1673ffffffffffffffffffffffffffffffffffffffff16815260200190815260200160002060010160149054906101000a900460ff16159050919050565b60035481565b60008054906101000a900473ffffffffffffffffffffffffffffffffffffffff1681565b60076020528060005260406000206000915090508060000154908060010160009054906101000a900473ffffffffffffffffffffffffffffffffffffffff16908060010160149054906101000a900460ff16905083565b6060600060025467ffffffffffffffff811115611a7657611a756126bb565b5b604051908082528060200260200182016040528015611aaf57816020015b611a9c61255c565b815260200190600190039081611a945790505b50905060006103e990505b600254811015611c555760056000600183611ad59190613944565b81526020019081526020016000206040518061010001604052908160008201548152602001600182018054611b099061337b565b80601f0160208091040260200160405190810160405280929190818152602001828054611b359061337b565b8015611b825780601f10611b5757610100808354040283529160200191611b82565b820191906000526020600020905b815481529060010190602001808311611b6557829003601f168201915b50505050508152602001600282015481526020016003820154815260200160048201548152602001600582015481526020016006820160009054906101000a900473ffffffffffffffffffffffffffffffffffffffff1673ffffffffffffffffffffffffffffffffffffffff1673ffffffffffffffffffffffffffffffffffffffff1681526020016006820160149054906101000a900460ff161515151581525050828281518110611c3757611c36613696565b5b60200260200101819052508080611c4d90613304565b915050611aba565b508091505090565b813373ffffffffffffffffffffffffffffffffffffffff166005600083815260200190815260200160002060060160009054906101000a900473ffffffffffffffffffffffffffffffffffffffff1673ffffffffffffffffffffffffffffffffffffffff1614611d02576040517f08c379a0000000000000000000000000000000000000000000000000000000008152600401611cf990613125565b60405180910390fd5b8160056000858152602001908152602001600020600501541115611d5b576040517f08c379a0000000000000000000000000000000000000000000000000000000008152600401611d5290613aa5565b60405180910390fd5b816005600085815260200190815260200160002060040181905550505050565b611d836125b9565b8173ffffffffffffffffffffffffffffffffffffffff16600760008473ffffffffffffffffffffffffffffffffffffffff1673ffffffffffffffffffffffffffffffffffffffff16815260200190815260200160002060010160009054906101000a900473ffffffffffffffffffffffffffffffffffffffff1673ffffffffffffffffffffffffffffffffffffffff1614611e53576040517f08c379a0000000000000000000000000000000000000000000000000000000008152600401611e4a90613b11565b60405180910390fd5b600760008373ffffffffffffffffffffffffffffffffffffffff1673ffffffffffffffffffffffffffffffffffffffff168152602001908152602001600020604051806080016040529081600082015481526020016001820160009054906101000a900473ffffffffffffffffffffffffffffffffffffffff1673ffffffffffffffffffffffffffffffffffffffff1673ffffffffffffffffffffffffffffffffffffffff1681526020016001820160149054906101000a900460ff1615151515815260200160028201805480602002602001604051908101604052809291908181526020018280548015611f6757602002820191906000526020600020905b815481526020019060010190808311611f53575b5050505050815250509050919050565b803373ffffffffffffffffffffffffffffffffffffffff166005600083815260200190815260200160002060060160009054906101000a900473ffffffffffffffffffffffffffffffffffffffff1673ffffffffffffffffffffffffffffffffffffffff161461201c576040517f08c379a000000000000000000000000000000000000000000000000000000000815260040161201390613125565b60405180910390fd5b42600560008481526020019081526020016000206002015410612074576040517f08c379a000000000000000000000000000000000000000000000000000000000815260040161206b90613b7d565b60405180910390fd5b60006005600084815260200190815260200160002060050154116120cd576040517f08c379a00000000000000000000000000000000000000000000000000000000081526004016120c490613be9565b60405180910390fd5b6005600083815260200190815260200160002060060160149054906101000a900460ff16612130576040517f08c379a00000000000000000000000000000000000000000000000000000000081526004016121279061377d565b60405180910390fd5b60006005600084815260200190815260200160002060050154600560008581526020019081526020016000206003015461216a9190613c09565b90506000606460058361217d9190613c09565b6121879190613c7a565b905060008183612197919061379d565b905060008054906101000a900473ffffffffffffffffffffffffffffffffffffffff1673ffffffffffffffffffffffffffffffffffffffff166108fc839081150290604051600060405180830381858888f193505050501580156121ff573d6000803e3d6000fd5b503373ffffffffffffffffffffffffffffffffffffffff166108fc829081150290604051600060405180830381858888f19350505050158015612246573d6000803e3d6000fd5b5060006005600087815260200190815260200160002060060160146101000a81548160ff0219169083151502179055505050505050565b60016020528060005260406000206000915054906101000a900460ff1681565b600860205281600052604060002081815481106122b957600080fd5b90600052602060002001600091509150505481565b6122d661255c565b8160056000848152602001908152602001600020600001541461232e576040517f08c379a00000000000000000000000000000000000000000000000000000000081526004016123259061384c565b60405180910390fd5b6005600083815260200190815260200160002060405180610100016040529081600082015481526020016001820180546123679061337b565b80601f01602080910402602001604051908101604052809291908181526020018280546123939061337b565b80156123e05780601f106123b5576101008083540402835291602001916123e0565b820191906000526020600020905b8154815290600101906020018083116123c357829003601f168201915b50505050508152602001600282015481526020016003820154815260200160048201548152602001600582015481526020016006820160009054906101000a900473ffffffffffffffffffffffffffffffffffffffff1673ffffffffffffffffffffffffffffffffffffffff1673ffffffffffffffffffffffffffffffffffffffff1681526020016006820160149054906101000a900460ff1615151515815250509050919050565b60045481565b60405180608001604052806000815260200160008152602001600073ffffffffffffffffffffffffffffffffffffffff1681526020016000151581525090565b5080546124db9061337b565b6000825580601f106124ed575061250c565b601f01602090049060005260206000209081019061250b91906125f9565b5b50565b82805482825590600052602060002090810192821561254b579160200282015b8281111561254a57825182559160200191906001019061252f565b5b50905061255891906125f9565b5090565b604051806101000160405280600081526020016060815260200160008152602001600081526020016000815260200160008152602001600073ffffffffffffffffffffffffffffffffffffffff1681526020016000151581525090565b604051806080016040528060008152602001600073ffffffffffffffffffffffffffffffffffffffff168152602001600015158152602001606081525090565b5b808211156126125760008160009055506001016125fa565b5090565b6000604051905090565b600080fd5b600080fd5b6000819050919050565b61263d8161262a565b811461264857600080fd5b50565b60008135905061265a81612634565b92915050565b6000806040838503121561267757612676612620565b5b60006126858582860161264b565b92505060206126968582860161264b565b9150509250929050565b600080fd5b600080fd5b6000601f19601f8301169050919050565b7f4e487b7100000000000000000000000000000000000000000000000000000000600052604160045260246000fd5b6126f3826126aa565b810181811067ffffffffffffffff82111715612712576127116126bb565b5b80604052505050565b6000612725612616565b905061273182826126ea565b919050565b600067ffffffffffffffff821115612751576127506126bb565b5b61275a826126aa565b9050602081019050919050565b82818337600083830152505050565b600061278961278484612736565b61271b565b9050828152602081018484840111156127a5576127a46126a5565b5b6127b0848285612767565b509392505050565b600082601f8301126127cd576127cc6126a0565b5b81356127dd848260208601612776565b91505092915050565b60008060008060808587031215612800576127ff612620565b5b600085013567ffffffffffffffff81111561281e5761281d612625565b5b61282a878288016127b8565b945050602061283b8782880161264b565b935050604061284c8782880161264b565b925050606061285d8782880161264b565b91505092959194509250565b60006020828403121561287f5761287e612620565b5b600061288d8482850161264b565b91505092915050565b61289f8161262a565b82525050565b600081519050919050565b600082825260208201905092915050565b60005b838110156128df5780820151818401526020810190506128c4565b60008484015250505050565b60006128f6826128a5565b61290081856128b0565b93506129108185602086016128c1565b612919816126aa565b840191505092915050565b600073ffffffffffffffffffffffffffffffffffffffff82169050919050565b600061294f82612924565b9050919050565b61295f81612944565b82525050565b60008115159050919050565b61297a81612965565b82525050565b600061010082019050612996600083018b612896565b81810360208301526129a8818a6128eb565b90506129b76040830189612896565b6129c46060830188612896565b6129d16080830187612896565b6129de60a0830186612896565b6129eb60c0830185612956565b6129f860e0830184612971565b9998505050505050505050565b6000602082019050612a1a6000830184612896565b92915050565b60008060408385031215612a3757612a36612620565b5b6000612a458582860161264b565b925050602083013567ffffffffffffffff811115612a6657612a65612625565b5b612a72858286016127b8565b9150509250929050565b612a858161262a565b82525050565b612a9481612944565b82525050565b612aa381612965565b82525050565b608082016000820151612abf6000850182612a7c565b506020820151612ad26020850182612a7c565b506040820151612ae56040850182612a8b565b506060820151612af86060850182612a9a565b50505050565b6000608082019050612b136000830184612aa9565b92915050565b6000602082019050612b2e6000830184612971565b92915050565b612b3d81612944565b8114612b4857600080fd5b50565b600081359050612b5a81612b34565b92915050565b600060208284031215612b7657612b75612620565b5b6000612b8484828501612b4b565b91505092915050565b600081519050919050565b600082825260208201905092915050565b6000819050602082019050919050565b6000612bc58383612a7c565b60208301905092915050565b6000602082019050919050565b6000612be982612b8d565b612bf38185612b98565b9350612bfe83612ba9565b8060005b83811015612c2f578151612c168882612bb9565b9750612c2183612bd1565b925050600181019050612c02565b5085935050505092915050565b60006020820190508181036000830152612c568184612bde565b905092915050565b6000608082019050612c736000830187612896565b612c806020830186612896565b612c8d6040830185612956565b612c9a6060830184612971565b95945050505050565b6000602082019050612cb86000830184612956565b92915050565b6000606082019050612cd36000830186612896565b612ce06020830185612956565b612ced6040830184612971565b949350505050565b600081519050919050565b600082825260208201905092915050565b6000819050602082019050919050565b600082825260208201905092915050565b6000612d3d826128a5565b612d478185612d21565b9350612d578185602086016128c1565b612d60816126aa565b840191505092915050565b600061010083016000830151612d846000860182612a7c565b5060208301518482036020860152612d9c8282612d32565b9150506040830151612db16040860182612a7c565b506060830151612dc46060860182612a7c565b506080830151612dd76080860182612a7c565b5060a0830151612dea60a0860182612a7c565b5060c0830151612dfd60c0860182612a8b565b5060e0830151612e1060e0860182612a9a565b508091505092915050565b6000612e278383612d6b565b905092915050565b6000602082019050919050565b6000612e4782612cf5565b612e518185612d00565b935083602082028501612e6385612d11565b8060005b85811015612e9f5784840389528151612e808582612e1b565b9450612e8b83612e2f565b925060208a01995050600181019050612e67565b50829750879550505050505092915050565b60006020820190508181036000830152612ecb8184612e3c565b905092915050565b600082825260208201905092915050565b6000612eef82612b8d565b612ef98185612ed3565b9350612f0483612ba9565b8060005b83811015612f35578151612f1c8882612bb9565b9750612f2783612bd1565b925050600181019050612f08565b5085935050505092915050565b6000608083016000830151612f5a6000860182612a7c565b506020830151612f6d6020860182612a8b565b506040830151612f806040860182612a9a565b5060608301518482036060860152612f988282612ee4565b9150508091505092915050565b60006020820190508181036000830152612fbf8184612f42565b905092915050565b60008060408385031215612fde57612fdd612620565b5b6000612fec85828601612b4b565b9250506020612ffd8582860161264b565b9150509250929050565b6000610100830160008301516130206000860182612a7c565b50602083015184820360208601526130388282612d32565b915050604083015161304d6040860182612a7c565b5060608301516130606060860182612a7c565b5060808301516130736080860182612a7c565b5060a083015161308660a0860182612a7c565b5060c083015161309960c0860182612a8b565b5060e08301516130ac60e0860182612a9a565b508091505092915050565b600060208201905081810360008301526130d18184613007565b905092915050565b7f596f7520617265206e6f7420746865206576656e74206f7267616e697a657200600082015250565b600061310f601f836128b0565b915061311a826130d9565b602082019050919050565b6000602082019050818103600083015261313e81613102565b9050919050565b7f4576656e742064617465206d75737420626520696e2074686520667574757265600082015250565b600061317b6020836128b0565b915061318682613145565b602082019050919050565b600060208201905081810360008301526131aa8161316e565b9050919050565b7f5469636b657420636f756e74206d75737420626520677265617465722074686160008201527f6e20300000000000000000000000000000000000000000000000000000000000602082015250565b600061320d6023836128b0565b9150613218826131b1565b604082019050919050565b6000602082019050818103600083015261323c81613200565b9050919050565b7f5469636b6574207072696365206d75737420626520677265617465722074686160008201527f6e20300000000000000000000000000000000000000000000000000000000000602082015250565b600061329f6023836128b0565b91506132aa82613243565b604082019050919050565b600060208201905081810360008301526132ce81613292565b9050919050565b7f4e487b7100000000000000000000000000000000000000000000000000000000600052601160045260246000fd5b600061330f8261262a565b91507fffffffffffffffffffffffffffffffffffffffffffffffffffffffffffffffff8203613341576133406132d5565b5b600182019050919050565b7f4e487b7100000000000000000000000000000000000000000000000000000000600052602260045260246000fd5b6000600282049050600182168061339357607f821691505b6020821081036133a6576133a561334c565b5b50919050565b60008190508160005260206000209050919050565b60006020601f8301049050919050565b600082821b905092915050565b60006008830261340e7fffffffffffffffffffffffffffffffffffffffffffffffffffffffffffffffff826133d1565b61341886836133d1565b95508019841693508086168417925050509392505050565b6000819050919050565b600061345561345061344b8461262a565b613430565b61262a565b9050919050565b6000819050919050565b61346f8361343a565b61348361347b8261345c565b8484546133de565b825550505050565b600090565b61349861348b565b6134a3818484613466565b505050565b5b818110156134c7576134bc600082613490565b6001810190506134a9565b5050565b601f82111561350c576134dd816133ac565b6134e6846133c1565b810160208510156134f5578190505b613509613501856133c1565b8301826134a8565b50505b505050565b600082821c905092915050565b600061352f60001984600802613511565b1980831691505092915050565b6000613548838361351e565b9150826002028217905092915050565b613561826128a5565b67ffffffffffffffff81111561357a576135796126bb565b5b613584825461337b565b61358f8282856134cb565b600060209050601f8311600181146135c257600084156135b0578287015190505b6135ba858261353c565b865550613622565b601f1984166135d0866133ac565b60005b828110156135f8578489015182556001820191506020850194506020810190506135d3565b868310156136155784890151613611601f89168261351e565b8355505b6001600288020188555050505b505050505050565b7f5469636b657420646f6573206e6f742065786973740000000000000000000000600082015250565b60006136606015836128b0565b915061366b8261362a565b602082019050919050565b6000602082019050818103600083015261368f81613653565b9050919050565b7f4e487b7100000000000000000000000000000000000000000000000000000000600052603260045260246000fd5b7f5469636b657473206861766520616c7265616479206265656e20736f6c640000600082015250565b60006136fb601e836128b0565b9150613706826136c5565b602082019050919050565b6000602082019050818103600083015261372a816136ee565b9050919050565b7f4576656e74206973206e6f742076616c69640000000000000000000000000000600082015250565b60006137676012836128b0565b915061377282613731565b602082019050919050565b600060208201905081810360008301526137968161375a565b9050919050565b60006137a88261262a565b91506137b38361262a565b92508282039050818111156137cb576137ca6132d5565b5b92915050565b7f4e487b7100000000000000000000000000000000000000000000000000000000600052603160045260246000fd5b7f4576656e7420646f6573206e6f74206578697374000000000000000000000000600082015250565b60006138366014836128b0565b915061384182613800565b602082019050919050565b6000602082019050818103600083015261386581613829565b9050919050565b7f4e6f206d6f7265207469636b65747320617661696c61626c6500000000000000600082015250565b60006138a26019836128b0565b91506138ad8261386c565b602082019050919050565b600060208201905081810360008301526138d181613895565b9050919050565b7f5469636b657420616c726561647920626f756768740000000000000000000000600082015250565b600061390e6015836128b0565b9150613919826138d8565b602082019050919050565b6000602082019050818103600083015261393d81613901565b9050919050565b600061394f8261262a565b915061395a8361262a565b9250828201905080821115613972576139716132d5565b5b92915050565b7f496e636f727265637420616d6f756e742073656e740000000000000000000000600082015250565b60006139ae6015836128b0565b91506139b982613978565b602082019050919050565b600060208201905081810360008301526139dd816139a1565b9050919050565b60006139ef8261262a565b915060008203613a0257613a016132d5565b5b600182039050919050565b7f4e6577207469636b657420636f756e74206d757374206265206772656174657260008201527f207468616e206f7220657175616c20746f20746865206e756d626572206f662060208201527f7469636b65747320616c726561647920736f6c64000000000000000000000000604082015250565b6000613a8f6054836128b0565b9150613a9a82613a0d565b606082019050919050565b60006020820190508181036000830152613abe81613a82565b9050919050565b7f5573657220646f6573206e6f7420657869737400000000000000000000000000600082015250565b6000613afb6013836128b0565b9150613b0682613ac5565b602082019050919050565b60006020820190508181036000830152613b2a81613aee565b9050919050565b7f4576656e74206973206e6f74206f766572207965740000000000000000000000600082015250565b6000613b676015836128b0565b9150613b7282613b31565b602082019050919050565b60006020820190508181036000830152613b9681613b5a565b9050919050565b7f4e6f207469636b65747320736f6c640000000000000000000000000000000000600082015250565b6000613bd3600f836128b0565b9150613bde82613b9d565b602082019050919050565b60006020820190508181036000830152613c0281613bc6565b9050919050565b6000613c148261262a565b9150613c1f8361262a565b9250828202613c2d8161262a565b91508282048414831517613c4457613c436132d5565b5b5092915050565b7f4e487b7100000000000000000000000000000000000000000000000000000000600052601260045260246000fd5b6000613c858261262a565b9150613c908361262a565b925082613ca057613c9f613c4b565b5b82820490509291505056fea26469706673582212205f071a6487c79af08ef73682699de1b9389a8a2e6a6d0c63cf9cab2043cdf28064736f6c63430008130033",
  "linkReferences": {},
  "deployedLinkReferences": {}
}