{
  "_format": "hh-sol-artifact-1",
  "contractName": "SecurePass",
  "sourceName": "contracts/SecurePass.sol",
  "abi": [
    {
      "inputs": [],
      "stateMutability": "nonpayable",
      "type": "constructor"
    },
    {
      "inputs": [],
      "name": "RFID_CARD_COST",
      "outputs": [
        {
          "internalType": "uint256",
          "name": "",
          "type": "uint256"
        }
      ],
      "stateMutability": "view",
      "type": "function"
    },
    {
      "inputs": [
        {
          "internalType": "uint256",
          "name": "_eventId",
          "type": "uint256"
        }
      ],
      "name": "buyTicket",
      "outputs": [],
      "stateMutability": "payable",
      "type": "function"
    },
    {
      "inputs": [
        {
          "internalType": "string",
          "name": "_eventName",
          "type": "string"
        },
        {
          "internalType": "uint256",
          "name": "_eventDate",
          "type": "uint256"
        },
        {
          "internalType": "uint256",
          "name": "_eventTime",
          "type": "uint256"
        },
        {
          "internalType": "uint256",
          "name": "_ticketPrice",
          "type": "uint256"
        },
        {
          "internalType": "uint256",
          "name": "_ticketCount",
          "type": "uint256"
        }
      ],
      "name": "createEvent",
      "outputs": [],
      "stateMutability": "nonpayable",
      "type": "function"
    },
    {
      "inputs": [],
      "name": "eventCounter",
      "outputs": [
        {
          "internalType": "uint256",
          "name": "",
          "type": "uint256"
        }
      ],
      "stateMutability": "view",
      "type": "function"
    },
    {
      "inputs": [
        {
          "internalType": "address",
          "name": "",
          "type": "address"
        }
      ],
      "name": "eventOrganizers",
      "outputs": [
        {
          "internalType": "bool",
          "name": "",
          "type": "bool"
        }
      ],
      "stateMutability": "view",
      "type": "function"
    },
    {
      "inputs": [
        {
          "internalType": "uint256",
          "name": "",
          "type": "uint256"
        }
      ],
      "name": "events",
      "outputs": [
        {
          "internalType": "uint256",
          "name": "eventId",
          "type": "uint256"
        },
        {
          "internalType": "string",
          "name": "eventName",
          "type": "string"
        },
        {
          "internalType": "uint256",
          "name": "eventDate",
          "type": "uint256"
        },
        {
          "internalType": "uint256",
          "name": "eventTime",
          "type": "uint256"
        },
        {
          "internalType": "uint256",
          "name": "ticketPrice",
          "type": "uint256"
        },
        {
          "internalType": "uint256",
          "name": "ticketCount",
          "type": "uint256"
        },
        {
          "internalType": "uint256",
          "name": "ticketSold",
          "type": "uint256"
        },
        {
          "internalType": "address",
          "name": "eventOrganizers",
          "type": "address"
        },
        {
          "internalType": "bool",
          "name": "isValid",
          "type": "bool"
        }
      ],
      "stateMutability": "view",
      "type": "function"
    },
    {
      "inputs": [],
      "name": "getAllEvents",
      "outputs": [
        {
          "components": [
            {
              "internalType": "uint256",
              "name": "eventId",
              "type": "uint256"
            },
            {
              "internalType": "string",
              "name": "eventName",
              "type": "string"
            },
            {
              "internalType": "uint256",
              "name": "eventDate",
              "type": "uint256"
            },
            {
              "internalType": "uint256",
              "name": "eventTime",
              "type": "uint256"
            },
            {
              "internalType": "uint256",
              "name": "ticketPrice",
              "type": "uint256"
            },
            {
              "internalType": "uint256",
              "name": "ticketCount",
              "type": "uint256"
            },
            {
              "internalType": "uint256",
              "name": "ticketSold",
              "type": "uint256"
            },
            {
              "internalType": "address",
              "name": "eventOrganizers",
              "type": "address"
            },
            {
              "internalType": "bool",
              "name": "isValid",
              "type": "bool"
            }
          ],
          "internalType": "struct SecurePass.Event[]",
          "name": "",
          "type": "tuple[]"
        }
      ],
      "stateMutability": "view",
      "type": "function"
    },
    {
      "inputs": [
        {
          "internalType": "address",
          "name": "_userAddress",
          "type": "address"
        }
      ],
      "name": "getAllTicketsOfUser",
      "outputs": [
        {
          "components": [
            {
              "internalType": "uint256",
              "name": "ticketId",
              "type": "uint256"
            },
            {
              "internalType": "uint256",
              "name": "eventId",
              "type": "uint256"
            },
            {
              "internalType": "address",
              "name": "buyer",
              "type": "address"
            },
            {
              "internalType": "bool",
              "name": "isValid",
              "type": "bool"
            }
          ],
          "internalType": "struct SecurePass.Ticket[]",
          "name": "",
          "type": "tuple[]"
        }
      ],
      "stateMutability": "view",
      "type": "function"
    },
    {
      "inputs": [
        {
          "internalType": "uint256",
          "name": "_eventId",
          "type": "uint256"
        }
      ],
      "name": "getEventDetails",
      "outputs": [
        {
          "components": [
            {
              "internalType": "uint256",
              "name": "eventId",
              "type": "uint256"
            },
            {
              "internalType": "string",
              "name": "eventName",
              "type": "string"
            },
            {
              "internalType": "uint256",
              "name": "eventDate",
              "type": "uint256"
            },
            {
              "internalType": "uint256",
              "name": "eventTime",
              "type": "uint256"
            },
            {
              "internalType": "uint256",
              "name": "ticketPrice",
              "type": "uint256"
            },
            {
              "internalType": "uint256",
              "name": "ticketCount",
              "type": "uint256"
            },
            {
              "internalType": "uint256",
              "name": "ticketSold",
              "type": "uint256"
            },
            {
              "internalType": "address",
              "name": "eventOrganizers",
              "type": "address"
            },
            {
              "internalType": "bool",
              "name": "isValid",
              "type": "bool"
            }
          ],
          "internalType": "struct SecurePass.Event",
          "name": "",
          "type": "tuple"
        }
      ],
      "stateMutability": "view",
      "type": "function"
    },
    {
      "inputs": [
        {
          "internalType": "uint256",
          "name": "_ticketId",
          "type": "uint256"
        }
      ],
      "name": "getTicketDetails",
      "outputs": [
        {
          "components": [
            {
              "internalType": "uint256",
              "name": "ticketId",
              "type": "uint256"
            },
            {
              "internalType": "uint256",
              "name": "eventId",
              "type": "uint256"
            },
            {
              "internalType": "address",
              "name": "buyer",
              "type": "address"
            },
            {
              "internalType": "bool",
              "name": "isValid",
              "type": "bool"
            }
          ],
          "internalType": "struct SecurePass.Ticket",
          "name": "",
          "type": "tuple"
        }
      ],
      "stateMutability": "view",
      "type": "function"
    },
    {
      "inputs": [
        {
          "internalType": "address",
          "name": "_userAddress",
          "type": "address"
        }
      ],
      "name": "getUserDetails",
      "outputs": [
        {
          "components": [
            {
              "internalType": "uint256",
              "name": "userId",
              "type": "uint256"
            },
            {
              "internalType": "address",
              "name": "userAddress",
              "type": "address"
            },
            {
              "internalType": "bool",
              "name": "hasRFIDCard",
              "type": "bool"
            },
            {
              "internalType": "uint256[]",
              "name": "ticketsArray",
              "type": "uint256[]"
            }
          ],
          "internalType": "struct SecurePass.User",
          "name": "",
          "type": "tuple"
        }
      ],
      "stateMutability": "view",
      "type": "function"
    },
    {
      "inputs": [
        {
          "internalType": "uint256",
          "name": "_eventId",
          "type": "uint256"
        },
        {
          "internalType": "uint256",
          "name": "_userID",
          "type": "uint256"
        }
      ],
      "name": "isTicketValid",
      "outputs": [
        {
          "internalType": "bool",
          "name": "",
          "type": "bool"
        }
      ],
      "stateMutability": "view",
      "type": "function"
    },
    {
      "inputs": [],
      "name": "owner",
      "outputs": [
        {
          "internalType": "address",
          "name": "",
          "type": "address"
        }
      ],
      "stateMutability": "view",
      "type": "function"
    },
    {
      "inputs": [
        {
          "internalType": "uint256",
          "name": "_eventId",
          "type": "uint256"
        }
      ],
      "name": "removeEvent",
      "outputs": [],
      "stateMutability": "nonpayable",
      "type": "function"
    },
    {
      "inputs": [],
      "name": "ticketCounter",
      "outputs": [
        {
          "internalType": "uint256",
          "name": "",
          "type": "uint256"
        }
      ],
      "stateMutability": "view",
      "type": "function"
    },
    {
      "inputs": [
        {
          "internalType": "uint256",
          "name": "",
          "type": "uint256"
        }
      ],
      "name": "tickets",
      "outputs": [
        {
          "internalType": "uint256",
          "name": "ticketId",
          "type": "uint256"
        },
        {
          "internalType": "uint256",
          "name": "eventId",
          "type": "uint256"
        },
        {
          "internalType": "address",
          "name": "buyer",
          "type": "address"
        },
        {
          "internalType": "bool",
          "name": "isValid",
          "type": "bool"
        }
      ],
      "stateMutability": "view",
      "type": "function"
    },
    {
      "inputs": [
        {
          "internalType": "uint256",
          "name": "_eventId",
          "type": "uint256"
        },
        {
          "internalType": "uint256",
          "name": "_eventDate",
          "type": "uint256"
        }
      ],
      "name": "updateEventDate",
      "outputs": [],
      "stateMutability": "nonpayable",
      "type": "function"
    },
    {
      "inputs": [
        {
          "internalType": "uint256",
          "name": "_eventId",
          "type": "uint256"
        },
        {
          "internalType": "string",
          "name": "_eventName",
          "type": "string"
        }
      ],
      "name": "updateEventName",
      "outputs": [],
      "stateMutability": "nonpayable",
      "type": "function"
    },
    {
      "inputs": [
        {
          "internalType": "uint256",
          "name": "_eventId",
          "type": "uint256"
        },
        {
          "internalType": "uint256",
          "name": "_eventTime",
          "type": "uint256"
        }
      ],
      "name": "updateEventTime",
      "outputs": [],
      "stateMutability": "nonpayable",
      "type": "function"
    },
    {
      "inputs": [
        {
          "internalType": "uint256",
          "name": "_eventId",
          "type": "uint256"
        },
        {
          "internalType": "uint256",
          "name": "_ticketCount",
          "type": "uint256"
        }
      ],
      "name": "updateTicketCount",
      "outputs": [],
      "stateMutability": "nonpayable",
      "type": "function"
    },
    {
      "inputs": [
        {
          "internalType": "uint256",
          "name": "_eventId",
          "type": "uint256"
        },
        {
          "internalType": "uint256",
          "name": "_ticketPrice",
          "type": "uint256"
        }
      ],
      "name": "updateTicketPrice",
      "outputs": [],
      "stateMutability": "nonpayable",
      "type": "function"
    },
    {
      "inputs": [],
      "name": "userCounter",
      "outputs": [
        {
          "internalType": "uint256",
          "name": "",
          "type": "uint256"
        }
      ],
      "stateMutability": "view",
      "type": "function"
    },
    {
      "inputs": [
        {
          "internalType": "address",
          "name": "",
          "type": "address"
        }
      ],
      "name": "users",
      "outputs": [
        {
          "internalType": "uint256",
          "name": "userId",
          "type": "uint256"
        },
        {
          "internalType": "address",
          "name": "userAddress",
          "type": "address"
        },
        {
          "internalType": "bool",
          "name": "hasRFIDCard",
          "type": "bool"
        }
      ],
      "stateMutability": "view",
      "type": "function"
    },
    {
      "inputs": [
        {
          "internalType": "uint256",
          "name": "_eventId",
          "type": "uint256"
        }
      ],
      "name": "withdrawPayment",
      "outputs": [],
      "stateMutability": "nonpayable",
      "type": "function"
    }
  ],
  "bytecode": "0x608060405234801561001057600080fd5b50336000806101000a81548173ffffffffffffffffffffffffffffffffffffffff021916908373ffffffffffffffffffffffffffffffffffffffff1602179055506103e86002819055506103e86003819055506103e860048190555061391a8061007b6000396000f3fe60806040526004361061014b5760003560e01c80638c4d59d0116100b6578063dbd3cd621161006f578063dbd3cd62146104c8578063dbf3f3c9146104f1578063e1495fac1461051a578063e4bddff814610557578063ec38d5a014610580578063f0c37a59146105bd5761014b565b80638c4d59d0146103a25780638da5cb5b146103cd578063a87430ba146103f8578063c27a500d14610437578063c6d4ce4714610462578063cc3d967b1461048b5761014b565b806326704c701161010857806326704c701461028c5780632c49f35e146102c957806350b44712146102f257806352c55db91461033257806356164e1e1461035d57806367dd74ca146103865761014b565b8063011b3950146101505780630b7914301461017957806311d04fcd146101be57806317d4357b146101e9578063184b09381461021257806324c141601461024f575b600080fd5b34801561015c57600080fd5b50610177600480360381019061017291906123b6565b6105e8565b005b34801561018557600080fd5b506101a0600480360381019061019b91906123f6565b6106ef565b6040516101b59998979695949392919061251e565b60405180910390f35b3480156101ca57600080fd5b506101d36107f2565b6040516101e091906125b2565b60405180910390f35b3480156101f557600080fd5b50610210600480360381019061020b9190612702565b6107f7565b005b34801561021e57600080fd5b506102396004803603810190610234919061278a565b6108c5565b60405161024691906128e8565b60405180910390f35b34801561025b57600080fd5b50610276600480360381019061027191906123f6565b610aba565b604051610283919061295f565b60405180910390f35b34801561029857600080fd5b506102b360048036038101906102ae91906123b6565b610bc4565b6040516102c0919061297a565b60405180910390f35b3480156102d557600080fd5b506102f060048036038101906102eb91906123b6565b610cc9565b005b3480156102fe57600080fd5b50610319600480360381019061031491906123f6565b610de7565b6040516103299493929190612995565b60405180910390f35b34801561033e57600080fd5b50610347610e44565b60405161035491906125b2565b60405180910390f35b34801561036957600080fd5b50610384600480360381019061037f91906123f6565b610e4a565b005b6103a0600480360381019061039b91906123f6565b610f84565b005b3480156103ae57600080fd5b506103b7611534565b6040516103c491906125b2565b60405180910390f35b3480156103d957600080fd5b506103e261153a565b6040516103ef91906129da565b60405180910390f35b34801561040457600080fd5b5061041f600480360381019061041a919061278a565b61155e565b60405161042e939291906129f5565b60405180910390f35b34801561044357600080fd5b5061044c6115b5565b6040516104599190612bfd565b60405180910390f35b34801561046e57600080fd5b50610489600480360381019061048491906123b6565b6117c1565b005b34801561049757600080fd5b506104b260048036038101906104ad919061278a565b6118df565b6040516104bf9190612d31565b60405180910390f35b3480156104d457600080fd5b506104ef60048036038101906104ea91906123f6565b611adb565b005b3480156104fd57600080fd5b5061051860048036038101906105139190612d53565b611de1565b005b34801561052657600080fd5b50610541600480360381019061053c919061278a565b611f2e565b60405161054e919061297a565b60405180910390f35b34801561056357600080fd5b5061057e600480360381019061057991906123b6565b611f4e565b005b34801561058c57600080fd5b506105a760048036038101906105a291906123f6565b612013565b6040516105b49190612eaf565b60405180910390f35b3480156105c957600080fd5b506105d26121d8565b6040516105df91906125b2565b60405180910390f35b813373ffffffffffffffffffffffffffffffffffffffff166005600083815260200190815260200160002060070160009054906101000a900473ffffffffffffffffffffffffffffffffffffffff1673ffffffffffffffffffffffffffffffffffffffff161461068d576040517f08c379a000000000000000000000000000000000000000000000000000000000815260040161068490612f1d565b60405180910390fd5b4282116106cf576040517f08c379a00000000000000000000000000000000000000000000000000000000081526004016106c690612f89565b60405180910390fd5b816005600085815260200190815260200160002060020181905550505050565b600560205280600052604060002060009150905080600001549080600101805461071890612fd8565b80601f016020809104026020016040519081016040528092919081815260200182805461074490612fd8565b80156107915780601f1061076657610100808354040283529160200191610791565b820191906000526020600020905b81548152906001019060200180831161077457829003601f168201915b5050505050908060020154908060030154908060040154908060050154908060060154908060070160009054906101000a900473ffffffffffffffffffffffffffffffffffffffff16908060070160149054906101000a900460ff16905089565b600a81565b813373ffffffffffffffffffffffffffffffffffffffff166005600083815260200190815260200160002060070160009054906101000a900473ffffffffffffffffffffffffffffffffffffffff1673ffffffffffffffffffffffffffffffffffffffff161461089c576040517f08c379a000000000000000000000000000000000000000000000000000000000815260040161089390612f1d565b60405180910390fd5b816005600085815260200190815260200160002060010190816108bf91906131b5565b50505050565b60606000600760008473ffffffffffffffffffffffffffffffffffffffff1673ffffffffffffffffffffffffffffffffffffffff16815260200190815260200160002060020180548060200260200160405190810160405280929190818152602001828054801561095557602002820191906000526020600020905b815481526020019060010190808311610941575b505050505090506000815167ffffffffffffffff811115610979576109786125d7565b5b6040519080825280602002602001820160405280156109b257816020015b61099f6121de565b8152602001906001900390816109975790505b50905060005b8251811015610aaf57600660008483815181106109d8576109d7613287565b5b6020026020010151815260200190815260200160002060405180608001604052908160008201548152602001600182015481526020016002820160009054906101000a900473ffffffffffffffffffffffffffffffffffffffff1673ffffffffffffffffffffffffffffffffffffffff1673ffffffffffffffffffffffffffffffffffffffff1681526020016002820160149054906101000a900460ff161515151581525050828281518110610a9157610a90613287565b5b60200260200101819052508080610aa7906132e5565b9150506109b8565b508092505050919050565b610ac26121de565b81600660008481526020019081526020016000206000015414610b1a576040517f08c379a0000000000000000000000000000000000000000000000000000000008152600401610b1190613379565b60405180910390fd5b6006600083815260200190815260200160002060405180608001604052908160008201548152602001600182015481526020016002820160009054906101000a900473ffffffffffffffffffffffffffffffffffffffff1673ffffffffffffffffffffffffffffffffffffffff1673ffffffffffffffffffffffffffffffffffffffff1681526020016002820160149054906101000a900460ff1615151515815250509050919050565b600080600090505b600760003373ffffffffffffffffffffffffffffffffffffffff1673ffffffffffffffffffffffffffffffffffffffff16815260200190815260200160002060020180549050811015610cbd5782600760003373ffffffffffffffffffffffffffffffffffffffff1673ffffffffffffffffffffffffffffffffffffffff1681526020019081526020016000206002018281548110610c6e57610c6d613287565b5b9060005260206000200154148015610c9b5750836006600085815260200190815260200160002060010154145b15610caa576001915050610cc3565b8080610cb5906132e5565b915050610bcc565b50600090505b92915050565b813373ffffffffffffffffffffffffffffffffffffffff166005600083815260200190815260200160002060070160009054906101000a900473ffffffffffffffffffffffffffffffffffffffff1673ffffffffffffffffffffffffffffffffffffffff1614610d6e576040517f08c379a0000000000000000000000000000000000000000000000000000000008152600401610d6590612f1d565b60405180910390fd5b6000600560008581526020019081526020016000206006015414610dc7576040517f08c379a0000000000000000000000000000000000000000000000000000000008152600401610dbe906133e5565b60405180910390fd5b816005600085815260200190815260200160002060040181905550505050565b60066020528060005260406000206000915090508060000154908060010154908060020160009054906101000a900473ffffffffffffffffffffffffffffffffffffffff16908060020160149054906101000a900460ff16905084565b60025481565b803373ffffffffffffffffffffffffffffffffffffffff166005600083815260200190815260200160002060070160009054906101000a900473ffffffffffffffffffffffffffffffffffffffff1673ffffffffffffffffffffffffffffffffffffffff1614610eef576040517f08c379a0000000000000000000000000000000000000000000000000000000008152600401610ee690612f1d565b60405180910390fd5b60056000838152602001908152602001600020600080820160009055600182016000610f1b919061221e565b600282016000905560038201600090556004820160009055600582016000905560068201600090556007820160006101000a81549073ffffffffffffffffffffffffffffffffffffffff02191690556007820160146101000a81549060ff021916905550505050565b80600560008381526020019081526020016000206000015414610fdc576040517f08c379a0000000000000000000000000000000000000000000000000000000008152600401610fd390613451565b60405180910390fd5b6000600560008381526020019081526020016000206005015411611035576040517f08c379a000000000000000000000000000000000000000000000000000000000815260040161102c906134bd565b60405180910390fd5b6005600082815260200190815260200160002060070160149054906101000a900460ff16611098576040517f08c379a000000000000000000000000000000000000000000000000000000000815260040161108f90613529565b60405180910390fd5b600060056000838152602001908152602001600020600401549050600760003373ffffffffffffffffffffffffffffffffffffffff1673ffffffffffffffffffffffffffffffffffffffff16815260200190815260200160002060010160149054906101000a900460ff1661111757600a816111149190613549565b90505b803414611159576040517f08c379a0000000000000000000000000000000000000000000000000000000008152600401611150906135c9565b60405180910390fd5b6003600081548092919061116c906132e5565b9190505550600560008381526020019081526020016000206005016000815480929190611198906135e9565b9190505550600760003373ffffffffffffffffffffffffffffffffffffffff1673ffffffffffffffffffffffffffffffffffffffff1681526020019081526020016000206002016003549080600181540180825580915050600190039060005260206000200160009091909190915055604051806080016040528060035481526020018381526020013373ffffffffffffffffffffffffffffffffffffffff16815260200160011515815250600660006003548152602001908152602001600020600082015181600001556020820151816001015560408201518160020160006101000a81548173ffffffffffffffffffffffffffffffffffffffff021916908373ffffffffffffffffffffffffffffffffffffffff16021790555060608201518160020160146101000a81548160ff021916908315150217905550905050600760003373ffffffffffffffffffffffffffffffffffffffff1673ffffffffffffffffffffffffffffffffffffffff16815260200190815260200160002060010160149054906101000a900460ff16611504576004600081548092919061133e906132e5565b9190505550604051806080016040528060045481526020013373ffffffffffffffffffffffffffffffffffffffff168152602001600115158152602001600067ffffffffffffffff811115611396576113956125d7565b5b6040519080825280602002602001820160405280156113c45781602001602082028036833780820191505090505b50815250600760003373ffffffffffffffffffffffffffffffffffffffff1673ffffffffffffffffffffffffffffffffffffffff1681526020019081526020016000206000820151816000015560208201518160010160006101000a81548173ffffffffffffffffffffffffffffffffffffffff021916908373ffffffffffffffffffffffffffffffffffffffff16021790555060408201518160010160146101000a81548160ff021916908315150217905550606082015181600201908051906020019061149492919061225e565b50905050600760003373ffffffffffffffffffffffffffffffffffffffff1673ffffffffffffffffffffffffffffffffffffffff16815260200190815260200160002060020160035490806001815401808255809150506001900390600052602060002001600090919091909150555b60056000838152602001908152602001600020600601600081548092919061152b906132e5565b91905055505050565b60035481565b60008054906101000a900473ffffffffffffffffffffffffffffffffffffffff1681565b60076020528060005260406000206000915090508060000154908060010160009054906101000a900473ffffffffffffffffffffffffffffffffffffffff16908060010160149054906101000a900460ff16905083565b6060600060025467ffffffffffffffff8111156115d5576115d46125d7565b5b60405190808252806020026020018201604052801561160e57816020015b6115fb6122ab565b8152602001906001900390816115f35790505b50905060005b6002548110156117b9576005600060018361162f9190613549565b8152602001908152602001600020604051806101200160405290816000820154815260200160018201805461166390612fd8565b80601f016020809104026020016040519081016040528092919081815260200182805461168f90612fd8565b80156116dc5780601f106116b1576101008083540402835291602001916116dc565b820191906000526020600020905b8154815290600101906020018083116116bf57829003601f168201915b5050505050815260200160028201548152602001600382015481526020016004820154815260200160058201548152602001600682015481526020016007820160009054906101000a900473ffffffffffffffffffffffffffffffffffffffff1673ffffffffffffffffffffffffffffffffffffffff1673ffffffffffffffffffffffffffffffffffffffff1681526020016007820160149054906101000a900460ff16151515158152505082828151811061179b5761179a613287565b5b602002602001018190525080806117b1906132e5565b915050611614565b508091505090565b813373ffffffffffffffffffffffffffffffffffffffff166005600083815260200190815260200160002060070160009054906101000a900473ffffffffffffffffffffffffffffffffffffffff1673ffffffffffffffffffffffffffffffffffffffff1614611866576040517f08c379a000000000000000000000000000000000000000000000000000000000815260040161185d90612f1d565b60405180910390fd5b81600560008581526020019081526020016000206006015411156118bf576040517f08c379a00000000000000000000000000000000000000000000000000000000081526004016118b6906136aa565b60405180910390fd5b816005600085815260200190815260200160002060050181905550505050565b6118e761230f565b8173ffffffffffffffffffffffffffffffffffffffff16600760008473ffffffffffffffffffffffffffffffffffffffff1673ffffffffffffffffffffffffffffffffffffffff16815260200190815260200160002060010160009054906101000a900473ffffffffffffffffffffffffffffffffffffffff1673ffffffffffffffffffffffffffffffffffffffff16146119b7576040517f08c379a00000000000000000000000000000000000000000000000000000000081526004016119ae90613716565b60405180910390fd5b600760008373ffffffffffffffffffffffffffffffffffffffff1673ffffffffffffffffffffffffffffffffffffffff168152602001908152602001600020604051806080016040529081600082015481526020016001820160009054906101000a900473ffffffffffffffffffffffffffffffffffffffff1673ffffffffffffffffffffffffffffffffffffffff1673ffffffffffffffffffffffffffffffffffffffff1681526020016001820160149054906101000a900460ff1615151515815260200160028201805480602002602001604051908101604052809291908181526020018280548015611acb57602002820191906000526020600020905b815481526020019060010190808311611ab7575b5050505050815250509050919050565b803373ffffffffffffffffffffffffffffffffffffffff166005600083815260200190815260200160002060070160009054906101000a900473ffffffffffffffffffffffffffffffffffffffff1673ffffffffffffffffffffffffffffffffffffffff1614611b80576040517f08c379a0000000000000000000000000000000000000000000000000000000008152600401611b7790612f1d565b60405180910390fd5b42600560008481526020019081526020016000206002015410611bd8576040517f08c379a0000000000000000000000000000000000000000000000000000000008152600401611bcf90613782565b60405180910390fd5b6000600560008481526020019081526020016000206006015411611c31576040517f08c379a0000000000000000000000000000000000000000000000000000000008152600401611c28906137ee565b60405180910390fd5b6005600083815260200190815260200160002060070160149054906101000a900460ff16611c94576040517f08c379a0000000000000000000000000000000000000000000000000000000008152600401611c8b90613529565b60405180910390fd5b600060056000848152602001908152602001600020600601546005600085815260200190815260200160002060040154611cce919061380e565b905060006064600583611ce1919061380e565b611ceb919061387f565b905060008183611cfb91906138b0565b905060008054906101000a900473ffffffffffffffffffffffffffffffffffffffff1673ffffffffffffffffffffffffffffffffffffffff166108fc839081150290604051600060405180830381858888f19350505050158015611d63573d6000803e3d6000fd5b503373ffffffffffffffffffffffffffffffffffffffff166108fc829081150290604051600060405180830381858888f19350505050158015611daa573d6000803e3d6000fd5b5060006005600087815260200190815260200160002060070160146101000a81548160ff0219169083151502179055505050505050565b60026000815480929190611df4906132e5565b91905055506040518061012001604052806002548152602001868152602001858152602001848152602001838152602001828152602001600081526020013373ffffffffffffffffffffffffffffffffffffffff16815260200160011515815250600560006002548152602001908152602001600020600082015181600001556020820151816001019081611e8991906131b5565b5060408201518160020155606082015181600301556080820151816004015560a0820151816005015560c0820151816006015560e08201518160070160006101000a81548173ffffffffffffffffffffffffffffffffffffffff021916908373ffffffffffffffffffffffffffffffffffffffff1602179055506101008201518160070160146101000a81548160ff0219169083151502179055509050505050505050565b60016020528060005260406000206000915054906101000a900460ff1681565b813373ffffffffffffffffffffffffffffffffffffffff166005600083815260200190815260200160002060070160009054906101000a900473ffffffffffffffffffffffffffffffffffffffff1673ffffffffffffffffffffffffffffffffffffffff1614611ff3576040517f08c379a0000000000000000000000000000000000000000000000000000000008152600401611fea90612f1d565b60405180910390fd5b816005600085815260200190815260200160002060030181905550505050565b61201b6122ab565b81600560008481526020019081526020016000206000015414612073576040517f08c379a000000000000000000000000000000000000000000000000000000000815260040161206a90613451565b60405180910390fd5b6005600083815260200190815260200160002060405180610120016040529081600082015481526020016001820180546120ac90612fd8565b80601f01602080910402602001604051908101604052809291908181526020018280546120d890612fd8565b80156121255780601f106120fa57610100808354040283529160200191612125565b820191906000526020600020905b81548152906001019060200180831161210857829003601f168201915b5050505050815260200160028201548152602001600382015481526020016004820154815260200160058201548152602001600682015481526020016007820160009054906101000a900473ffffffffffffffffffffffffffffffffffffffff1673ffffffffffffffffffffffffffffffffffffffff1673ffffffffffffffffffffffffffffffffffffffff1681526020016007820160149054906101000a900460ff1615151515815250509050919050565b60045481565b60405180608001604052806000815260200160008152602001600073ffffffffffffffffffffffffffffffffffffffff1681526020016000151581525090565b50805461222a90612fd8565b6000825580601f1061223c575061225b565b601f01602090049060005260206000209081019061225a919061234f565b5b50565b82805482825590600052602060002090810192821561229a579160200282015b8281111561229957825182559160200191906001019061227e565b5b5090506122a7919061234f565b5090565b60405180610120016040528060008152602001606081526020016000815260200160008152602001600081526020016000815260200160008152602001600073ffffffffffffffffffffffffffffffffffffffff1681526020016000151581525090565b604051806080016040528060008152602001600073ffffffffffffffffffffffffffffffffffffffff168152602001600015158152602001606081525090565b5b80821115612368576000816000905550600101612350565b5090565b6000604051905090565b600080fd5b600080fd5b6000819050919050565b61239381612380565b811461239e57600080fd5b50565b6000813590506123b08161238a565b92915050565b600080604083850312156123cd576123cc612376565b5b60006123db858286016123a1565b92505060206123ec858286016123a1565b9150509250929050565b60006020828403121561240c5761240b612376565b5b600061241a848285016123a1565b91505092915050565b61242c81612380565b82525050565b600081519050919050565b600082825260208201905092915050565b60005b8381101561246c578082015181840152602081019050612451565b60008484015250505050565b6000601f19601f8301169050919050565b600061249482612432565b61249e818561243d565b93506124ae81856020860161244e565b6124b781612478565b840191505092915050565b600073ffffffffffffffffffffffffffffffffffffffff82169050919050565b60006124ed826124c2565b9050919050565b6124fd816124e2565b82525050565b60008115159050919050565b61251881612503565b82525050565b600061012082019050612534600083018c612423565b8181036020830152612546818b612489565b9050612555604083018a612423565b6125626060830189612423565b61256f6080830188612423565b61257c60a0830187612423565b61258960c0830186612423565b61259660e08301856124f4565b6125a461010083018461250f565b9a9950505050505050505050565b60006020820190506125c76000830184612423565b92915050565b600080fd5b600080fd5b7f4e487b7100000000000000000000000000000000000000000000000000000000600052604160045260246000fd5b61260f82612478565b810181811067ffffffffffffffff8211171561262e5761262d6125d7565b5b80604052505050565b600061264161236c565b905061264d8282612606565b919050565b600067ffffffffffffffff82111561266d5761266c6125d7565b5b61267682612478565b9050602081019050919050565b82818337600083830152505050565b60006126a56126a084612652565b612637565b9050828152602081018484840111156126c1576126c06125d2565b5b6126cc848285612683565b509392505050565b600082601f8301126126e9576126e86125cd565b5b81356126f9848260208601612692565b91505092915050565b6000806040838503121561271957612718612376565b5b6000612727858286016123a1565b925050602083013567ffffffffffffffff8111156127485761274761237b565b5b612754858286016126d4565b9150509250929050565b612767816124e2565b811461277257600080fd5b50565b6000813590506127848161275e565b92915050565b6000602082840312156127a05761279f612376565b5b60006127ae84828501612775565b91505092915050565b600081519050919050565b600082825260208201905092915050565b6000819050602082019050919050565b6127ec81612380565b82525050565b6127fb816124e2565b82525050565b61280a81612503565b82525050565b60808201600082015161282660008501826127e3565b50602082015161283960208501826127e3565b50604082015161284c60408501826127f2565b50606082015161285f6060850182612801565b50505050565b60006128718383612810565b60808301905092915050565b6000602082019050919050565b6000612895826127b7565b61289f81856127c2565b93506128aa836127d3565b8060005b838110156128db5781516128c28882612865565b97506128cd8361287d565b9250506001810190506128ae565b5085935050505092915050565b60006020820190508181036000830152612902818461288a565b905092915050565b60808201600082015161292060008501826127e3565b50602082015161293360208501826127e3565b50604082015161294660408501826127f2565b5060608201516129596060850182612801565b50505050565b6000608082019050612974600083018461290a565b92915050565b600060208201905061298f600083018461250f565b92915050565b60006080820190506129aa6000830187612423565b6129b76020830186612423565b6129c460408301856124f4565b6129d1606083018461250f565b95945050505050565b60006020820190506129ef60008301846124f4565b92915050565b6000606082019050612a0a6000830186612423565b612a1760208301856124f4565b612a24604083018461250f565b949350505050565b600081519050919050565b600082825260208201905092915050565b6000819050602082019050919050565b600082825260208201905092915050565b6000612a7482612432565b612a7e8185612a58565b9350612a8e81856020860161244e565b612a9781612478565b840191505092915050565b600061012083016000830151612abb60008601826127e3565b5060208301518482036020860152612ad38282612a69565b9150506040830151612ae860408601826127e3565b506060830151612afb60608601826127e3565b506080830151612b0e60808601826127e3565b5060a0830151612b2160a08601826127e3565b5060c0830151612b3460c08601826127e3565b5060e0830151612b4760e08601826127f2565b50610100830151612b5c610100860182612801565b508091505092915050565b6000612b738383612aa2565b905092915050565b6000602082019050919050565b6000612b9382612a2c565b612b9d8185612a37565b935083602082028501612baf85612a48565b8060005b85811015612beb5784840389528151612bcc8582612b67565b9450612bd783612b7b565b925060208a01995050600181019050612bb3565b50829750879550505050505092915050565b60006020820190508181036000830152612c178184612b88565b905092915050565b600081519050919050565b600082825260208201905092915050565b6000819050602082019050919050565b6000612c5783836127e3565b60208301905092915050565b6000602082019050919050565b6000612c7b82612c1f565b612c858185612c2a565b9350612c9083612c3b565b8060005b83811015612cc1578151612ca88882612c4b565b9750612cb383612c63565b925050600181019050612c94565b5085935050505092915050565b6000608083016000830151612ce660008601826127e3565b506020830151612cf960208601826127f2565b506040830151612d0c6040860182612801565b5060608301518482036060860152612d248282612c70565b9150508091505092915050565b60006020820190508181036000830152612d4b8184612cce565b905092915050565b600080600080600060a08688031215612d6f57612d6e612376565b5b600086013567ffffffffffffffff811115612d8d57612d8c61237b565b5b612d99888289016126d4565b9550506020612daa888289016123a1565b9450506040612dbb888289016123a1565b9350506060612dcc888289016123a1565b9250506080612ddd888289016123a1565b9150509295509295909350565b600061012083016000830151612e0360008601826127e3565b5060208301518482036020860152612e1b8282612a69565b9150506040830151612e3060408601826127e3565b506060830151612e4360608601826127e3565b506080830151612e5660808601826127e3565b5060a0830151612e6960a08601826127e3565b5060c0830151612e7c60c08601826127e3565b5060e0830151612e8f60e08601826127f2565b50610100830151612ea4610100860182612801565b508091505092915050565b60006020820190508181036000830152612ec98184612dea565b905092915050565b7f596f7520617265206e6f7420746865206576656e74206f7267616e697a657200600082015250565b6000612f07601f8361243d565b9150612f1282612ed1565b602082019050919050565b60006020820190508181036000830152612f3681612efa565b9050919050565b7f4576656e742064617465206d75737420626520696e2074686520667574757265600082015250565b6000612f7360208361243d565b9150612f7e82612f3d565b602082019050919050565b60006020820190508181036000830152612fa281612f66565b9050919050565b7f4e487b7100000000000000000000000000000000000000000000000000000000600052602260045260246000fd5b60006002820490506001821680612ff057607f821691505b60208210810361300357613002612fa9565b5b50919050565b60008190508160005260206000209050919050565b60006020601f8301049050919050565b600082821b905092915050565b60006008830261306b7fffffffffffffffffffffffffffffffffffffffffffffffffffffffffffffffff8261302e565b613075868361302e565b95508019841693508086168417925050509392505050565b6000819050919050565b60006130b26130ad6130a884612380565b61308d565b612380565b9050919050565b6000819050919050565b6130cc83613097565b6130e06130d8826130b9565b84845461303b565b825550505050565b600090565b6130f56130e8565b6131008184846130c3565b505050565b5b81811015613124576131196000826130ed565b600181019050613106565b5050565b601f8211156131695761313a81613009565b6131438461301e565b81016020851015613152578190505b61316661315e8561301e565b830182613105565b50505b505050565b600082821c905092915050565b600061318c6000198460080261316e565b1980831691505092915050565b60006131a5838361317b565b9150826002028217905092915050565b6131be82612432565b67ffffffffffffffff8111156131d7576131d66125d7565b5b6131e18254612fd8565b6131ec828285613128565b600060209050601f83116001811461321f576000841561320d578287015190505b6132178582613199565b86555061327f565b601f19841661322d86613009565b60005b8281101561325557848901518255600182019150602085019450602081019050613230565b86831015613272578489015161326e601f89168261317b565b8355505b6001600288020188555050505b505050505050565b7f4e487b7100000000000000000000000000000000000000000000000000000000600052603260045260246000fd5b7f4e487b7100000000000000000000000000000000000000000000000000000000600052601160045260246000fd5b60006132f082612380565b91507fffffffffffffffffffffffffffffffffffffffffffffffffffffffffffffffff8203613322576133216132b6565b5b600182019050919050565b7f5469636b657420646f6573206e6f742065786973740000000000000000000000600082015250565b600061336360158361243d565b915061336e8261332d565b602082019050919050565b6000602082019050818103600083015261339281613356565b9050919050565b7f5469636b657473206861766520616c7265616479206265656e20736f6c640000600082015250565b60006133cf601e8361243d565b91506133da82613399565b602082019050919050565b600060208201905081810360008301526133fe816133c2565b9050919050565b7f4576656e7420646f6573206e6f74206578697374000000000000000000000000600082015250565b600061343b60148361243d565b915061344682613405565b602082019050919050565b6000602082019050818103600083015261346a8161342e565b9050919050565b7f4e6f206d6f7265207469636b65747320617661696c61626c6500000000000000600082015250565b60006134a760198361243d565b91506134b282613471565b602082019050919050565b600060208201905081810360008301526134d68161349a565b9050919050565b7f4576656e74206973206e6f742076616c69640000000000000000000000000000600082015250565b600061351360128361243d565b915061351e826134dd565b602082019050919050565b6000602082019050818103600083015261354281613506565b9050919050565b600061355482612380565b915061355f83612380565b9250828201905080821115613577576135766132b6565b5b92915050565b7f496e636f727265637420616d6f756e742073656e740000000000000000000000600082015250565b60006135b360158361243d565b91506135be8261357d565b602082019050919050565b600060208201905081810360008301526135e2816135a6565b9050919050565b60006135f482612380565b915060008203613607576136066132b6565b5b600182039050919050565b7f4e6577207469636b657420636f756e74206d757374206265206772656174657260008201527f207468616e206f7220657175616c20746f20746865206e756d626572206f662060208201527f7469636b65747320616c726561647920736f6c64000000000000000000000000604082015250565b600061369460548361243d565b915061369f82613612565b606082019050919050565b600060208201905081810360008301526136c381613687565b9050919050565b7f5573657220646f6573206e6f7420657869737400000000000000000000000000600082015250565b600061370060138361243d565b915061370b826136ca565b602082019050919050565b6000602082019050818103600083015261372f816136f3565b9050919050565b7f4576656e74206973206e6f74206f766572207965740000000000000000000000600082015250565b600061376c60158361243d565b915061377782613736565b602082019050919050565b6000602082019050818103600083015261379b8161375f565b9050919050565b7f4e6f207469636b65747320736f6c640000000000000000000000000000000000600082015250565b60006137d8600f8361243d565b91506137e3826137a2565b602082019050919050565b60006020820190508181036000830152613807816137cb565b9050919050565b600061381982612380565b915061382483612380565b925082820261383281612380565b91508282048414831517613849576138486132b6565b5b5092915050565b7f4e487b7100000000000000000000000000000000000000000000000000000000600052601260045260246000fd5b600061388a82612380565b915061389583612380565b9250826138a5576138a4613850565b5b828204905092915050565b60006138bb82612380565b91506138c683612380565b92508282039050818111156138de576138dd6132b6565b5b9291505056fea2646970667358221220986439e88349811f227bdcd12e219e0b1f59145b39438fa97caa4742d124322564736f6c63430008130033",
  "linkReferences": {},
  "deployedLinkReferences": {}
}