{
  "_format": "hh-sol-artifact-1",
  "contractName": "SecurePass",
  "sourceName": "contracts/SecurePass.sol",
  "abi": [
    {
      "inputs": [],
      "stateMutability": "nonpayable",
      "type": "constructor"
    },
    {
      "inputs": [],
      "name": "RFID_CARD_COST",
      "outputs": [
        {
          "internalType": "uint256",
          "name": "",
          "type": "uint256"
        }
      ],
      "stateMutability": "view",
      "type": "function"
    },
    {
      "inputs": [
        {
          "internalType": "uint256",
          "name": "_eventId",
          "type": "uint256"
        }
      ],
      "name": "buyTicket",
      "outputs": [],
      "stateMutability": "payable",
      "type": "function"
    },
    {
      "inputs": [
        {
          "internalType": "string",
          "name": "_eventName",
          "type": "string"
        },
        {
          "internalType": "uint256",
          "name": "_eventDate",
          "type": "uint256"
        },
        {
          "internalType": "uint256",
          "name": "_ticketPrice",
          "type": "uint256"
        },
        {
          "internalType": "uint256",
          "name": "_ticketCount",
          "type": "uint256"
        }
      ],
      "name": "createEvent",
      "outputs": [],
      "stateMutability": "nonpayable",
      "type": "function"
    },
    {
      "inputs": [],
      "name": "eventCounter",
      "outputs": [
        {
          "internalType": "uint256",
          "name": "",
          "type": "uint256"
        }
      ],
      "stateMutability": "view",
      "type": "function"
    },
    {
      "inputs": [
        {
          "internalType": "address",
          "name": "",
          "type": "address"
        }
      ],
      "name": "eventOrganizers",
      "outputs": [
        {
          "internalType": "bool",
          "name": "",
          "type": "bool"
        }
      ],
      "stateMutability": "view",
      "type": "function"
    },
    {
      "inputs": [
        {
          "internalType": "uint256",
          "name": "",
          "type": "uint256"
        }
      ],
      "name": "events",
      "outputs": [
        {
          "internalType": "uint256",
          "name": "eventId",
          "type": "uint256"
        },
        {
          "internalType": "string",
          "name": "eventName",
          "type": "string"
        },
        {
          "internalType": "uint256",
          "name": "eventDate",
          "type": "uint256"
        },
        {
          "internalType": "uint256",
          "name": "ticketPrice",
          "type": "uint256"
        },
        {
          "internalType": "uint256",
          "name": "ticketCount",
          "type": "uint256"
        },
        {
          "internalType": "uint256",
          "name": "ticketSold",
          "type": "uint256"
        },
        {
          "internalType": "address",
          "name": "eventOrganizers",
          "type": "address"
        },
        {
          "internalType": "bool",
          "name": "isValid",
          "type": "bool"
        }
      ],
      "stateMutability": "view",
      "type": "function"
    },
    {
      "inputs": [],
      "name": "getAllEvents",
      "outputs": [
        {
          "components": [
            {
              "internalType": "uint256",
              "name": "eventId",
              "type": "uint256"
            },
            {
              "internalType": "string",
              "name": "eventName",
              "type": "string"
            },
            {
              "internalType": "uint256",
              "name": "eventDate",
              "type": "uint256"
            },
            {
              "internalType": "uint256",
              "name": "ticketPrice",
              "type": "uint256"
            },
            {
              "internalType": "uint256",
              "name": "ticketCount",
              "type": "uint256"
            },
            {
              "internalType": "uint256",
              "name": "ticketSold",
              "type": "uint256"
            },
            {
              "internalType": "address",
              "name": "eventOrganizers",
              "type": "address"
            },
            {
              "internalType": "bool",
              "name": "isValid",
              "type": "bool"
            }
          ],
          "internalType": "struct SecurePass.Event[]",
          "name": "",
          "type": "tuple[]"
        }
      ],
      "stateMutability": "view",
      "type": "function"
    },
    {
      "inputs": [
        {
          "internalType": "address",
          "name": "_userAddress",
          "type": "address"
        }
      ],
      "name": "getAllTicketsOfUser",
      "outputs": [
        {
          "components": [
            {
              "internalType": "uint256",
              "name": "ticketId",
              "type": "uint256"
            },
            {
              "internalType": "uint256",
              "name": "eventId",
              "type": "uint256"
            },
            {
              "internalType": "address",
              "name": "buyer",
              "type": "address"
            },
            {
              "internalType": "bool",
              "name": "isValid",
              "type": "bool"
            }
          ],
          "internalType": "struct SecurePass.Ticket[]",
          "name": "",
          "type": "tuple[]"
        }
      ],
      "stateMutability": "view",
      "type": "function"
    },
    {
      "inputs": [
        {
          "internalType": "uint256",
          "name": "_eventId",
          "type": "uint256"
        }
      ],
      "name": "getEventDetails",
      "outputs": [
        {
          "components": [
            {
              "internalType": "uint256",
              "name": "eventId",
              "type": "uint256"
            },
            {
              "internalType": "string",
              "name": "eventName",
              "type": "string"
            },
            {
              "internalType": "uint256",
              "name": "eventDate",
              "type": "uint256"
            },
            {
              "internalType": "uint256",
              "name": "ticketPrice",
              "type": "uint256"
            },
            {
              "internalType": "uint256",
              "name": "ticketCount",
              "type": "uint256"
            },
            {
              "internalType": "uint256",
              "name": "ticketSold",
              "type": "uint256"
            },
            {
              "internalType": "address",
              "name": "eventOrganizers",
              "type": "address"
            },
            {
              "internalType": "bool",
              "name": "isValid",
              "type": "bool"
            }
          ],
          "internalType": "struct SecurePass.Event",
          "name": "",
          "type": "tuple"
        }
      ],
      "stateMutability": "view",
      "type": "function"
    },
    {
      "inputs": [
        {
          "internalType": "address",
          "name": "organizer",
          "type": "address"
        }
      ],
      "name": "getEventIdsOfAUser",
      "outputs": [
        {
          "internalType": "uint256[]",
          "name": "",
          "type": "uint256[]"
        }
      ],
      "stateMutability": "view",
      "type": "function"
    },
    {
      "inputs": [
        {
          "internalType": "uint256",
          "name": "_ticketId",
          "type": "uint256"
        }
      ],
      "name": "getTicketDetails",
      "outputs": [
        {
          "components": [
            {
              "internalType": "uint256",
              "name": "ticketId",
              "type": "uint256"
            },
            {
              "internalType": "uint256",
              "name": "eventId",
              "type": "uint256"
            },
            {
              "internalType": "address",
              "name": "buyer",
              "type": "address"
            },
            {
              "internalType": "bool",
              "name": "isValid",
              "type": "bool"
            }
          ],
          "internalType": "struct SecurePass.Ticket",
          "name": "",
          "type": "tuple"
        }
      ],
      "stateMutability": "view",
      "type": "function"
    },
    {
      "inputs": [
        {
          "internalType": "address",
          "name": "_userAddress",
          "type": "address"
        }
      ],
      "name": "getUserDetails",
      "outputs": [
        {
          "components": [
            {
              "internalType": "uint256",
              "name": "userId",
              "type": "uint256"
            },
            {
              "internalType": "address",
              "name": "userAddress",
              "type": "address"
            },
            {
              "internalType": "bool",
              "name": "hasRFIDCard",
              "type": "bool"
            },
            {
              "internalType": "uint256[]",
              "name": "ticketsArray",
              "type": "uint256[]"
            }
          ],
          "internalType": "struct SecurePass.User",
          "name": "",
          "type": "tuple"
        }
      ],
      "stateMutability": "view",
      "type": "function"
    },
    {
      "inputs": [
        {
          "internalType": "uint256",
          "name": "_eventId",
          "type": "uint256"
        },
        {
          "internalType": "uint256",
          "name": "_userID",
          "type": "uint256"
        }
      ],
      "name": "isTicketValid",
      "outputs": [
        {
          "internalType": "bool",
          "name": "",
          "type": "bool"
        }
      ],
      "stateMutability": "view",
      "type": "function"
    },
    {
      "inputs": [
        {
          "internalType": "address",
          "name": "",
          "type": "address"
        },
        {
          "internalType": "uint256",
          "name": "",
          "type": "uint256"
        }
      ],
      "name": "organizerEvents",
      "outputs": [
        {
          "internalType": "uint256",
          "name": "",
          "type": "uint256"
        }
      ],
      "stateMutability": "view",
      "type": "function"
    },
    {
      "inputs": [],
      "name": "owner",
      "outputs": [
        {
          "internalType": "address",
          "name": "",
          "type": "address"
        }
      ],
      "stateMutability": "view",
      "type": "function"
    },
    {
      "inputs": [
        {
          "internalType": "uint256",
          "name": "_eventId",
          "type": "uint256"
        }
      ],
      "name": "removeEvent",
      "outputs": [],
      "stateMutability": "nonpayable",
      "type": "function"
    },
    {
      "inputs": [],
      "name": "ticketCounter",
      "outputs": [
        {
          "internalType": "uint256",
          "name": "",
          "type": "uint256"
        }
      ],
      "stateMutability": "view",
      "type": "function"
    },
    {
      "inputs": [
        {
          "internalType": "uint256",
          "name": "",
          "type": "uint256"
        }
      ],
      "name": "tickets",
      "outputs": [
        {
          "internalType": "uint256",
          "name": "ticketId",
          "type": "uint256"
        },
        {
          "internalType": "uint256",
          "name": "eventId",
          "type": "uint256"
        },
        {
          "internalType": "address",
          "name": "buyer",
          "type": "address"
        },
        {
          "internalType": "bool",
          "name": "isValid",
          "type": "bool"
        }
      ],
      "stateMutability": "view",
      "type": "function"
    },
    {
      "inputs": [
        {
          "internalType": "uint256",
          "name": "_eventId",
          "type": "uint256"
        },
        {
          "internalType": "uint256",
          "name": "_eventDate",
          "type": "uint256"
        }
      ],
      "name": "updateEventDate",
      "outputs": [],
      "stateMutability": "nonpayable",
      "type": "function"
    },
    {
      "inputs": [
        {
          "internalType": "uint256",
          "name": "_eventId",
          "type": "uint256"
        },
        {
          "internalType": "string",
          "name": "_eventName",
          "type": "string"
        }
      ],
      "name": "updateEventName",
      "outputs": [],
      "stateMutability": "nonpayable",
      "type": "function"
    },
    {
      "inputs": [
        {
          "internalType": "uint256",
          "name": "_eventId",
          "type": "uint256"
        },
        {
          "internalType": "uint256",
          "name": "_ticketCount",
          "type": "uint256"
        }
      ],
      "name": "updateTicketCount",
      "outputs": [],
      "stateMutability": "nonpayable",
      "type": "function"
    },
    {
      "inputs": [
        {
          "internalType": "uint256",
          "name": "_eventId",
          "type": "uint256"
        },
        {
          "internalType": "uint256",
          "name": "_ticketPrice",
          "type": "uint256"
        }
      ],
      "name": "updateTicketPrice",
      "outputs": [],
      "stateMutability": "nonpayable",
      "type": "function"
    },
    {
      "inputs": [],
      "name": "userCounter",
      "outputs": [
        {
          "internalType": "uint256",
          "name": "",
          "type": "uint256"
        }
      ],
      "stateMutability": "view",
      "type": "function"
    },
    {
      "inputs": [
        {
          "internalType": "address",
          "name": "",
          "type": "address"
        }
      ],
      "name": "users",
      "outputs": [
        {
          "internalType": "uint256",
          "name": "userId",
          "type": "uint256"
        },
        {
          "internalType": "address",
          "name": "userAddress",
          "type": "address"
        },
        {
          "internalType": "bool",
          "name": "hasRFIDCard",
          "type": "bool"
        }
      ],
      "stateMutability": "view",
      "type": "function"
    },
    {
      "inputs": [
        {
          "internalType": "uint256",
          "name": "_eventId",
          "type": "uint256"
        }
      ],
      "name": "withdrawPayment",
      "outputs": [],
      "stateMutability": "nonpayable",
      "type": "function"
    }
  ],
  "bytecode": "0x608060405234801561001057600080fd5b50336000806101000a81548173ffffffffffffffffffffffffffffffffffffffff021916908373ffffffffffffffffffffffffffffffffffffffff1602179055506103e86002819055506103e86003819055506103e8600481905550613d5a8061007b6000396000f3fe6080604052600436106101665760003560e01c806356164e1e116100d1578063c6d4ce471161008a578063e1495fac11610064578063e1495fac14610571578063e4aa47e3146105ae578063ec38d5a0146105eb578063f0c37a591461062857610166565b8063c6d4ce47146104e2578063cc3d967b1461050b578063dbd3cd621461054857610166565b806356164e1e146103dd57806367dd74ca146104065780638c4d59d0146104225780638da5cb5b1461044d578063a87430ba14610478578063c27a500d146104b757610166565b806324c141601161012357806324c141601461029257806326704c70146102cf5780632c49f35e1461030c578063458b514a1461033557806350b447121461037257806352c55db9146103b257610166565b8063011b39501461016b5780630374ab0b146101945780630b791430146101bd57806311d04fcd1461020157806317d4357b1461022c578063184b093814610255575b600080fd5b34801561017757600080fd5b50610192600480360381019061018d919061261f565b610653565b005b3480156101a057600080fd5b506101bb60048036038101906101b691906127a5565b61075a565b005b3480156101c957600080fd5b506101e460048036038101906101df9190612828565b6109c5565b6040516101f898979695949392919061293f565b60405180910390f35b34801561020d57600080fd5b50610216610ac2565b60405161022391906129c4565b60405180910390f35b34801561023857600080fd5b50610253600480360381019061024e91906129df565b610ac7565b005b34801561026157600080fd5b5061027c60048036038101906102779190612a67565b610b95565b6040516102899190612bc5565b60405180910390f35b34801561029e57600080fd5b506102b960048036038101906102b49190612828565b610d8a565b6040516102c69190612c3c565b60405180910390f35b3480156102db57600080fd5b506102f660048036038101906102f1919061261f565b610e94565b6040516103039190612c57565b60405180910390f35b34801561031857600080fd5b50610333600480360381019061032e919061261f565b610f99565b005b34801561034157600080fd5b5061035c60048036038101906103579190612a67565b6110b7565b6040516103699190612d21565b60405180910390f35b34801561037e57600080fd5b5061039960048036038101906103949190612828565b61114e565b6040516103a99493929190612d43565b60405180910390f35b3480156103be57600080fd5b506103c76111ab565b6040516103d491906129c4565b60405180910390f35b3480156103e957600080fd5b5061040460048036038101906103ff9190612828565b6111b1565b005b610420600480360381019061041b9190612828565b6113e9565b005b34801561042e57600080fd5b50610437611999565b60405161044491906129c4565b60405180910390f35b34801561045957600080fd5b5061046261199f565b60405161046f9190612d88565b60405180910390f35b34801561048457600080fd5b5061049f600480360381019061049a9190612a67565b6119c3565b6040516104ae93929190612da3565b60405180910390f35b3480156104c357600080fd5b506104cc611a1a565b6040516104d99190612f96565b60405180910390f35b3480156104ee57600080fd5b506105096004803603810190610504919061261f565b611c1c565b005b34801561051757600080fd5b50610532600480360381019061052d9190612a67565b611d3a565b60405161053f919061308a565b60405180910390f35b34801561055457600080fd5b5061056f600480360381019061056a9190612828565b611f36565b005b34801561057d57600080fd5b5061059860048036038101906105939190612a67565b61223c565b6040516105a59190612c57565b60405180910390f35b3480156105ba57600080fd5b506105d560048036038101906105d091906130ac565b61225c565b6040516105e291906129c4565b60405180910390f35b3480156105f757600080fd5b50610612600480360381019061060d9190612828565b61228d565b60405161061f919061319c565b60405180910390f35b34801561063457600080fd5b5061063d612448565b60405161064a91906129c4565b60405180910390f35b813373ffffffffffffffffffffffffffffffffffffffff166005600083815260200190815260200160002060060160009054906101000a900473ffffffffffffffffffffffffffffffffffffffff1673ffffffffffffffffffffffffffffffffffffffff16146106f8576040517f08c379a00000000000000000000000000000000000000000000000000000000081526004016106ef9061320a565b60405180910390fd5b42821161073a576040517f08c379a000000000000000000000000000000000000000000000000000000000815260040161073190613276565b60405180910390fd5b816005600085815260200190815260200160002060020181905550505050565b42831161079c576040517f08c379a000000000000000000000000000000000000000000000000000000000815260040161079390613276565b60405180910390fd5b600081116107df576040517f08c379a00000000000000000000000000000000000000000000000000000000081526004016107d690613308565b60405180910390fd5b60008211610822576040517f08c379a00000000000000000000000000000000000000000000000000000000081526004016108199061339a565b60405180910390fd5b60026000815480929190610835906133e9565b91905055506040518061010001604052806002548152602001858152602001848152602001838152602001828152602001600081526020013373ffffffffffffffffffffffffffffffffffffffff168152602001600115158152506005600060025481526020019081526020016000206000820151816000015560208201518160010190816108c4919061363d565b5060408201518160020155606082015181600301556080820151816004015560a0820151816005015560c08201518160060160006101000a81548173ffffffffffffffffffffffffffffffffffffffff021916908373ffffffffffffffffffffffffffffffffffffffff16021790555060e08201518160060160146101000a81548160ff021916908315150217905550905050600860003373ffffffffffffffffffffffffffffffffffffffff1673ffffffffffffffffffffffffffffffffffffffff168152602001908152602001600020600254908060018154018082558091505060019003906000526020600020016000909190919091505550505050565b60056020528060005260406000206000915090508060000154908060010180546109ee90613460565b80601f0160208091040260200160405190810160405280929190818152602001828054610a1a90613460565b8015610a675780601f10610a3c57610100808354040283529160200191610a67565b820191906000526020600020905b815481529060010190602001808311610a4a57829003601f168201915b5050505050908060020154908060030154908060040154908060050154908060060160009054906101000a900473ffffffffffffffffffffffffffffffffffffffff16908060060160149054906101000a900460ff16905088565b600a81565b813373ffffffffffffffffffffffffffffffffffffffff166005600083815260200190815260200160002060060160009054906101000a900473ffffffffffffffffffffffffffffffffffffffff1673ffffffffffffffffffffffffffffffffffffffff1614610b6c576040517f08c379a0000000000000000000000000000000000000000000000000000000008152600401610b639061320a565b60405180910390fd5b81600560008581526020019081526020016000206001019081610b8f919061363d565b50505050565b60606000600760008473ffffffffffffffffffffffffffffffffffffffff1673ffffffffffffffffffffffffffffffffffffffff168152602001908152602001600020600201805480602002602001604051908101604052809291908181526020018280548015610c2557602002820191906000526020600020905b815481526020019060010190808311610c11575b505050505090506000815167ffffffffffffffff811115610c4957610c4861267a565b5b604051908082528060200260200182016040528015610c8257816020015b610c6f61244e565b815260200190600190039081610c675790505b50905060005b8251811015610d7f5760066000848381518110610ca857610ca761370f565b5b6020026020010151815260200190815260200160002060405180608001604052908160008201548152602001600182015481526020016002820160009054906101000a900473ffffffffffffffffffffffffffffffffffffffff1673ffffffffffffffffffffffffffffffffffffffff1673ffffffffffffffffffffffffffffffffffffffff1681526020016002820160149054906101000a900460ff161515151581525050828281518110610d6157610d6061370f565b5b60200260200101819052508080610d77906133e9565b915050610c88565b508092505050919050565b610d9261244e565b81600660008481526020019081526020016000206000015414610dea576040517f08c379a0000000000000000000000000000000000000000000000000000000008152600401610de19061378a565b60405180910390fd5b6006600083815260200190815260200160002060405180608001604052908160008201548152602001600182015481526020016002820160009054906101000a900473ffffffffffffffffffffffffffffffffffffffff1673ffffffffffffffffffffffffffffffffffffffff1673ffffffffffffffffffffffffffffffffffffffff1681526020016002820160149054906101000a900460ff1615151515815250509050919050565b600080600090505b600760003373ffffffffffffffffffffffffffffffffffffffff1673ffffffffffffffffffffffffffffffffffffffff16815260200190815260200160002060020180549050811015610f8d5782600760003373ffffffffffffffffffffffffffffffffffffffff1673ffffffffffffffffffffffffffffffffffffffff1681526020019081526020016000206002018281548110610f3e57610f3d61370f565b5b9060005260206000200154148015610f6b5750836006600085815260200190815260200160002060010154145b15610f7a576001915050610f93565b8080610f85906133e9565b915050610e9c565b50600090505b92915050565b813373ffffffffffffffffffffffffffffffffffffffff166005600083815260200190815260200160002060060160009054906101000a900473ffffffffffffffffffffffffffffffffffffffff1673ffffffffffffffffffffffffffffffffffffffff161461103e576040517f08c379a00000000000000000000000000000000000000000000000000000000081526004016110359061320a565b60405180910390fd5b6000600560008581526020019081526020016000206005015414611097576040517f08c379a000000000000000000000000000000000000000000000000000000000815260040161108e906137f6565b60405180910390fd5b816005600085815260200190815260200160002060030181905550505050565b6060600860008373ffffffffffffffffffffffffffffffffffffffff1673ffffffffffffffffffffffffffffffffffffffff16815260200190815260200160002080548060200260200160405190810160405280929190818152602001828054801561114257602002820191906000526020600020905b81548152602001906001019080831161112e575b50505050509050919050565b60066020528060005260406000206000915090508060000154908060010154908060020160009054906101000a900473ffffffffffffffffffffffffffffffffffffffff16908060020160149054906101000a900460ff16905084565b60025481565b803373ffffffffffffffffffffffffffffffffffffffff166005600083815260200190815260200160002060060160009054906101000a900473ffffffffffffffffffffffffffffffffffffffff1673ffffffffffffffffffffffffffffffffffffffff1614611256576040517f08c379a000000000000000000000000000000000000000000000000000000000815260040161124d9061320a565b60405180910390fd5b6000600860003373ffffffffffffffffffffffffffffffffffffffff1673ffffffffffffffffffffffffffffffffffffffff168152602001908152602001600020905060005b818054905081101561135a57838282815481106112bc576112bb61370f565b5b9060005260206000200154036113475781600183805490506112de9190613816565b815481106112ef576112ee61370f565b5b906000526020600020015482828154811061130d5761130c61370f565b5b90600052602060002001819055508180548061132c5761132b61384a565b5b6001900381819060005260206000200160009055905561135a565b8080611352906133e9565b91505061129c565b5060056000848152602001908152602001600020600080820160009055600182016000611387919061248e565b60028201600090556003820160009055600482016000905560058201600090556006820160006101000a81549073ffffffffffffffffffffffffffffffffffffffff02191690556006820160146101000a81549060ff02191690555050505050565b80600560008381526020019081526020016000206000015414611441576040517f08c379a0000000000000000000000000000000000000000000000000000000008152600401611438906138c5565b60405180910390fd5b600060056000838152602001908152602001600020600401541161149a576040517f08c379a000000000000000000000000000000000000000000000000000000000815260040161149190613931565b60405180910390fd5b6005600082815260200190815260200160002060060160149054906101000a900460ff166114fd576040517f08c379a00000000000000000000000000000000000000000000000000000000081526004016114f49061399d565b60405180910390fd5b600060056000838152602001908152602001600020600301549050600760003373ffffffffffffffffffffffffffffffffffffffff1673ffffffffffffffffffffffffffffffffffffffff16815260200190815260200160002060010160149054906101000a900460ff1661157c57600a8161157991906139bd565b90505b8034146115be576040517f08c379a00000000000000000000000000000000000000000000000000000000081526004016115b590613a3d565b60405180910390fd5b600360008154809291906115d1906133e9565b91905055506005600083815260200190815260200160002060040160008154809291906115fd90613a5d565b9190505550600760003373ffffffffffffffffffffffffffffffffffffffff1673ffffffffffffffffffffffffffffffffffffffff1681526020019081526020016000206002016003549080600181540180825580915050600190039060005260206000200160009091909190915055604051806080016040528060035481526020018381526020013373ffffffffffffffffffffffffffffffffffffffff16815260200160011515815250600660006003548152602001908152602001600020600082015181600001556020820151816001015560408201518160020160006101000a81548173ffffffffffffffffffffffffffffffffffffffff021916908373ffffffffffffffffffffffffffffffffffffffff16021790555060608201518160020160146101000a81548160ff021916908315150217905550905050600760003373ffffffffffffffffffffffffffffffffffffffff1673ffffffffffffffffffffffffffffffffffffffff16815260200190815260200160002060010160149054906101000a900460ff1661196957600460008154809291906117a3906133e9565b9190505550604051806080016040528060045481526020013373ffffffffffffffffffffffffffffffffffffffff168152602001600115158152602001600067ffffffffffffffff8111156117fb576117fa61267a565b5b6040519080825280602002602001820160405280156118295781602001602082028036833780820191505090505b50815250600760003373ffffffffffffffffffffffffffffffffffffffff1673ffffffffffffffffffffffffffffffffffffffff1681526020019081526020016000206000820151816000015560208201518160010160006101000a81548173ffffffffffffffffffffffffffffffffffffffff021916908373ffffffffffffffffffffffffffffffffffffffff16021790555060408201518160010160146101000a81548160ff02191690831515021790555060608201518160020190805190602001906118f99291906124ce565b50905050600760003373ffffffffffffffffffffffffffffffffffffffff1673ffffffffffffffffffffffffffffffffffffffff16815260200190815260200160002060020160035490806001815401808255809150506001900390600052602060002001600090919091909150555b600560008381526020019081526020016000206005016000815480929190611990906133e9565b91905055505050565b60035481565b60008054906101000a900473ffffffffffffffffffffffffffffffffffffffff1681565b60076020528060005260406000206000915090508060000154908060010160009054906101000a900473ffffffffffffffffffffffffffffffffffffffff16908060010160149054906101000a900460ff16905083565b6060600060025467ffffffffffffffff811115611a3a57611a3961267a565b5b604051908082528060200260200182016040528015611a7357816020015b611a6061251b565b815260200190600190039081611a585790505b50905060005b600254811015611c145760056000600183611a9491906139bd565b81526020019081526020016000206040518061010001604052908160008201548152602001600182018054611ac890613460565b80601f0160208091040260200160405190810160405280929190818152602001828054611af490613460565b8015611b415780601f10611b1657610100808354040283529160200191611b41565b820191906000526020600020905b815481529060010190602001808311611b2457829003601f168201915b50505050508152602001600282015481526020016003820154815260200160048201548152602001600582015481526020016006820160009054906101000a900473ffffffffffffffffffffffffffffffffffffffff1673ffffffffffffffffffffffffffffffffffffffff1673ffffffffffffffffffffffffffffffffffffffff1681526020016006820160149054906101000a900460ff161515151581525050828281518110611bf657611bf561370f565b5b60200260200101819052508080611c0c906133e9565b915050611a79565b508091505090565b813373ffffffffffffffffffffffffffffffffffffffff166005600083815260200190815260200160002060060160009054906101000a900473ffffffffffffffffffffffffffffffffffffffff1673ffffffffffffffffffffffffffffffffffffffff1614611cc1576040517f08c379a0000000000000000000000000000000000000000000000000000000008152600401611cb89061320a565b60405180910390fd5b8160056000858152602001908152602001600020600501541115611d1a576040517f08c379a0000000000000000000000000000000000000000000000000000000008152600401611d1190613b1e565b60405180910390fd5b816005600085815260200190815260200160002060040181905550505050565b611d42612578565b8173ffffffffffffffffffffffffffffffffffffffff16600760008473ffffffffffffffffffffffffffffffffffffffff1673ffffffffffffffffffffffffffffffffffffffff16815260200190815260200160002060010160009054906101000a900473ffffffffffffffffffffffffffffffffffffffff1673ffffffffffffffffffffffffffffffffffffffff1614611e12576040517f08c379a0000000000000000000000000000000000000000000000000000000008152600401611e0990613b8a565b60405180910390fd5b600760008373ffffffffffffffffffffffffffffffffffffffff1673ffffffffffffffffffffffffffffffffffffffff168152602001908152602001600020604051806080016040529081600082015481526020016001820160009054906101000a900473ffffffffffffffffffffffffffffffffffffffff1673ffffffffffffffffffffffffffffffffffffffff1673ffffffffffffffffffffffffffffffffffffffff1681526020016001820160149054906101000a900460ff1615151515815260200160028201805480602002602001604051908101604052809291908181526020018280548015611f2657602002820191906000526020600020905b815481526020019060010190808311611f12575b5050505050815250509050919050565b803373ffffffffffffffffffffffffffffffffffffffff166005600083815260200190815260200160002060060160009054906101000a900473ffffffffffffffffffffffffffffffffffffffff1673ffffffffffffffffffffffffffffffffffffffff1614611fdb576040517f08c379a0000000000000000000000000000000000000000000000000000000008152600401611fd29061320a565b60405180910390fd5b42600560008481526020019081526020016000206002015410612033576040517f08c379a000000000000000000000000000000000000000000000000000000000815260040161202a90613bf6565b60405180910390fd5b600060056000848152602001908152602001600020600501541161208c576040517f08c379a000000000000000000000000000000000000000000000000000000000815260040161208390613c62565b60405180910390fd5b6005600083815260200190815260200160002060060160149054906101000a900460ff166120ef576040517f08c379a00000000000000000000000000000000000000000000000000000000081526004016120e69061399d565b60405180910390fd5b6000600560008481526020019081526020016000206005015460056000858152602001908152602001600020600301546121299190613c82565b90506000606460058361213c9190613c82565b6121469190613cf3565b9050600081836121569190613816565b905060008054906101000a900473ffffffffffffffffffffffffffffffffffffffff1673ffffffffffffffffffffffffffffffffffffffff166108fc839081150290604051600060405180830381858888f193505050501580156121be573d6000803e3d6000fd5b503373ffffffffffffffffffffffffffffffffffffffff166108fc829081150290604051600060405180830381858888f19350505050158015612205573d6000803e3d6000fd5b5060006005600087815260200190815260200160002060060160146101000a81548160ff0219169083151502179055505050505050565b60016020528060005260406000206000915054906101000a900460ff1681565b6008602052816000526040600020818154811061227857600080fd5b90600052602060002001600091509150505481565b61229561251b565b816005600084815260200190815260200160002060000154146122ed576040517f08c379a00000000000000000000000000000000000000000000000000000000081526004016122e4906138c5565b60405180910390fd5b60056000838152602001908152602001600020604051806101000160405290816000820154815260200160018201805461232690613460565b80601f016020809104026020016040519081016040528092919081815260200182805461235290613460565b801561239f5780601f106123745761010080835404028352916020019161239f565b820191906000526020600020905b81548152906001019060200180831161238257829003601f168201915b50505050508152602001600282015481526020016003820154815260200160048201548152602001600582015481526020016006820160009054906101000a900473ffffffffffffffffffffffffffffffffffffffff1673ffffffffffffffffffffffffffffffffffffffff1673ffffffffffffffffffffffffffffffffffffffff1681526020016006820160149054906101000a900460ff1615151515815250509050919050565b60045481565b60405180608001604052806000815260200160008152602001600073ffffffffffffffffffffffffffffffffffffffff1681526020016000151581525090565b50805461249a90613460565b6000825580601f106124ac57506124cb565b601f0160209004906000526020600020908101906124ca91906125b8565b5b50565b82805482825590600052602060002090810192821561250a579160200282015b828111156125095782518255916020019190600101906124ee565b5b50905061251791906125b8565b5090565b604051806101000160405280600081526020016060815260200160008152602001600081526020016000815260200160008152602001600073ffffffffffffffffffffffffffffffffffffffff1681526020016000151581525090565b604051806080016040528060008152602001600073ffffffffffffffffffffffffffffffffffffffff168152602001600015158152602001606081525090565b5b808211156125d15760008160009055506001016125b9565b5090565b6000604051905090565b600080fd5b600080fd5b6000819050919050565b6125fc816125e9565b811461260757600080fd5b50565b600081359050612619816125f3565b92915050565b60008060408385031215612636576126356125df565b5b60006126448582860161260a565b92505060206126558582860161260a565b9150509250929050565b600080fd5b600080fd5b6000601f19601f8301169050919050565b7f4e487b7100000000000000000000000000000000000000000000000000000000600052604160045260246000fd5b6126b282612669565b810181811067ffffffffffffffff821117156126d1576126d061267a565b5b80604052505050565b60006126e46125d5565b90506126f082826126a9565b919050565b600067ffffffffffffffff8211156127105761270f61267a565b5b61271982612669565b9050602081019050919050565b82818337600083830152505050565b6000612748612743846126f5565b6126da565b90508281526020810184848401111561276457612763612664565b5b61276f848285612726565b509392505050565b600082601f83011261278c5761278b61265f565b5b813561279c848260208601612735565b91505092915050565b600080600080608085870312156127bf576127be6125df565b5b600085013567ffffffffffffffff8111156127dd576127dc6125e4565b5b6127e987828801612777565b94505060206127fa8782880161260a565b935050604061280b8782880161260a565b925050606061281c8782880161260a565b91505092959194509250565b60006020828403121561283e5761283d6125df565b5b600061284c8482850161260a565b91505092915050565b61285e816125e9565b82525050565b600081519050919050565b600082825260208201905092915050565b60005b8381101561289e578082015181840152602081019050612883565b60008484015250505050565b60006128b582612864565b6128bf818561286f565b93506128cf818560208601612880565b6128d881612669565b840191505092915050565b600073ffffffffffffffffffffffffffffffffffffffff82169050919050565b600061290e826128e3565b9050919050565b61291e81612903565b82525050565b60008115159050919050565b61293981612924565b82525050565b600061010082019050612955600083018b612855565b8181036020830152612967818a6128aa565b90506129766040830189612855565b6129836060830188612855565b6129906080830187612855565b61299d60a0830186612855565b6129aa60c0830185612915565b6129b760e0830184612930565b9998505050505050505050565b60006020820190506129d96000830184612855565b92915050565b600080604083850312156129f6576129f56125df565b5b6000612a048582860161260a565b925050602083013567ffffffffffffffff811115612a2557612a246125e4565b5b612a3185828601612777565b9150509250929050565b612a4481612903565b8114612a4f57600080fd5b50565b600081359050612a6181612a3b565b92915050565b600060208284031215612a7d57612a7c6125df565b5b6000612a8b84828501612a52565b91505092915050565b600081519050919050565b600082825260208201905092915050565b6000819050602082019050919050565b612ac9816125e9565b82525050565b612ad881612903565b82525050565b612ae781612924565b82525050565b608082016000820151612b036000850182612ac0565b506020820151612b166020850182612ac0565b506040820151612b296040850182612acf565b506060820151612b3c6060850182612ade565b50505050565b6000612b4e8383612aed565b60808301905092915050565b6000602082019050919050565b6000612b7282612a94565b612b7c8185612a9f565b9350612b8783612ab0565b8060005b83811015612bb8578151612b9f8882612b42565b9750612baa83612b5a565b925050600181019050612b8b565b5085935050505092915050565b60006020820190508181036000830152612bdf8184612b67565b905092915050565b608082016000820151612bfd6000850182612ac0565b506020820151612c106020850182612ac0565b506040820151612c236040850182612acf565b506060820151612c366060850182612ade565b50505050565b6000608082019050612c516000830184612be7565b92915050565b6000602082019050612c6c6000830184612930565b92915050565b600081519050919050565b600082825260208201905092915050565b6000819050602082019050919050565b6000612caa8383612ac0565b60208301905092915050565b6000602082019050919050565b6000612cce82612c72565b612cd88185612c7d565b9350612ce383612c8e565b8060005b83811015612d14578151612cfb8882612c9e565b9750612d0683612cb6565b925050600181019050612ce7565b5085935050505092915050565b60006020820190508181036000830152612d3b8184612cc3565b905092915050565b6000608082019050612d586000830187612855565b612d656020830186612855565b612d726040830185612915565b612d7f6060830184612930565b95945050505050565b6000602082019050612d9d6000830184612915565b92915050565b6000606082019050612db86000830186612855565b612dc56020830185612915565b612dd26040830184612930565b949350505050565b600081519050919050565b600082825260208201905092915050565b6000819050602082019050919050565b600082825260208201905092915050565b6000612e2282612864565b612e2c8185612e06565b9350612e3c818560208601612880565b612e4581612669565b840191505092915050565b600061010083016000830151612e696000860182612ac0565b5060208301518482036020860152612e818282612e17565b9150506040830151612e966040860182612ac0565b506060830151612ea96060860182612ac0565b506080830151612ebc6080860182612ac0565b5060a0830151612ecf60a0860182612ac0565b5060c0830151612ee260c0860182612acf565b5060e0830151612ef560e0860182612ade565b508091505092915050565b6000612f0c8383612e50565b905092915050565b6000602082019050919050565b6000612f2c82612dda565b612f368185612de5565b935083602082028501612f4885612df6565b8060005b85811015612f845784840389528151612f658582612f00565b9450612f7083612f14565b925060208a01995050600181019050612f4c565b50829750879550505050505092915050565b60006020820190508181036000830152612fb08184612f21565b905092915050565b600082825260208201905092915050565b6000612fd482612c72565b612fde8185612fb8565b9350612fe983612c8e565b8060005b8381101561301a5781516130018882612c9e565b975061300c83612cb6565b925050600181019050612fed565b5085935050505092915050565b600060808301600083015161303f6000860182612ac0565b5060208301516130526020860182612acf565b5060408301516130656040860182612ade565b506060830151848203606086015261307d8282612fc9565b9150508091505092915050565b600060208201905081810360008301526130a48184613027565b905092915050565b600080604083850312156130c3576130c26125df565b5b60006130d185828601612a52565b92505060206130e28582860161260a565b9150509250929050565b6000610100830160008301516131056000860182612ac0565b506020830151848203602086015261311d8282612e17565b91505060408301516131326040860182612ac0565b5060608301516131456060860182612ac0565b5060808301516131586080860182612ac0565b5060a083015161316b60a0860182612ac0565b5060c083015161317e60c0860182612acf565b5060e083015161319160e0860182612ade565b508091505092915050565b600060208201905081810360008301526131b681846130ec565b905092915050565b7f596f7520617265206e6f7420746865206576656e74206f7267616e697a657200600082015250565b60006131f4601f8361286f565b91506131ff826131be565b602082019050919050565b60006020820190508181036000830152613223816131e7565b9050919050565b7f4576656e742064617465206d75737420626520696e2074686520667574757265600082015250565b600061326060208361286f565b915061326b8261322a565b602082019050919050565b6000602082019050818103600083015261328f81613253565b9050919050565b7f5469636b657420636f756e74206d75737420626520677265617465722074686160008201527f6e20300000000000000000000000000000000000000000000000000000000000602082015250565b60006132f260238361286f565b91506132fd82613296565b604082019050919050565b60006020820190508181036000830152613321816132e5565b9050919050565b7f5469636b6574207072696365206d75737420626520677265617465722074686160008201527f6e20300000000000000000000000000000000000000000000000000000000000602082015250565b600061338460238361286f565b915061338f82613328565b604082019050919050565b600060208201905081810360008301526133b381613377565b9050919050565b7f4e487b7100000000000000000000000000000000000000000000000000000000600052601160045260246000fd5b60006133f4826125e9565b91507fffffffffffffffffffffffffffffffffffffffffffffffffffffffffffffffff8203613426576134256133ba565b5b600182019050919050565b7f4e487b7100000000000000000000000000000000000000000000000000000000600052602260045260246000fd5b6000600282049050600182168061347857607f821691505b60208210810361348b5761348a613431565b5b50919050565b60008190508160005260206000209050919050565b60006020601f8301049050919050565b600082821b905092915050565b6000600883026134f37fffffffffffffffffffffffffffffffffffffffffffffffffffffffffffffffff826134b6565b6134fd86836134b6565b95508019841693508086168417925050509392505050565b6000819050919050565b600061353a613535613530846125e9565b613515565b6125e9565b9050919050565b6000819050919050565b6135548361351f565b61356861356082613541565b8484546134c3565b825550505050565b600090565b61357d613570565b61358881848461354b565b505050565b5b818110156135ac576135a1600082613575565b60018101905061358e565b5050565b601f8211156135f1576135c281613491565b6135cb846134a6565b810160208510156135da578190505b6135ee6135e6856134a6565b83018261358d565b50505b505050565b600082821c905092915050565b6000613614600019846008026135f6565b1980831691505092915050565b600061362d8383613603565b9150826002028217905092915050565b61364682612864565b67ffffffffffffffff81111561365f5761365e61267a565b5b6136698254613460565b6136748282856135b0565b600060209050601f8311600181146136a75760008415613695578287015190505b61369f8582613621565b865550613707565b601f1984166136b586613491565b60005b828110156136dd578489015182556001820191506020850194506020810190506136b8565b868310156136fa57848901516136f6601f891682613603565b8355505b6001600288020188555050505b505050505050565b7f4e487b7100000000000000000000000000000000000000000000000000000000600052603260045260246000fd5b7f5469636b657420646f6573206e6f742065786973740000000000000000000000600082015250565b600061377460158361286f565b915061377f8261373e565b602082019050919050565b600060208201905081810360008301526137a381613767565b9050919050565b7f5469636b657473206861766520616c7265616479206265656e20736f6c640000600082015250565b60006137e0601e8361286f565b91506137eb826137aa565b602082019050919050565b6000602082019050818103600083015261380f816137d3565b9050919050565b6000613821826125e9565b915061382c836125e9565b9250828203905081811115613844576138436133ba565b5b92915050565b7f4e487b7100000000000000000000000000000000000000000000000000000000600052603160045260246000fd5b7f4576656e7420646f6573206e6f74206578697374000000000000000000000000600082015250565b60006138af60148361286f565b91506138ba82613879565b602082019050919050565b600060208201905081810360008301526138de816138a2565b9050919050565b7f4e6f206d6f7265207469636b65747320617661696c61626c6500000000000000600082015250565b600061391b60198361286f565b9150613926826138e5565b602082019050919050565b6000602082019050818103600083015261394a8161390e565b9050919050565b7f4576656e74206973206e6f742076616c69640000000000000000000000000000600082015250565b600061398760128361286f565b915061399282613951565b602082019050919050565b600060208201905081810360008301526139b68161397a565b9050919050565b60006139c8826125e9565b91506139d3836125e9565b92508282019050808211156139eb576139ea6133ba565b5b92915050565b7f496e636f727265637420616d6f756e742073656e740000000000000000000000600082015250565b6000613a2760158361286f565b9150613a32826139f1565b602082019050919050565b60006020820190508181036000830152613a5681613a1a565b9050919050565b6000613a68826125e9565b915060008203613a7b57613a7a6133ba565b5b600182039050919050565b7f4e6577207469636b657420636f756e74206d757374206265206772656174657260008201527f207468616e206f7220657175616c20746f20746865206e756d626572206f662060208201527f7469636b65747320616c726561647920736f6c64000000000000000000000000604082015250565b6000613b0860548361286f565b9150613b1382613a86565b606082019050919050565b60006020820190508181036000830152613b3781613afb565b9050919050565b7f5573657220646f6573206e6f7420657869737400000000000000000000000000600082015250565b6000613b7460138361286f565b9150613b7f82613b3e565b602082019050919050565b60006020820190508181036000830152613ba381613b67565b9050919050565b7f4576656e74206973206e6f74206f766572207965740000000000000000000000600082015250565b6000613be060158361286f565b9150613beb82613baa565b602082019050919050565b60006020820190508181036000830152613c0f81613bd3565b9050919050565b7f4e6f207469636b65747320736f6c640000000000000000000000000000000000600082015250565b6000613c4c600f8361286f565b9150613c5782613c16565b602082019050919050565b60006020820190508181036000830152613c7b81613c3f565b9050919050565b6000613c8d826125e9565b9150613c98836125e9565b9250828202613ca6816125e9565b91508282048414831517613cbd57613cbc6133ba565b5b5092915050565b7f4e487b7100000000000000000000000000000000000000000000000000000000600052601260045260246000fd5b6000613cfe826125e9565b9150613d09836125e9565b925082613d1957613d18613cc4565b5b82820490509291505056fea264697066735822122035def81d8c676b4673dea53ac8481411de811c85f677928dbe3a700e29864ce064736f6c63430008130033",
  "linkReferences": {},
  "deployedLinkReferences": {}
}